:020000040800F2
:1000000058240020D1B0010871AD010873AD01087A
:10001000A1AD0108A3AD0108A5AD010800000000D5
:1000200000000000000000000000000035B10108E1
:10003000A7AD01080000000039B10108F133010843
:100040003DB1010841B1010845B1010849B10108BC
:100050004DB1010851B1010855B1010859B101086C
:100060005DB1010861B1010865B1010869B101081C
:100070006DB1010871B1010875B1010879B10108CC
:100080007DB1010881B1010885B1010889B101087C
:100090008DB1010891B1010895B1010899B101082C
:1000A0009DB10108A1B10108A5B10108A9B10108DC
:1000B0005F340108ADB10108B1B10108B5B1010863
:1000C000B9B10108BDB10108C1B10108C5B101084C
:1000D000C9B10108EB450108CDB10108D1B1010852
:1000E000D5B10108D9B10108DDB10108E1B10108BC
:1000F000E5B10108E9B10108EDB10108F1B101086C
:10010000F5B10108F5A00108F9B10108FDB1010838
:1001100001B2010805B2010809B201080DB20108D7
:1001200011B2010815B2010819B20108FDA00108B9
:100130001DB2010821B2010825B2010829B2010847
:100140002DB2010831B2010835B2010839B20108F7
:100150003DB2010841B2010845B2010849B20108A7
:100160004DB2010851B2010855B2010859B2010857
:100170005DB2010861B2010865B2010869B2010807
:100180006DB2010871B2010875B2010879B20108B7
:100190007DB2010881B2010885B2010889B2010867
:1001A000418000088DB2010833800008F0B4056872
:1001B000B0F90C30B0F90E60B0F91040B0F912206F
:1001C0004769011DFFB9B5F90270BA42A4BFB5F97C
:1001D00000C0644556DBB5F906C0B445A4BFB5F907
:1001E00004C09C454EDBBE420ADA4E806A880B8012
:1001F000521ECA808C80012141610120F0BC7047F1
:100200000127476101E0012F0BD1B5F90070BB4216
:1002100004DA0B802B885B1E8B800CE00227476181
:1002200001E0022F1CD1B5F90470A74215DA8C80C9
:10023000AB885B1C0B80B5F902309E42B8BF1E46EE
:100240004E80B5F906309342B4BFCB80CA80416975
:10025000491C41610120F0BC70470326466101E062
:10026000032F0FD1B5F90650954209DA6D1C4D8068
:10027000CA800B808C80042141610120F0BC704752
:10028000042141610020F0BC7047000070B4089C5C
:100290006060A160E26023611018059D6561421EE7
:1002A0000798B0F902505B185B1E691A012921609A
:1002B0000ADB2669761A012E266170DBA560049E92
:1002C000656906FB01516161B0F90610591A0129EF
:1002D000216004DB2369591A012921615FDBB0F930
:1002E0000410531A2360012BE268A8BFD21A656874
:1002F000B0F90000069E8542334643DA431BB0182E
:10030000C21A0398401E1F283CD8DFE800F0101ADC
:100310003B243B3B3B2E3B3B3B3B3B3B3B313B3B5B
:100320003B3B3B3B3B353B3B3B3B3B3B3B356069D6
:1003300000EBD300606123F00700451903F00703C9
:1003400020E0606900EB9300606123F00300451931
:1003500003F0030316E0606900EB5300606123F0D3
:100360000100451903F001030CE06069181806E06C
:10037000606900EB430002E0606900EB83005D19F7
:10038000606100236560236060681D185519A942EB
:1003900002DA081AC01A421C012AE26002DA70BCB2
:1003A0000120704770BC0020704700002DE9F04F1D
:1003B0008B4697B004460FF2B83111A891EC060BAA
:1003C00080EC060BA0689046994602F0FFFA069072
:1003D00000270699B0F90800B1F90410401A401C32
:1003E0000A900698406909900698001D1190249E75
:1003F000D4F800A0259C1199ADF8528006EB0B00B3
:10040000ADF850004844401EADF85400209D05EB67
:100410000800401EADF8560014A802F0AFFB0028FB
:100420003CD1059404964B4623980390424622986B
:10043000029059462198019000955046DAF80C40F8
:100440006468A04706A802F0D2FA17B0BDE8F08FA2
:100450000BA805902B4612A8049003964A462398B1
:100460000290414622980190219800905846FFF74B
:100470000DFF98B90B980E9B0D9A0C99049005945A
:100480001098039022980290219801900F98009064
:100490005046DAF80CC0DCF804C0E04711A8FFF7BA
:1004A00085FE0028D4D1119907A8082202F082FB0A
:1004B00014A907A802F062FB0028C3D014A907A85A
:1004C00002F0B3FB0BA805902B4607A804900396F7
:1004D0004A46239802904146229801902198009024
:1004E0005846FFF7D3FE0028ACD1DAF81000DFF849
:1004F000F09B806880470699BDF91E80C9688346D5
:10050000BDF92200002900F092804045FFF69AAF25
:10051000BDF91C50BDF92000A842C0F280800D98A2
:10052000109A2299A8EB000000900C982B1A2198A1
:1005300002F09BFB06460698B0F90600A8EB000205
:100540000698B0F90400291A099802F0DAFB00288D
:1005500037D00698B0F906200A99A8EB020202FBF0
:100560000151B0F90420891A00EB810000F120024A
:10057000D9F80000007C002C00F0030011D0032803
:1005800047D8DFE800F004080208002E41D054F8F4
:10059000260010603DE054F826008BEA0000106051
:1005A00037E0032835D8DFE800F0020804081660B9
:1005B0002FE0002E2DD016602BE08BEA0600106095
:1005C00027E0D9F80000007C002C00F003000ED0DA
:1005D00003281ED8DFE800F003060206CEB154F867
:1005E00026300FE054F826008BEA00030AE00328C7
:1005F0000FD8DFE800F00305020556B1334601E0ED
:100600008BEA0603DAF80C70BF6942462946504669
:10061000B847BDF920006D1CA842BFF680AFBDF9F8
:10062000220008F101084045FFF60CAF70E7404595
:10063000FFF608AFBDF91C50BDF92000A842C0F27A
:100640008F800D98109A2299A8EB000000900C98CA
:100650002B1A219802F009FB06460698B0F906000D
:10066000A8EB00020698B0F90400291A099802F0D4
:1006700048FB010ED9F80030FF2944D0069AB2F9A0
:1006800006E0DDF828C01B7CA8EB0E0E0EFB0C5C10
:10069000B2F904E0ACEB0E0C02EB8C022032002C21
:1006A00003F003030ED0032B19D8DFE803F0030691
:1006B0000206A6B154F8267010E054F826708BEAB2
:1006C00007070BE0032B0AD8DFE803F00306020656
:1006D0002EB11660374602E08BEA06071760002944
:1006E00038D0C1F1FF02D2B2394602F085FB069A3A
:1006F000DFF8C01B1268926951F822100969096875
:10070000884703461EE0187C002C00F003000ED042
:1007100003281FD8DFE800F003060206D6B154F81C
:1007200026300FE054F826008BEA00030AE0032885
:1007300010D8DFE800F0030502055EB1334601E0A2
:100740008BEA0603DAF80C60D6F818C04246294650
:100750005046E047BDF920006D1CA842BFF671AFBE
:10076000BDF9220008F101084045FFF66BAE61E7D4
:100770000000000000000000000000000000000079
:1007800000000000000000002DE9F04F0E4689B087
:1007900007460FF2C01103A891EC060B80EC060B84
:1007A000B86814461D4602F011F900900099B0F99E
:1007B0000800B1F90410401A00F101090098D0F8BE
:1007C00014B0001D039006A83F680399ADF81860A7
:1007D000ADF81A40ADF81C50ADF81E4002F0CEF94D
:1007E000B8B92246FC68A4682B4631463846A04773
:1007F000684602F0FCF809B0BDE8F08FFD68BDF96D
:100800001430BDF91220BDF91010D5F808C03846D3
:10081000E04703A8FFF7CAFC0028EFD1039901A81D
:10082000082202F0C7F906A901A802F0A7F90028DA
:10083000DED006A901A802F0F8F9DFF8A45828686C
:10084000C06BD0F800800098C068A0B3BDF9046008
:10085000BDF90800B042CBDB0098B0F90600221ABF
:100860000098B0F90400311A584602F04AFA88B1EB
:100870000098BDF90610B0F90620891AB0F90420D5
:1008800001FB0961891A00EB81002968C96B0968BD
:1008900001620AE02868C06BD7F80CC00368DCF876
:1008A00018C0224631463846E047BDF90800761C9C
:1008B000B042D1DA9CE70099DFF8F85909688969F4
:1008C00055F8211009694968404688478246BDF9B4
:1008D0000460BDF90800B0428ADB0098B0F9060058
:1008E000221A0098B0F90400311A584602F009FAA9
:1008F000010EFF291ED0009AB2F90630B2F904C0E9
:10090000E31A03FB0963A3EB0C0302EB8302C2F8B7
:100910002080C1B1C1F1FF02D2B2514602F06CFA9F
:1009200000990968896955F821100969096888479B
:10093000034600E04346D7F80CC0DCF818C0224656
:1009400031463846E047BDF90800761CB042C4DAAB
:100950004EE7000000000000000000000000000062
:100960000000000000000000000000002DE9F04F32
:100970000C4689B007460FF2AC1103A891EC060BA8
:1009800080EC060BB86815461E4602F01FF8009072
:100990000099B0F90800B1F90410401A00F10108FB
:1009A0000098D0F814B0001D039006A83F68039982
:1009B000ADF81840ADF81A50ADF81C40ADF81E6007
:1009C00002F0DCF8B8B92146FC68E46833462A46F0
:1009D0003846A047684602F00AF809B0BDE8F08F33
:1009E000FD68BDF91630BDF91220BDF91010D5F81B
:1009F0000CC03846E04703A8FFF7D8FB0028EFD12A
:100A0000039901A8082202F0D5F806A901A802F06E
:100A1000B5F80028DED006A901A802F006F9DFF833
:100A2000C0060068C06B05680098C06868B3BDF96F
:100A30000660BDF90A00B042CCDB0098B0F90600B0
:100A4000321A0098B0F90400211A584602F059F9F8
:100A500060B10098B0F90610B0F90420711A01FBDA
:100A60000841891A00EB8100056208E0D7F80CC044
:100A7000DCF818C02B46324621463846E047BDF91F
:100A80000A00761CB042D8DAA4E70099DFF824986F
:100A90000968896959F82110096949682846884711
:100AA0008246BDF90660BDF90A00B04292DB0098AB
:100AB000B0F90600321A0098B0F90400211A58461D
:100AC00002F01FF9010EFF291DD0009AB2F906307D
:100AD000B2F904C0F31A03FB0843A3EB0C0302EBC7
:100AE00083021562C1B1C1F1FF02D2B2514602F0D8
:100AF00083F900990968896959F821100969096819
:100B00008847034600E02B46D7F80CC0DCF818C035
:100B1000324621463846E047BDF90A00761CB0420D
:100B2000C5DA57E7000000000000000000000000E8
:100B30000000000000000000000000002DE9F04F60
:100B40000F468BB006460FF2F81104A891EC060B85
:100B500080EC060BB0681546994601F037FF01900E
:100B60000199B0F90800B1F90410401A00F1010A26
:100B70000198D0F814B0001D049007A83668ADF8AD
:100B80001C70ADF81E50ADF82090149C0499ADF87F
:100B9000224001F0F3FFE0B900944B46F468D4F82A
:100BA00010A02A4639463046D04701A801F01FFF61
:100BB0000BB0BDE8F08F00BFBDF91A00BDF91830C9
:100BC000BDF91620BDF9141000903046F7683F6952
:100BD000B84704A8FFF7EAFA0028EDD1049902A863
:100BE000082201F0E7FF07A902A801F0C7FF0028CB
:100BF000DBD007A902A802F018F8DFF8E484D8F8DF
:100C00000000C06B07680198C06800283CD0BDF99F
:100C10000A40BDF90E00A042FFF6C7AFBDF908506B
:100C2000BDF90C00A84229DB0198B0F90600221A90
:100C30000198B0F90400291A584602F062F860B130
:100C40000198B0F90610B0F90420611A01FB0A51AD
:100C5000891A00EB810007620BE0D8F80000C06B36
:100C6000D6F80CC00368DCF818C022462946304686
:100C7000E047BDF90C006D1CA842D5DABDF90E00A5
:100C8000641CA04291DBC9E70199DFF82886096856
:100C9000896958F8211009694968384688478146AA
:100CA000BDF90A40BDF90E00B0EB040FFFF67DAFB1
:100CB000BDF90850BDF90C00A84239DB0198B0F924
:100CC0000600221A0198B0F90400291A584602F0C9
:100CD00018F8010EFF291DD0019AB2F90630B2F9B9
:100CE00004C0E31A03FB0A53A3EB0C0302EB8302D9
:100CF0001762C1B1C1F1FF02D2B2494602F07CF8DD
:100D000001990968896958F82110096909688847B3
:100D1000034600E03B46D6F80CC0DCF818C022467B
:100D200029463046E047BDF90C006D1CA842C5DAE3
:100D3000BDF90E00641CA042FFF637AFB8E7000013
:100D400000000000000000000000000000000000A3
:100D500000000000000000002DE9F041074682B0CD
:100D6000B8680C46154601F031FE00900099B0F9C4
:100D70000800B1F90410009E3F68401A00F1010814
:100D80008C427069A4BFB6F90620954210DB611A47
:100D9000038801F1010C6345A1BFAA1A438802F13F
:100DA000010C634504DB01F0ACFFF16871B180B95F
:100DB000FB685B692A4621463846984704466846E0
:100DC00001F015FE204602B0BDE8F081000EFF28BC
:100DD000EED20098B0F90610B0F90420691A01FBB0
:100DE0000841891A00EB8100046AE8E72DE9F04325
:100DF000064681B0B0680C461546994601F0E6FDFE
:100E000000900099B0F90800B1F90410009F36680D
:100E1000401A00F101088C427869A4BFB7F9062096
:100E2000954210DB611A038801F1010C6345A1BFF3
:100E3000AA1A438802F1010C634504DB01F061FF4B
:100E4000F96811B120B94B463BE0000EFF28FAD2F9
:100E50000098B0F90610B0F90420691A01FB0841A6
:100E6000891A00EB8100C0F820900098C06870BB20
:100E70000099DFF840740968896957F821100969F9
:100E800049684846884781460098B0F906002A1A02
:100E90000098B0F90400211A0098406901F031FF70
:100EA000010E14D0C1F1FF02D2B2494601F0A4FFF5
:100EB00000990968896957F8211009690968884704
:100EC00003462146F468A4692A463046A04768468E
:100ED00001F08DFD01B0BDE8F0832DE9F047064635
:100EE00082B0B0680C46154601F070FD0090009984
:100EF000B0F90800B1F90410009F3668401A00F1FB
:100F000001088C427869A4BFB7F90620954210DB2E
:100F1000611A038801F1010C6345A1BFAA1A438835
:100F200002F1010C634504DB01F0EBFEF96839B115
:100F300048B9F368DB692A462146304698474AE0BB
:100F4000000EFF28F5D20098B0F90610B0F9042081
:100F5000691A01FB0841891A00EB810000F12007A2
:100F60003069806880473968484038600098C068B8
:100F700088BB0098B0F906002A1A0098B0F904005E
:100F8000211A0098406901F0BCFE81465FEA196AA7
:100F900021D00099DFF81C830968896958F821106D
:100FA0000969386849688847CAF1FF020102D2B26C
:100FB000090A484601F020FF00990968896958F834
:100FC00021100969096888472146F468A469034625
:100FD0002A463046A047684601F009FD02B0BDE848
:100FE000F08700207047006810B1C3681B6A18477B
:100FF000704700B581B00068009000281EBF0068EF
:101000000090002806D0009AD268526A684690473D
:1010100001B000BD002001B000BD006810B1C26881
:10102000926A10477047006810B1C268126B10478F
:101030007047F0B50D4687B0E968044611B9002045
:1010400007B0F0BD95F930202868012A02D1AF6AB7
:10105000064606E06A682F6A161DEA6900EB820000
:10106000001F68602468B4B1AA69304602F0A8F88D
:101070000020059004900396394668690290A8699B
:101080000190012000902046E468EB68EA6A6468F9
:10109000A047002000E001200021E96007B0F0BD7A
:1010A00030B5044681B00D46A069DFF80C124156F8
:1010B00002290DDB00216980298002F0D8F9401E49
:1010C000A880A06902F0E1F9401EE88001B030BDBF
:1010D000E268126B2946204601B0BDE83040104757
:1010E000740100202DE9F04F89B001F06FFC0090F1
:1010F000D0F80080D8F818000590DFF88009006863
:10110000417C0491049A0599914218BF417400985A
:101110000099D0F8149000F1200A01A8091D0822B6
:1011200001F048FD06A94046FFF7BAFF06A901A84D
:1011300001F07BFD009E706900888000343001F072
:1011400038FC050000F09F8001F040FC0446306848
:10115000806902F0FDFA002800F09580C268926A6A
:101160000821904703280BDB052808DB092804DB4E
:101170001128B4BF1020202002E0082000E0042045
:10118000A0610928B8BF012003DB1128B4BF0220E9
:1011900004202061706900882169E0614843606132
:1011A00001F03AFC61698842C8BF08466061A560E9
:1011B00004F1340020600020E060012084F8300059
:1011C000002C206860605ED0BDF90650BDF90A00B1
:1011D000A8424ADB0098B0F90600BDF904702E1A47
:1011E000BDF90800B8423BDB0098B0F90400A7EB5A
:1011F000000B32465946484601F083FD0099C96804
:1012000009B118B927E0000EFF2824D2B9F8000070
:1012100070430AEB800050F82BB0606A854201BF32
:10122000206A94F9301040FA81F0874203D02146B9
:101230004046FFF7FEFE6068C0F800B094F9301039
:1012400000EB81006060E06808B9A762E562401CBD
:10125000E060276265627F1CBDF90800B842C3DA0E
:10126000BDF90A006D1CA842B4DA00980394214627
:101270000068FFF7DEFE0398846803A801F0B7FB5F
:10128000204601F020FC00988269100003D00098ED
:10129000C06901219047684601F0A9FB05980499AF
:1012A000884204D00846DFF8D4170968487409B0AA
:1012B000BDE8F08F780100204C5700202DE9F64F53
:1012C000A3B001F083FB0190006801990690B1F989
:1012D00004102398884201BF24980199B1F906109F
:1012E000884200F0C583002002F01CFC2290069882
:1012F00080690A90DFF884070068417C1D911D9A7F
:101300000A99914218BF41740198B0F904000D90F8
:101310000198B0F906000D990C900198B0F90800F9
:10132000401A401C129001980C99B0F90A00401A1A
:10133000401C1C90002020900198007C800740F108
:101340007A83019840690D991590019820301F907B
:101350002398401A09900C992498401A08901298E2
:101360000999401E012909DB012107911B900021E9
:1013700014910998129911911A900AE014904FF063
:10138000FF310020079111911A90099914980818BB
:101390001B901C980899401E012908DB0121199116
:1013A000189000241C9908981091179009E00446A1
:1013B000002017904FF0FF310898199100191091F3
:1013C000189003A90698FFF76BFE019F78690088C3
:1013D0008000343001F0EDFA060000F02C8301F0BB
:1013E000F5FA05463868806902F0B2F9002800F085
:1013F0002283C268926A0821904703280BDB0528E4
:1014000008DB092804DB1128B4BF1020202002E0EB
:10141000082000E00420A8610928B8BF012003DBF0
:101420001128B4BF02200420286178690088296946
:10143000E8614843686101F0EFFA69698842C8BF12
:1014400008466861AE6005F1340028600020E8605D
:10145000079885F8300007992868012903D0E969C1
:1014600000EB8100001F002D686000F0E482019F06
:10147000786900888000343001F09BFA5FEA000A46
:1014800000F0CB8201F0A2FA06463868806902F0CB
:101490005FF9002800F0C182C268926A0821904773
:1014A00003280BDB052808DB092804DB1128B4BF5F
:1014B0001020202002E0082000E00420B06109286C
:1014C000B8BF012003DB1128B4BF02200420306123
:1014D000786900883169F0614843706101F09CFAD5
:1014E00071698842C8BF08467061C6F808A006F155
:1014F000340030600020F060079886F830000798CC
:101500000128306803D0F16900EB8100001F002E34
:10151000706000F082820198C068002800F022818B
:1015200001F054FA10991E908C42029400F016813A
:10153000029817998842A2BF189802998842ACBFB6
:10154000012000200F9008990C98DDF850A0081891
:1015500002990818009008990298401A0B90129965
:101560000298484316900C99029808181390119805
:10157000824500F0EB80029A1598514601F0C1FBBC
:1015800000245FEA000800F0DB801F98169900EB4A
:10159000810000EB8A000E9009990D9808180AEB5B
:1015A00000091A988245A3BF1B9850450F9F00273A
:1015B000BDF90C008145A2BF0098BDF90E1088420C
:1015C0003FDBBDF910004845A2BFBDF912000099EC
:1015D000884236DB019CB4F904108945A4BFB4F9F4
:1015E0000800484515DBB4F90600009A8242A2BF04
:1015F000B4F90A20009B9A420BDBA9EB010105918B
:101600000099A1EB000B059960695A4601F079FB3E
:1016100058B90698006830B1C368009A5B694946BA
:10162000984704460DE000240BE0B4F90800B4F933
:101630000410401A0599401C0BFB001004EB8000BD
:10164000046AFFB25FB10998BAEB00015CBF0B9866
:1016500000283CD40246159801F053FBB8BB0D9806
:10166000DDF84CB000EB0A07BDF90C008742A4BFBF
:10167000BDF90E0083452ADBBDF91000B842A4BFB6
:10168000BDF91200584522DB0E9800680590706A7B
:10169000834501BF306A96F9301040FA81F08742E5
:1016A00003D006983146FFF7C4FC706805990160C5
:1016B00096F9301000EB81007060F06810B9B762E5
:1016C000C6F82CB0401CF0603762C6F824B0BDF9F3
:1016D0000C008145A2BF0098BDF90E1088422DDB99
:1016E000BDF910004845A2BFBDF91200009988421B
:1016F00024DB1E9850F828700846696A884201BFAA
:10170000286A95F9301040FA81F0814503D0069897
:101710002946FFF78EFC6868076095F9301000EBEA
:1017200081006860E86818B9C5F828900099E962F6
:10173000401CE860C5F82090009868620E9804602C
:1017400007988244119882457FF415AF0298199941
:1017500008181099029088427FF4EAAE1EA801F0A2
:1017600046F94CE1109902948C4200F048810298AD
:1017700017998842A2BF189802998842ACBF0120ED
:1017800000200F9008990C98DDF850A008180299D5
:101790000818009008990298401A1390129902981C
:1017A000484316900C990298081821901198824588
:1017B00000F01D81029A1598514601F0A2FA00240A
:1017C00080464FEA1860FF280B9000F00A811F98AE
:1017D000169900EB810000EB8A000E9009990D9894
:1017E00008180AEB00091A988245A3BF1B985045B8
:1017F0000F9F0027BDF90C008145A2BF0098BDF9DD
:101800000E10884250DBBDF910004845A2BFBDF95B
:1018100012000099884247DB019C00200590834616
:10182000B4F904108945A4BFB4F90800484516DB93
:10183000B4F90600009A8242A2BFB4F90A20009BC4
:101840009A420CDBA9EB010105910099A1EB000B79
:10185000606920B105995A4601F053FA01E04FF052
:101860007F40000EFF2808D10698006888B1C36841
:10187000009A5B69494698470BE0B4F90800B4F94F
:101880000410401A0599401C0BFB001004EB80006B
:10189000006A7B490A9A51F822100969496804468E
:1018A0002002000A88472090FFB26FB10998BAEB76
:1018B00000015CBF139800283ED40246159801F041
:1018C00020FA000EFF2837D10D98DDF884B000EB28
:1018D0000A07BDF90C008742A4BFBDF90E0083457D
:1018E0002ADBBDF91000B842A4BFBDF9120058456B
:1018F00022DB0E9800680590706A834501BF306A4C
:1019000096F9301040FA81F0874203D006983146AC
:10191000FFF78FFB70680599016096F9301000EBB6
:1019200081007060F06810B9B762C6F82CB0401C36
:10193000F0603762C6F824B0BDF90C008145A2BF43
:101940000098BDF90E10884249DBBDF910004845EA
:10195000A2BFBDF912000099884240DB4FEA08207F
:101960000B990A9A000A0029454951F82210096981
:1019700049680FD088470B99C1F1FF022099D2B274
:1019800001F03AFA3E490A9A51F8221009690968A9
:10199000884700E0884780460098696A884201BF0E
:1019A000286A95F9301040FA81F0814503D00698F5
:1019B0002946FFF73EFB6868C0F8008095F93010B3
:1019C00000EB81006860E86818B9C5F828900099B4
:1019D000E962401CE860C5F82090009868620E98A3
:1019E000046007988244119882457FF4E3AE029820
:1019F000199908181099029088427FF4B8AE01989E
:101A0000009631460068FFF714FB0098846868462A
:101A100000F0EDFF204601F056F8019800952946A8
:101A20000068FFF706FB00988468684600F0DFFF57
:101A3000204601F048F8019923988880019924985C
:101A4000C8801299239808180199401E08811C9992
:101A5000249808180199401E48811D990A988842C7
:101A600003D00846054909684874229802F05AF8DC
:101A700001A800F0BCFF25B0BDE8F08F7401002084
:101A8000780100202DE9F04F8FB000F09FFF00900B
:101A900080690B900098C0690C90009800680190D4
:101AA00080690490DFF87C050068417C0891089A01
:101AB0000499914218BF417400984069009D0690B6
:101AC000009820300A90686900888000343000F067
:101AD00070FF060000F0D68100F078FF0446286809
:101AE000806901F035FE002800F0CC81C268926A5E
:101AF0000821904703280BDB052808DB092804DBB5
:101B00001128B4BF1020202002E0082000E00420AB
:101B1000A0610928B8BF012003DB1128B4BF02204F
:101B200004202061686900882169E06148436061A0
:101B300000F072FF61698842C8BF08466061A66014
:101B400004F1340020600020E060012084F83000BF
:101B5000002C2068606000F09581009900204861A9
:101B600002A80099091D082201F024F801980DA986
:101B7000FFF796FA0DA902A801F057F80098C0687F
:101B8000002800F0888000F021FF0990BDF90A507C
:101B9000BDF90E00A8427ADB0098B0F90600BDF945
:101BA0000860281A0590BDF90C00B0426ADB009865
:101BB000B0F90400059A371A0698394601F0A1F8E1
:101BC0005FEA000859D0DDF80090B9F904008642B8
:101BD000A4BFB9F90810B14212DBB9F906108D4261
:101BE000A4BFB9F90A20AA420ADBA6EB000AA5EBBA
:101BF000010BD9F814005A46514601F082F840B959
:101C00000198006880B1C3685B692A4631469847ED
:101C10000AE0B9F90800B9F90410401A401C0BFB9E
:101C200000A009EB8000006A069B059A1B880A99B0
:101C30005A4301EB820141F82700099850F82870B7
:101C4000606A854201BF206A94F9301040FA81F041
:101C5000864203D001982146FFF7EBF960680760E0
:101C600094F9301000EB81006060E06808B9A6626A
:101C7000E562401CE06026626562761CBDF90C00DE
:101C8000B04294DABDF90E006D1CA84284DA09A8AE
:101C900000F0ADFEE8E0BDF90A50BDF90E00A84223
:101CA000C0F2E2800098B0F90600BDF90860281A79
:101CB0000590BDF90C00B042C0F2D0800098B0F998
:101CC0000400059A371A0698394601F01AF880463A
:101CD0004FEA1860FF28079000F0BA80DDF8009006
:101CE000B9F9040086424FF0000AA4BFB9F9081000
:101CF000B142D34613DBB9F906108D42A4BFB9F93E
:101D00000A20AA420BDBA6EB000AD9F81400A5EBC7
:101D1000010B20B15A46514600F0F3FF01E04FF0AD
:101D20007F40000EFF2808D10198006880B1C36889
:101D30005B692A46314698470AE0B9F90800B9F9C3
:101D40000410401A401C0BFB00A009EB8000006A45
:101D5000069B059A1B880A995A4301EB820141F8B8
:101D60002700079800284AD0009FB7F90400864250
:101D70004FF00009A4BFB7F90810B142CA4612DB00
:101D8000B7F906108D42A4BFB7F90A20AA420ADBB0
:101D9000A6EB00097869A5EB010A20B15246494635
:101DA00000F0AFFF01E04FF07F40000EFF2808D1A8
:101DB0000198006880B1C3685B692A46314698473C
:101DC0000AE0B7F90800B7F90410401A401C0AFBF2
:101DD000009007EB8000006ADFF84C12049A51F87B
:101DE0002210096949680002000A884701460798DD
:101DF000C0F1FF02D2B2404600F0FEFF02E04FEA1F
:101E00000820000ADFF82012049A51F8221009690C
:101E1000096888470746606A854201BF206A94F9CD
:101E2000301040FA81F0864203D001982146FFF736
:101E300000F96068076094F9301000EB8100606081
:101E4000E06808B9A662E562401CE060266265624F
:101E5000761CBDF90C00B042BFF630AFBDF90E00E4
:101E60006D1CA842BFF61EAF009801942146006881
:101E7000FFF7DFF80198846801A800F0B8FD20465C
:101E800000F021FE0099069848610899049888425C
:101E900003D00846634909684874684600F0A7FD06
:101EA0000B9818B10C980B9A002190470FB0BDE821
:101EB000F08F2DE9F04782B081460D4600F086FD97
:101EC0000090C66800688769684600F090FD16B10A
:101ED000304600F0F8FDE8680068800001F09AFEE6
:101EE000060008BF012027D000F070FD8046CDF825
:101EF00004800024E868DFF830A1006801280FDBC7
:101F0000E8685AF827108068096950F824000968C1
:101F1000884748F8040B641CE86800688442EFDBDB
:101F200001A800F064FD484600F050FD0090C66036
:101F3000684600F05CFD002002B0BDE8F0872DE9A6
:101F4000F043054683B0288800281CBF6888002815
:101F50000E4617464FD0E86828B1806830B9002097
:101F600003B0BDE8F083E888202844D10A9C0FF232
:101F7000641004F00102002101F00DFC5FEA00088A
:101F800039D02888698848438000203001F042FE1B
:101F90005FEA000906D1404601F0FBFB002003B0D8
:101FA000BDE8F083C8F8089000F010FD00900482AE
:101FB00000984561009886800098C7800098B5F920
:101FC0000010808808180099401E08810098B5F913
:101FD0000210C08808180099401E48810098C0F877
:101FE0000080684600F003FDE86840B12946484695
:101FF000FFF75FFF18B1002003B0BDE8F083A00732
:102000000CD5484600F0E2FC0190006801F009FCA4
:1020100001A800F0ECFC4846FFF734FD484603B049
:10202000BDE8F083740100207801002010B50400A1
:1020300082B020D0FFF756F8204600F0C7FC009091
:10204000006801F0D9FB684600F0D1FC204600F0A2
:10205000BDFC0090006800F0D7FB0098C06800F05D
:1020600032FD0098C06900F02EFD684600F0BFFC0C
:10207000204600F028FD02B010BD002818BFFFF771
:102080001DB9704710B5040082B021D000F09EFC4D
:102090000090007C800718D4204600F097FC019047
:1020A000006801F0BEFB01A800F0A1FC684600F04A
:1020B0009EFC2046FFF7E6FC204600F087FC0090DF
:1020C0000099008A40F002000882684600F08FFC08
:1020D00002B010BD03000000AD030008890700082E
:1020E0006D0900083D0B0008590D0008ED0D0008B2
:1020F000DB0E0008E70F0008F30F00081B100008B4
:10210000E30F00082710000870B44168DFF8644A44
:102110005FF00F0304F1B80555F80869B14201D228
:102120005B1EF9D5102B0ED22268511A216004EBE8
:10213000C30150F8082F4068443102B150600028B4
:1021400014BF02600A6070BC70470000F0B5DFF891
:10215000244A81B00546A06B0E46E1680818AF1905
:10216000401EB84206D3386820B978684519384609
:10217000FFF7CAFFA06BB0420AD256F8040C371A18
:10218000386828B9786845193846FFF7BDFF3E46DC
:102190005FF00F0004F1B80151F80829954201D20F
:1021A000401EF9D5102821D204EBC0000022416C5A
:1021B0003260756006F108021160A919366141F8B4
:1021C000045C50F8441F01B14A6011600021516065
:1021D0000260206894F829102818206031B9E1685D
:1021E000081AA168814238BF0146A160284601B0A3
:1021F000F0BD0000F0B581B08B080022002B054631
:1022000043D013F00307164600F00E804FF0FF0C8A
:10221000B6FBFCFCCCEB0C2CA6EB0C047F1E45F8AB
:10222000044B06F10106F1D19F082ED04FF0FF0CB0
:10223000B6FBFCFCCCEB0C2CA6EB0C0445F8044BD9
:102240004FF0FF0E741CB4FBFEFECEEB0E2EA4EB83
:102250000E0445F8044B4FF0FF0EB41CB4FBFEFE19
:10226000CEEB0E2EA4EB0E0445F8044B4FF0FF0E00
:10227000F41CB4FBFEFECEEB0E2EA4EB0E047F1E70
:1022800045F8044B06F10406D0D106460025174652
:1022900001E06D1C7F1C9D420ED24FF0FF0EB7FB7C
:1022A000FEFE56F8044BCEEB0E2EA7EB0E0E744539
:1022B000EFD0032001B0F0BD521C022A9ED34C087F
:1022C00000220027002C05464AD014F0030C1646C5
:1022D00000F011804FF0FF0EB6FBFEFECEEB0E2E8F
:1022E0007F1CACF1010CA6EB0E0E761CBCF1000FAE
:1022F00025F802EBEED1A60832D0D7194FF0FF0C2B
:10230000B7FBFCFCCCEB0C2CA7EB0C0C25F802CBA0
:102310004FF0FF0E07F1010CBCFBFEFECEEB0E2EC4
:10232000ACEB0E0C25F802CB4FF0FF0E07F1020CC0
:10233000BCFBFEFECEEB0E2EACEB0E0C25F802CB5A
:102340004FF0FF0E07F1030CBCFBFEFECEEB0E2E92
:10235000ACEB0E0C761E25F802CB07F10407CDD1AD
:1023600006460025174601E06D1C7F1CA54210D2D1
:102370004FF0FF0EB7FBFEFECEEB0E2E36F802CB73
:10238000A7EB0E0E1FFA8EFEF445EDD0022001B031
:10239000F0BD521C022A94D30022002600290446D4
:1023A00043D011F00307154600F00F804FF0FF0CEB
:1023B000B5FBFCFCCCEB0C2C761CA5EB0C0C7F1EAF
:1023C00004F801CB05F10105F0D11D002DD09619BF
:1023D000FF27B6FBF7F7C7EB0727F71B04F8017BCE
:1023E0004FF0FF0C771CB7FBFCFCCCEB0C2CA7EBE5
:1023F0000C0704F8017B4FF0FF0CB71CB7FBFCFC8B
:10240000CCEB0C2CA7EB0C0704F8017B4FF0FF0C76
:10241000F71CB7FBFCFCCCEB0C2CA7EB0C076D1EE0
:1024200004F8017B06F10406D2D1044600251646C5
:1024300001E06D1C761C8D420DD24FF0FF0CB6FBF7
:10244000FCFC14F8017BB4445FFA8CFC6745F0D0C7
:10245000012001B0F0BD521C022A9ED309B101F047
:10246000EDFB002001B0F0BD10B5DFF808470020FB
:1024700084F828008022002104F1400001F01CFCB7
:10248000C0220021204601F017FC04F1C000BDE885
:1024900010400C22002101F00FBC2DE9F041DFF8C3
:1024A000D446E06A40B9D4F8C810D4F8C400083162
:1024B000B0FBF1F0871C03E0206900EBD000071DA2
:1024C000F80000F0C5F85FEA000842D0616BE66AE8
:1024D00001EBC800406800F108052069C2002846E9
:1024E00000F078FB206965637A1E9042C4F82C8066
:1024F00001461BD2101A05EBC102121D10F0030396
:1025000004D0491C5B1E42F8081BFAD180080DD08C
:10251000491C42F8081B491C42F8081B491C42F898
:10252000081B491C401E42F8081BF1D105EBC101F4
:10253000002048602069216960622761606838185E
:10254000401A606016B1304600F0BDFA0020BDE8C8
:10255000F0810120BDE8F08110B5DFF8184694F84D
:102560002800002873D1D4F8C410012084F8280072
:10257000B1F5205F88BF4FF42051D4F8C000FFF7B9
:1025800039FED4F8C80020B9D4F8C4008008C4F8D3
:10259000C800DFF8E405C4F8CC0004F1CC0001F079
:1025A000DCFC5A20206204F140010020102202FAD3
:1025B00000F341F8083B401C02FA00F341F8083BE5
:1025C000401C02FA00F3401C41F8083B8240401CCA
:1025D000102841F8082BE9D302202061D4F8C0105C
:1025E000D4F8C400E0604218A163143A6263002189
:1025F0000020626B8218491C51602269521E914270
:1026000018D2626B8218491CD1602269521E914215
:1026100010D2626B8218491C51612269521E91428C
:1026200008D2626B8218491CD16120302269521E87
:102630009142DED3012060622069A16B401E606080
:10264000E068FFF783FDFFF728FF0120206310BD3E
:102650002DE9F04E86B00546FFF77EFFDFF8144502
:10266000206C854202D3E81C800880000C3000906A
:10267000009920688842C0F09C80206B6168884285
:1026800009D3401E2063FFF708FF216B491C002877
:10269000216340F08E806068616B401E6060606AFC
:1026A00001EBC00252686262012201F8302000286A
:1026B000019000F07E80009800250F2104F1B802FF
:1026C00052F80839984201D2491EF9D5102913D27F
:1026D00004EBC1024432C1F11001136833B19D68AB
:1026E0002DB16B6883426BD2AB6843BB00250832C7
:1026F000491EF2D1002D60D10490A76BE068C0198B
:10270000401E039038460168466800293DD1039A6F
:10271000F119914239D289460291D9F804A0D9F829
:10272000001091B3626B12F83120012A2DD1E26AB8
:1027300091420CBF4FF0010B4FF0000B06E09D687B
:10274000002DD4D06B688342CED339E0FFF7DCFC98
:10275000606BD9F8001000EBC10052464760384664
:10276000029901F017FCBBF1000F04D0606B0299D5
:10277000401A381860630AEB07013046FFF7E6FCA1
:10278000049909B1884218D256460398F71987422E
:10279000B8D360680199401C6060606B00EBC100B9
:1027A000616A41600020616B019A01F83200019872
:1027B0006062002006B0BDE8F08E002D3FF47BAFD4
:1027C0006E680098216C301A0C31884238BF009630
:1027D0002846FFF799FC606B019900EBC10045604A
:1027E00000980199296068600021A9602D61411954
:1027F00041F8040C0098B042BCBF301AFFF7A6FCA9
:10280000019806B0BDE8F08E30B1DFF86813CA6BEE
:10281000026002B15060C863704700002DE9F04BC0
:1028200086B00446FFF798FEE01C80088000DFF8C1
:10283000445300F10408286C804538BF8046EE6B95
:1028400000E0366846B356F8040C404511D03668AF
:1028500016B356F8040C40450BD03668E6B156F86E
:10286000040C404505D03668B6B156F8040C404516
:10287000E7D196B1306808B171684160706808B1FD
:1028800031680160E86BB04240F08F803068E863E7
:1028900006B03046BDE8F08B0026AF6BE868C01983
:1028A0000190001F0490049901980968441A206857
:1028B00000285ED0E868C019401E039039687A6825
:1028C000002914464DD1039BE119994249D2029146
:1028D00048680090D1F800C0BCF1000F41D0686B8F
:1028E00010F83C0001283CD1E86A84450CBF4FF049
:1028F00001094FF0000905924FF00F0C05F1B80ED9
:102900005EF808B95A4502D2BCF1010CF8D5BCF109
:10291000100F0FD22868821A07F108002A6005EB11
:10292000CC0203684068443203B15860002814BFE9
:1029300003601360686B0A6800EBC20047603846AA
:10294000009A01F027FBB9F1000F04D0686B0299DF
:10295000401A381868630098C1192046FFF7F6FB43
:10296000009C0398E7198742A8D304990198096845
:10297000441A2068C8B96068404516DB0019A0EB0E
:102980000800061D2046FFF7BFFBE868A0EB080023
:10299000E8606869404468616068B0EB08001CBF8B
:1029A0002146FFF7D3FB46F8048C304606B0BDE85D
:1029B000F08B002818BFFFF74BBE704728B16D4958
:1029C000496B01EBC0004068083070476949CA692B
:1029D000521CCA614A6B02EBC00213785B1C137075
:1029E00020B1496B01EBC0004068083070470368B4
:1029F000604953F8083C4A6B02EBC3021378022B80
:102A000003DBCB690BB15B1ECB611178491E1170E2
:102A1000002101600020704710B5FFF79DFD554A69
:102A200000240F2102F1BC0353F8080968B102EB3E
:102A3000C100406C806850B141688C4238BF0C4680
:102A4000806820B1806810B1F6E7491EECD5A4F18A
:102A50000C0010BD00B581B0FFF7DEFF4549096AE3
:102A6000B0F5800F05D9642290FBF2F0484301B025
:102A700000BD48436421B0FBF1F001B000BD3D4A08
:102A8000C2F8C00088088000C2F8C400704711284E
:102A9000384908D3D1F8C420B0EB520F04D3500802
:102AA000C1F8C80070471020C1F8C8007047002165
:102AB00038B13049496B01EBC00040684068A0F173
:102AC0000C010846704730B581B004001FBF294D86
:102AD000686B10F83410002913D0022911DA00EBCA
:102AE000C40041684868FFF731FB6868696A401CA8
:102AF0006860686B00EBC4025160002100F834107C
:102B00006C6201B030BD10B504462068FFF7DBFFF2
:102B10000020206010BD00002DE9F0410C4600258A
:102B2000012C804623DB134ED8F80070002F1EBF07
:102B3000706B10F83710002913D0022911DA00EB5E
:102B4000C70041684868FFF701FB7068716A401C64
:102B50007060706B00EBC7025160002100F8371005
:102B600077626D1C0020A54248F8040BDCDBBDE851
:102B7000F0810000D851002069240008B1F9062036
:102B8000B0F902309A42A2BFB0F90620B1F9023082
:102B90009A420DDBB1F90420B0F900309A42A2BF8D
:102BA000B0F90400B1F90010884201DB0120704740
:102BB0000020704762B38B0708D0521E11F8013B0A
:102BC00000F8013B00F024808B07F6D1830740F02A
:102BD000208000BF103A07D330B4B1E83810103A63
:102BE000A0E83810F9D230BC530724BFB1E8081070
:102BF000A0E8081044BF51F8043B40F8043BD2075A
:102C000024BF31F8022B20F8022B44BF0B7803704D
:102C10007047083A07D3B1E80810083A40F8043B77
:102C200040F804CBF7D25307E4E7B1F90020B0F93C
:102C300000309342B8BF0280B0F90220B1F90230EF
:102C40009A42B8BF1A464280B0F90430B1F9042064
:102C50009A42C8BF1A468280B0F90630B1F9062000
:102C60009A42C8BF1A46C280704781B00128DDF879
:102C700004C00AD0022815D0042821D008282AD060
:102C800010282DD0202832D038E0D80801FB0C00C5
:102C900003F00701805CC1F10701C84000F00100AA
:102CA00001B07047980801FB0C005900805C01F0EE
:102CB0000601C1F10601C84000F0030001B07047F1
:102CC000580801FB0C00D907805C54BF000900F0D4
:102CD0000F0001B0704701FB0C30805C01B0704701
:102CE000481000FB0C3032F8100001B0704788101B
:102CF00000FB0C3052F8200001B07047002001B0FA
:102D0000704700B9704700B581B00B4600928188CA
:102D10008268C088FFF7A9FF01B000BD10B5DFF8D9
:102D20007C442068FFF770FD6068FFF76DFDA068C8
:102D3000FFF76AFD0020A06060602060E060206115
:102D400010BD00002DE9F04F0C9D002D034651D021
:102D5000DDF83480DDF82C6053F8044B51F8049B07
:102D60004FEA146CCCF1FF0000FB08F0FF27B0FB2A
:102D7000F7F009F07F4717F1807F30D0C0F1FF0EE8
:102D800009F47F4B5FFA8EFE5FFA89FA0EFB0BFBAC
:102D9000C0B2E7B21EFB0AFA10FB07A704F47F4A91
:102DA00000FB0ABA4FEA1A2A3F040AF47F4A4AEAA9
:102DB000176709F47F0A04F47F040EFB0AFA4FEA4E
:102DC000196900FB04A41EFB09F9240A10FB0C90EE
:102DD00004F47F0400043C4300F07F4004432002DD
:102DE000000A761E42F8040BB6D109986D1E01EB5D
:102DF0008001AFD1BDE8F08F01F07F4313F1807FF8
:102E000000D1704770B4C2F1FF0301F47F46DBB21A
:102E1000CDB25E43C4B213FB05F512FB045400F4BB
:102E20007F4502FB05652D0A240405F47F4555EA1C
:102E3000146401F47F0600F47F055E43090E02FB73
:102E40000565000E13FB01F12D0A12FB001005F4BD
:102E50007F0500042C4300F07F40204370BC704786
:102E60002DE9F34F8BB000201799009014461E46B1
:102E70008146086005AB002202A903A800F0FAF819
:102E800018B100200DB0BDE8F08F0598C449B042DC
:102E9000D8BF0646C34800680A96407C51F8201007
:102EA00009910969089100F087FB0790BD48006807
:102EB000407C00F0A2FBBC49049088421CBFBB4987
:102EC00088420EBFCDF818900120069054F8040BEC
:102ED0001699884782465FEA1A6800F0B980009820
:102EE00000283ED10B9809EB0005AE480068B0F908
:102EF00008008542BABF471B054600270B980A9970
:102F00000C9B01EB000B09980190ABF101020398B7
:102F100000EB890000EB870000901946284601F07D
:102F200038F901200090079818280ADA0246039819
:102F3000089B00EB8900F11B00EB870001F0D0F942
:102F40000FE0069868B1039800EB890000EB870753
:102F5000ABEB05053868049988476D1E47F8040BEC
:102F6000F8D1934805688DB30398029F00EB890060
:102F70000390241F0298039900EB890002900246F7
:102F800033462046A847206800F07F4111F1807F3A
:102F900002D10398006806E00399096801F07F41B7
:102FA00011F1807F01D102990860241D0398001D52
:102FB00003900298001D761E0290E4D102971798A4
:102FC0001799006840F0010008604FE0039850F83E
:102FD0002900B8F1FF0F03D1029941F8290040E020
:102FE00000F07F4212F1807FC8F1FF0130D000F481
:102FF0007F45C1F1FF025FFA80FC5543C9B25FFA19
:103000008AF312FB0CFC11FB03C30AF47F4C01FB97
:103010000C5C4FEA1C251B0405F47F4555EA13633D
:1030200000F47F050AF47F0C554301FB0C5C4FEA6A
:103030001C2505F47F052B43000E4FEA1A6512FB91
:1030400000F011FB0500000400F07F4040EA030A95
:10305000029840F829A017981799006840F00100DD
:103060000860761E09F101097FF430AF02980DB0B7
:10307000BDE8F08F2DE9F043484E81B080463069BD
:103080000F4614469946002538B901203061494859
:10309000706106F1140000F060FFF068002801BFC5
:1030A00045480068F060002802D100F0DAFAF060CC
:1030B000B9F1000F1CBFF068C9F80000B8F1000FAB
:1030C0000BD0306830B9F0688000FFF7A7FB3060A4
:1030D00000B901253068C8F8000057B1706830B9F0
:1030E000F0688000FFF79AFB706000B901257068F6
:1030F000386054B1B06830B9F0688000FFF78EFBDB
:10310000B06000B90125B0682060284601B0BDE874
:10311000F08370B5214E82B0002814BF6C460024A5
:103120003069002538B9012030612248706106F10C
:10313000140000F012FFF068002801BF1E4800686C
:10314000F060002802D100F08CFAF060306830B9ED
:10315000F0688000FFF762FB306000B901257068FD
:1031600030B9F0688000FFF759FB706000B90125A5
:1031700054B1B06830B9F0688000FFF74FFBB06021
:1031800000B90125B0682060284602B070BD08492A
:10319000086070470949086070470000E855002042
:1031A0007801002074010020EB7300084B460008F2
:1031B000145700201D2D0008085700208C01002006
:1031C000092A0FDA012A03461AD0022A5AD0042A01
:1031D00000F07C8050F8042B03F8012B491EF9D134
:1031E00001207047112A01DB002070474FEA0002DE
:1031F00050F8043B22F8023B491EF9D101207047E8
:1032000050F8042BD207120E491E35D010F804CB0B
:103210000CF0010C491E42EA8C122DD010F804CBA0
:103220000CF0010C491E42EA4C1225D010F804CBD8
:103230000CF0010C491E42EA0C121DD010F804CB10
:103240000CF0010C491E42EACC0215D010F804CB58
:103250000CF0010C491E42EA8C020DD010F804CB90
:103260000CF0010C491E42EA4C0205D010F804CBC8
:103270000CF0010C4CEA0202002903F8012BBFD12B
:103280000120704750F8042B9207120E491E16D0E9
:1032900010F804CB0CF0030C491E42EA0C120ED0BD
:1032A00010F804CB0CF0030C491E42EA8C0206D045
:1032B00010F804CB0CF0030C4CEA0202491E002962
:1032C00003F8012BDED10120704700BF50F8042B1A
:1032D0001207120E491E06D010F804CB0CF00F0C8A
:1032E0004CEA0202491E002903F8012BEED101200D
:1032F000704700002DE9F041069F80460E4607B951
:1033000047461D68092A43DA521E072A00F29380B5
:10331000DFE802F0045291709191918058F8040B0B
:10332000A847C401761E2ED058F8040BA847761E75
:1033300044EA801427D058F8040BA847761E44EAC4
:10334000401420D058F8040BA847761E44EA001415
:1033500019D058F8040BA847761E44EAC00412D0CE
:1033600058F8040BA847761E44EA80040BD058F89E
:10337000040BA847761E44EA400404D058F8040B16
:10338000A8470443761E002E07F8014BC6D152E031
:10339000112A06DAD3F810C0BCF1000F04D00223C2
:1033A0003EE00020BDE8F08158F8040BA847761EE7
:1033B00027F8020BF8D13EE058F8040BA847840127
:1033C000761E12D058F8040BA847761E44EA001463
:1033D0000BD058F8040BA847761E44EA800404D0AA
:1033E00058F8040BA8470443761E002E07F8014B3B
:1033F000E2D120E058F8040BA8470401761E04D05F
:1034000058F8040BA8470443761E002E07F8014B1A
:10341000F0D110E0D3F810C0BCF1000F04D00123AC
:1034200032463946E04706E058F8040BA847761EB6
:1034300007F8010BF8D10120BDE8F08110B582B08A
:1034400000240094FFF756FF02B010BD30B50025F0
:10345000022881B00C4607DA00F07AF920B1C26880
:10346000926A214690470546284601B030BD10B506
:103470000024022807DA00F06BF920B1C268926AD2
:10348000012190470446204610BD10B500240228B3
:1034900007DA00F05DF920B1C268926A0221904714
:1034A0000446204610BD10B50024022807DA00F0BB
:1034B0004FF920B1C268926A032190470446204622
:1034C00010BD10B50024022807DA00F041F920B140
:1034D000C268926A042190470446204610BD10B588
:1034E0000024022807DA00F033F920B1C268926A9A
:1034F000082190470446204610BD10B5002402283C
:1035000007DA00F025F920B1C268926A09219047D4
:103510000446204610BD10B50024022807DA00F04A
:1035200017F920B1C268926A0C21904704462046E0
:1035300010BD10B50024022807DA00F009F920B107
:10354000C268926A0D2190470446204610BD10B50E
:103550000024022807DA00F0FBF820B1C268926A62
:103560000E2190470446204610BD10B54C48006817
:10357000407C0024022807DA00F0EAF820B1C26893
:10358000926A012190470446204610BD10B5444878
:103590000068407C0024022807DA00F0D9F820B146
:1035A000C268926A022190470446204610BD3C48FA
:1035B0000068407C092149E73A4951F82000C26877
:1035C000926A082110470246364B03EB820053F8FB
:1035D0002220D268526A104700B5314881B0006895
:1035E000407C00F0B5F830B1C268D26A01B05DF835
:1035F00004EB0221104701B000BD2A4951F8200018
:10360000006940687047274951F820000069006848
:10361000704770B500240125284600F099F800266F
:1036200020B1C268926A012190470646B442B8BFF1
:1036300034466D1EF0D5204670BD70B500240125BE
:10364000284600F085F8002620B1C268926A02215F
:1036500090470646B442B8BF34466D1EF0D52046AA
:1036600070BD70B500240125284600F071F80026D1
:1036700020B1C268926A032190470646B442B8BF9F
:1036800034466D1EF0D5204670BD074A106051606B
:10369000704705480068704703484068704700005D
:1036A000740100207801002080560020B0B341084A
:1036B000490001D1012070478108890001D1022011
:1036C0007047C108C90001D10320704701090901F1
:1036D00001D1042070474109490101D105207047FB
:1036E000010A090201D108207047410A490208D0A5
:1036F000010B090305D0C10BC90302D0010C090459
:1037000001D110207047810C890401D1122070472B
:1037100010F07F4F01D1182070472020704710B55E
:10372000FFF7C4FF0024012808BF01240ED0811E2A
:10373000072938BF082409D3A0F10901082938BF97
:10374000102403D31138102838BF2024204610BD80
:10375000022801DB00207047694951F8200000E091
:103760000068A8B1C168096891B1006800280FD04D
:10377000C168096861B10068002809D0C16809689A
:1037800031B10068002803D0C16809680029E7D179
:103790007047FFF739B8F0B51E46022E81B00446D7
:1037A0000F46154603DA1C20FFF738F810B9002041
:1037B00001B0F0BD0FB1076115E0514951F8261075
:1037C00089B10A686AB109680A6852B111460A6883
:1037D0003AB111460A68002A03D011460A68002A45
:1037E000F1D10969016186618582C46000210160AF
:1037F0004160816001B0F0BD8169414A52F82130D9
:10380000834204BF036842F82130416809B102686D
:103810000A60016809B142684A60002101604160A4
:10382000704770B400284CD081690C46022C48DAED
:10383000334A52F8243013B942F8240049E05C6856
:103840000CB35B685C68ECB123465C68DCB1234672
:103850005C68C4B123465C68002CF2D113E01B689D
:103860007BB3DE683668B54213DA1B684BB3DE689B
:103870003668B5420DDA1B681BB3DE683668B542A0
:1038800007DA1B68EBB1C468DE6825683668B542A4
:10389000E5DBDE683668AE420AD1858A2668012DEE
:1038A00006D11D6825B12B46DD682D68B542F8DAD2
:1038B0005C68002C1DBF20605968416042F82100FF
:1038C00002E070BC012070475860984208BF002396
:1038D0000360002070BC704730B581B01C46FFF714
:1038E0005AFF050009D0FFF79CFFE868006820B97F
:1038F0000448006800EB84008565284601B030BDAF
:103900007801002074010020F0B581B004460D4616
:103910001646FFF75BF800901621009A1268D268ED
:10392000526A0020904707466846FFF760F8380063
:1039300003D0324629462046B84701B0F0BD2DE9F4
:10394000F14FB14884B00068DDF840801E46437CEA
:103950000F988946934600224146FFF71CFF002737
:10396000040049D0206980688047FFF7D8FE82466E
:103970000AFB0BF0C01DC0080290FFF76BF80E9D0C
:10398000E90705D4411000EB9170801000EB400076
:10399000012E0BDA029900291ABF1838B0FBF1F09A
:1039A000002071420E468642C8BF0646E80707D48B
:1039B0000498009733465A46494600F001FE0746F0
:1039C000012E06DA2046FFF7E4FE002005B0BDE830
:1039D000F08F029870431830E90702D5FEF7E9FF2F
:1039E00001E000F017F905000AD12046FFF7D1FEEB
:1039F00017B13846FFF767F8002005B0BDE8F08F33
:103A0000FEF7E4FF01900460019904988880019812
:103A1000A0F806900198A0F808B001984681019995
:103A20000298C8600198C0F810A00198476101A8E9
:103A3000FEF7DDFFC4F81080A56073480068407C85
:103A4000A06105B02846BDE8F08F10B582B0002413
:103A500060B1FEF7BBFF0090006800698068804796
:103A6000FFF75DFE04466846FEF7C1FF204602B040
:103A700010BD10B5040082B018D063480068006E15
:103A8000A04208BF00F0D6FD2046FEF79FFF009041
:103A9000406908B100F0DAFD00980068FFF779FE90
:103AA0006846FEF7A4FF2046FFF70DF802B010BDF0
:103AB0002DE9F0470446544884B00068407C8846AD
:103AC000524951F8207091469A460026F9680968D3
:103AD000042903D03F68002FF8D100E01FB9FFF799
:103AE00037FE07001BD0FA68D26A0121384690479A
:103AF000050013D03F690C9EB868804710F1010F94
:103B000004BF434F46F001060297019500965346C5
:103B10004A4641462046FFF712FF0646304604B0AB
:103B2000BDE8F08770B5384D82B004002868066E95
:103B300004D100F07FFD304602B070BD0EB100F040
:103B400079FD02F007FB2046FEF740FF0090286851
:103B5000046600980068FFF764FE6846FEF747FFBA
:103B600002F03EFC02F06AFF304602B070BD2DE963
:103B7000F043040083B043D0002003F01BF8054657
:103B800021480068066E2046FEF720FF009000687E
:103B9000806903F025F8074600980099B0F9048081
:103BA000B0F90690ADF80480BDF804000989ADF8BD
:103BB00006900818401E0099ADF808004989BDF824
:103BC00006000818401EADF80A0002F0BDFA68466B
:103BD000FEF70DFF01A801F0AEFD40B14A46414697
:103BE000204603F0A9FB01F057FD0028F6D1384626
:103BF00002F0F6FF3046FFF795FF284602F0DAFFA5
:103C000003B0BDE8F08300007401002078010020BB
:103C1000A8B0010830B581B00446FEF7CAFE050021
:103C200009D0FEF7D3FE00902246002100F044F8B0
:103C30006846FEF7DCFE284601B030BD002203F0E6
:103C4000A5BBF0B4016844688368091801EB54020D
:103C5000E40748BF4B440C3091422BD011F8014B84
:103C600014F0030504BF11F8015BED1C26090F2EAB
:103C700007D111F8016B0F3603E011F8017B03F84F
:103C8000017B6D1EF9D1002EE6D0A40811F8015B6E
:103C900004F00304032C08BF11F8014B05EB0424C6
:103CA0001C1BB51CD8D014F8016B03F8016B6D1EFA
:103CB000F9D1D1E7F0BC704770B402E000F8011B05
:103CC000521EBAB110F0030314D000F8011B521EAB
:103CD00018BF10F003030DD000F8011B521E18BFCF
:103CE00010F0030306D000F8011B521E18BF10F09D
:103CF0000303E3D193084FD04FF001344C43042B1E
:103D000002F0030238DB5D0803EB9575AD0815F092
:103D100003060AD040F8044B40F8044B1B1F40F840
:103D2000044B761E40F8044BF4D1AD0800F023801C
:103D300040F8044B40F8044B40F8044B40F8044B67
:103D400040F8044B40F8044B40F8044B40F8044B57
:103D500040F8044B40F8044B40F8044B40F8044B47
:103D600040F8044B40F8044B103B40F8044B6D1EE8
:103D700040F8044BDCD17BB15B1E40F8044B0BD008
:103D80005B1E40F8044B07D05B1E40F8044B03D089
:103D90005B1E40F8044BEFD17AB1521E00F8011BB4
:103DA0000BD0521E00F8011B07D0521E00F8011B59
:103DB00003D0521E00F8011BEFD170BC7047C1B296
:103DC00000F47F4242EA0141C0F30742114300F090
:103DD0007F404FF07F4250400843704710B5624C1F
:103DE0000020C4F89400702200212046FFF764FFF1
:103DF00004F18800BDE8104008220021FFF75CBFF5
:103E00005A49086070472DE9F04182B00021002036
:103E100003F0ECFA042002F038FB80465248544A82
:103E2000D0F88400C16C006D5518161843F6FF7267
:103E300057181418ADF80050ADF80470ADF80260D2
:103E4000ADF80640684601F076FC48B123463A4694
:103E50003146284602F097FB01F01EFC0028F5D100
:103E6000404602F012FB02B0BDE8F08170B5424856
:103E700001684908490001600121404881604049CA
:103E8000016000683F49884200D0FEE7364CD4F814
:103E9000940078B90120C4F8940003F0AFFA04F05C
:103EA00031FA34482067D4F89000606704F170005C
:103EB000C4F890002E2084F87800C046C046D4F89C
:103EC0008400011DC1638063006400F10801616129
:103ED00004F10801407C04EB8000D0F88800C2683F
:103EE000126B90470FF2A4006066D4F88000E06186
:103EF000D4F88400083060610120207604F09AFB39
:103F0000A064032084F868006FF070402063606351
:103F1000002002F03EFE6FF07F4002F03EFE1A48A5
:103F2000E06702F095FD0546FFF7B3FB10B1FFF720
:103F3000B3FB38B9FFF781FB0646FFF76AFB314652
:103F4000FFF7A3FB0021002004F080FB02F03BF907
:103F5000012084F87900284670BD0349D1F89020EB
:103F60004260C1F890007047F000002088010020F6
:103F700001C0FFFFDD3D0008002000E000300240EE
:103F8000C2A507F4CDB5E8B5A4AE0108F3640008F6
:103F90009564000881423ABF53189842FEF70ABE62
:103FA0008018990707D0521E24BF13F8011D00F88E
:103FB000011DF6D8704781071CD1103A07D330B4E1
:103FC00033E93210103A20E93210F9D230BC103205
:103FD000121F24BF53F8041D40F8041DF8D838BF41
:103FE000121D521E24BF13F8011D00F8011DF8D840
:103FF000704700BF083A07D333E90210083A40F887
:1040000004CD40F8041DF7D20832EAE72DE9F84F55
:1040100082B080460D980C9DC068D0F814B09246CE
:10402000426A1000894606D001210DA89047002859
:10403000844640F0A3806F480068407CFFF7BCFADC
:1040400000900928B8BF012403DB1128B4BF022463
:104050000424029800264845C0F29880012C05D01F
:10406000022C6CD0042C00F0778081E00098401E78
:10407000072800F27D80DFE800F0041F3C3C555526
:1040800055554746BA4573DB0D984A463946D847D9
:1040900029784FF67F72F2401140C6F10702904036
:1040A00008432870761C05EBE60506F0F80006418B
:1040B0007F1CBA45E8DA5BE04746BA4558DB0D9805
:1040C0004A463946D84729784FF63F727300DA409E
:1040D00011407200C2F10602904008432870761C1D
:1040E00005EBA60506F0FC0006417F1CBA45E6DAA2
:1040F0003EE04746BA453BDB0D984A463946D8472D
:1041000029780F22B3009A401140B200C2F1040294
:104110009040084328707F1C7519BA4586F0010647
:10412000EADA25E04746BA4522DB0D984A46394689
:10413000D8477F1CBA4505F8010BF6DA18E0474668
:10414000BA4515DB0D984A463946D8477F1CBA4513
:1041500025F8020BF6DA0BE04746BA4508DB0D9866
:104160004A463946D8477F1CBA4545F8040BF6DA6B
:10417000029809F10109484508DB6FE701955346AC
:10418000029800904A460D984146E04703B0BDE8CA
:10419000F08F30B5174C83B02468B4F90850A842AA
:1041A000B8BF2846B4F90C509542B8BF2A4682429F
:1041B0001BDBB4F90A50A942B8BF2946B4F90E4036
:1041C0009C42B8BF23468B4211DA03B030BD2C4667
:1041D000E5682D6825B1042D1CBF2568002DF6D19A
:1041E0000194069C0094FFF711FF03B030BD079CBB
:1041F000EEE7000074010020F0B4092A23DA521E11
:10420000072A00EB810369D8DFE802F0042C464658
:10421000606060604C1E04F0070200EBE400C2F135
:1042200007020124057804FA02F63540D54043F828
:10423000045D521CA0EBE20002F0F8052A41491E81
:10424000F0D1F0BC7047112A80F2488000EB4102A7
:1042500000EB810332F8020D43F8040D491EF9D139
:10426000F0BC70474C1E04F0030200EBA400C2F146
:104270000302032455000678521C04FA05F7A0EB4C
:10428000A2003E40EE4002F0FC052A41491E43F8E0
:10429000046DEFD1F0BC70474C1E04F0010200EB3E
:1042A0006400C2F101020F2495000678521C04FA42
:1042B00005F7A0EB62003E40EE4002F0FE052A4109
:1042C000491E43F8046DEFD1F0BC704711EB0000BC
:1042D00010F8012D43F8042D491EF9D1F0BC7047A8
:1042E0002DE9F0470C46012CC0F29980D3F80480E8
:1042F000092A24DA521E072A00F29180DFE802F030
:10430000043D8F608F8F8F83611E00EBE10A00EB0D
:10431000840001F007051AF801998027061FEF4075
:10432000FFB207EA0900C5F10701C840C04746F8D7
:104330000409E5B91AF801990725012719E0112A9E
:104340006DDA5E69310005D0022322460146B0478E
:10435000BDE8F08700EB440A00EB84063AF8020D52
:10436000C047641E46F8040DF8D1BDE8F0876D1E05
:104370007F00641ED4D1BDE8F087611E00EBA10A66
:1043800000EB8400061F01F003051AF80199C0270D
:104390006800C740FFB2690007EA0900C1F10601E1
:1043A000C840C04746F8040925B91AF80199032501
:1043B000032701E06D1EBF00641EEBD1BDE8F0874E
:1043C000611E00EB610A00EB8400061F01F001058D
:1043D0001AF80199F027A800C740FFB2A90007EA20
:1043E0000900C1F10401C840C04746F8040925B9D5
:1043F0001AF8019901250F2701E06D1E3F01641E87
:10440000EBD1BDE8F08704EB000A00EB840600BFA7
:104410001AF8010DC047641E46F8040DF8D1BDE836
:10442000F087C1B200F47F4242EA0141C0F3074085
:1044300008437047B0F90030C91AB0F90230D21AF7
:10444000036903FB020000EBE100802310F8142F46
:1044500001F00701CB4043EA02010170704770B5DB
:10446000B0F90040091BB0F90440A1422DDAB0F9BF
:104470000240121B0469CD1004FB0200281800F151
:1044800014045818401EC5EBE00500F00700C0F109
:104490000700FF2201F0070102FA00F6207822FA55
:1044A00001F3F6B21DB906EA030108430CE06D1EE4
:1044B0001843012D04F8010B04DB2946204602F0C5
:1044C00061FF2C1920783043207070BDB0F90610C0
:1044D000026951431430FFF7B1BB000070B4B0F96A
:1044E00006500B68B0F90440AA421BDA0669DD10D9
:1044F00006FB020028181430A34213DA621EC5EB33
:10450000E20210F8014B03F00705AC4006E000BFE3
:1045100010F8014B0833521E23F00703E4B224B90C
:10452000002AF5D170BC0020704725060FD4640026
:104530005B1C25060BD464005B1C250607D46400B5
:104540005B1C250603D464005B1C2506EFD5E4B292
:10455000FF2C10D066061D460ED56D1CA6060BD589
:104560006D1CE60608D56D1C260705D524016D1CBB
:104570006606F2D400E0DD1D05F00704072C18D113
:10458000521E16D410F8014BFF2C03D10835521ED1
:10459000F8D50EE020060CD56D1C600609D56D1C03
:1045A000A00606D56D1CE00603D524016D1C20066F
:1045B000F2D40B60E81A70BC401C7047FEF783BA57
:1045C0002DE9F0430446164606F10F000011984607
:1045D000470007FB08F081B00D461430FFF71AFBC7
:1045E0005FEA000917D0FEF7F1F900900480009807
:1045F0004580009886800098A0F8068000990FF208
:104600001C00886001200099888100980761684635
:10461000FEF7EDF9484601B0BDE8F08335440008E7
:104620005F440008CD44000800000000BD450008BC
:10463000DD44000800B581B004F020F801F0D0FEA0
:1046400001B05DF804EB01F07FBD704730B581B07B
:104650000446FEF7BBF900908089451E00988581CD
:104660006846FEF7C4F92DB215B92046FEF72BFABD
:1046700001B030BD2DE9F041069F04460D461646B7
:104680004FEA0308D4F808C0DCF804C043463246B9
:1046900029462046E047761C7F1EF3D1BDE8F08115
:1046A00030B50446DFF8FC0A83B00568696C21B9AF
:1046B000204604F005F803B030BD01A80822FEF73B
:1046C00079FADFF8E40AC06D00B9A86CFEF77EF94C
:1046D0000090B0F90220B0F9001001A804F00AF827
:1046E0006846FEF784F9214601A8FEF79EFA01A864
:1046F00003F0E6FF03B030BD2DE9F04107460E465A
:1047000086B090463046FEF759F9806AC0034CBF28
:104710004FF480452025002E00F0A6803046FEF79D
:1047200055F90190846AA00740F19B80019A3946AF
:1047300004A803F0EDFF002800F0938040F6010785
:1047400007EA0400012809D10198026A81692B4611
:1047500004A800F0FDF90198C66957E03046FEF75D
:104760002DF90090806A810746D5BDF91410BDF976
:1047700010209142A2BFBDF91610BDF9122091423E
:104780003ADB3840012837D03046FEF71FF9009059
:10479000024604A902A803F0BBFFBDF90C00BDF955
:1047A00008108842A2BFBDF90E00BDF90A10884268
:1047B0001FDB0098806A44F22001084207D000986D
:1047C00000F1080102AA083003F0D1FF11E00098BF
:1047D000083002A90822FEF7EDF900980099806AD6
:1047E00028438862DFF8C009818E491C818603F066
:1047F000EDFF6846FEF7FBF80198C66906E06846DB
:10480000FEF7F5F83046FEF7D9F8066A4EB346458E
:1048100027D03046FEF7DAF8009090F8280080079D
:10482000EDD5009A04A902A803F072FF0028E6D093
:104830006846FEF7DCF82A4602A9304600F017F871
:10484000304603F0CBFF0700DCD02A4602A93846E9
:1048500000F04CF93846FEF7B1F8076A002FF4D1A2
:10486000D0E701A8FEF7C3F806B0BDE8F08170B547
:1048700084B006460C461546FEF7A0F80090806A04
:10488000810748D5B4F90410B4F900209142A2BFC1
:10489000B4F90610B4F9022091423CDB40F6010164
:1048A0000840012837D03046FEF790F800900246C5
:1048B000214601A803F02CFFBDF90800BDF9041042
:1048C0008842A2BFBDF90A00BDF9061088421FDB6D
:1048D0000098806A44F22001084207D0009800F155
:1048E000080101AA083003F042FF11E000980830E7
:1048F00001A90822FEF75EF900980099806A284312
:104900008862DFF8A408818E491C818603F05EFF6F
:104910006846FEF76CF804B070BD000010B5DFF813
:104920008408DFF8844884B0006890F8541029B1F6
:1049300004F10800FFF7B4FE04B010BD806CFEF770
:1049400045F8019002A801990822FEF733F901A861
:10495000FEF74DF8E46DC4B102E000BFFEF747F882
:104960002046FEF733F8009090F82800800701D425
:10497000684608E0009902A8FEF757F90098846994
:10498000002C6846EAD1FEF732F802A8FFF788FE4D
:1049900004B010BD70B50D0084B004464DD0FEF7D4
:1049A00015F8019000200199086201988561284658
:1049B000FEF70CF80290019890F8280000F0080526
:1049C0000298C6692EB9C46101A8FEF710F802A8C2
:1049D00031E03046FDF7FAFF00907DB990F82800ED
:1049E00000070BD5019806620298C46101A8FDF783
:1049F000FEFF02A8FDF7FBFF68461CE002A8FDF7DA
:104A0000F6FF6846FDF7F3FF3046FDF7D7FF00904D
:104A10000098066A0EB904620CE03046FDF7CEFF3E
:104A2000002DF4D190F828100907F0D50098046201
:104A30000198066201A8FDF7DAFF04B070BD70B5F9
:104A40000446FDF7BBFF0546A869A0B1FDF7B6FF18
:104A50000646F169A14205D10846FDF7AFFF006A9D
:104A6000F06170BD39B10846FDF7A8FF016AA142A7
:104A7000F8D1296A016270BD10B50446DFF8280735
:104A8000C06B02E0FDF79AFF406910B1A042F9D176
:104A9000012010BD10B5040082B025D0FDF796FFAF
:104AA000009090F8280080071BD50098406A0028E5
:104AB0001EBFDFF894180968A14204D0FEF7D9FFA1
:104AC000009900204862204603F088FE040008D0C8
:104AD0002046FFF7DFFF2046FDF770FF046A002C39
:104AE000F6D16846FDF783FF02B010BD70B5040033
:104AF00084B00D46164629D0FDF768FF009090F867
:104B00002800800705D5009A294601A803F000FE79
:104B100020B96846FDF76BFF04B070BD6846FDF72D
:104B200066FF324601A92046FFF7A1FE204603F0AA
:104B300055FE04000AD0324601A92046FFF7D6FFF1
:104B40002046FDF73BFF046A002CF4D104B070BD91
:104B50002DE9F0410F0086B006461446984659D01C
:104B60003846FDF733FF0090856AA8074FD5009AB5
:104B7000314602A803F0CCFD002848D040F60100E1
:104B80002840012809D10098026A8169434602A899
:104B9000FFF7DEFF0098C6690EE0424602A93846DC
:104BA000FFF765FE0098C66906E001A8FDF71FFF44
:104BB0003046FDF703FF066A4EB3A64227D03046C3
:104BC000FDF704FF019090F828008007EDD5019AC9
:104BD00002A904A803F09CFD0028E6D001A8FDF777
:104BE00006FF424604A93046FFF741FE304603F077
:104BF000F5FD0700DCD0424604A93846FFF776FFF2
:104C00003846FDF7DBFE076A002FF4D1D0E768468F
:104C1000FDF7EDFE06B0BDE8F081F0B50D0087B000
:104C20000646144600F0A7802846FDF7CFFE019007
:104C3000876AB80740F19C80019A314604A803F0C6
:104C400067FD002800F0948040F6010606EA0700A0
:104C5000012809D10198026A8169202304A8FFF77D
:104C600077FF0198C56958E02846FDF7A7FE009038
:104C7000806A810747D5BDF91410BDF91020914213
:104C8000A2BFBDF91610BDF9122091423BDB3040A6
:104C9000012838D02846FDF799FE0090024604A965
:104CA00002A803F035FDBDF90C00BDF908108842DB
:104CB000A2BFBDF90E00BDF90A10884220DB0098A2
:104CC000806A44F22001084207D0009800F10801F0
:104CD00002AA083003F04BFD12E00098083002A948
:104CE0000822FDF767FF00980099806A40F02000D5
:104CF0008862DFF8B404818E491C818603F066FD6A
:104D00006846FDF774FE0198C56906E06846FDF740
:104D10006EFE2846FDF752FE056A4DB3A54227D028
:104D20002846FDF753FE009090F828008007EDD547
:104D3000009A04A902A803F0EBFC0028E6D068461C
:104D4000FDF755FE202202A92846FFF790FD2846D0
:104D500003F044FD0600DCD0202202A93046FFF714
:104D6000C5FE3046FDF72AFE066A002EF4D1D0E7D4
:104D700001A8FDF73CFE07B0F0BD70B5060084B099
:104D80000C4615464ED03046FDF720FE0090866A50
:104D9000B00740D52DB100992A4601A803F0B8FC10
:104DA00004E0009901A80822FDF704FF01A92046AC
:104DB000FDF7E4FE78B3F0071FD40098B0F90200C5
:104DC000002D04D0B5F902108142A8BF0846B4F9FD
:104DD0000210814209DABDF90600B4F90620411E2D
:104DE000914218DA401EE08015E0BDF90A00B4F9DE
:104DF000061088420FDAE0800DE00098C66956B1CF
:104E000001AA21463046FFF7B8FF3046FDF7D6FD30
:104E1000066A002EF4D10098066A6846FDF7E7FDA1
:104E2000002EB0D104B070BDF0B507460026002FAB
:104E300083B00C46154636D03846FDF7C7FD0090C6
:104E4000876AB80728D52DB100992A4601A803F032
:104E50005FFC04E0009901A80822FDF7ABFE01A960
:104E60002046FDF78BFEB8B1F80705D4BDF8080061
:104E7000401C208001260FE00098C76967B101AA95
:104E800021463846FFF7D0FF00B101263846FDF72E
:104E900095FD076A002FF2D10098076A6846FDF772
:104EA000A6FD002FC8D1304603B0F0BD70B5060096
:104EB00084B00C46154633D03046FDF787FD009090
:104EC000866AB00725D52DB100992A4601A803F0BE
:104ED0001FFC04E0009901A80822FDF76BFE01A960
:104EE0002046FDF74BFEA0B1F00704D4BDF8040046
:104EF000401EA0800DE00098C66956B101AA214667
:104F00003046FFF7D3FF3046FDF758FD066A002E06
:104F1000F4D10098066A6846FDF769FD002ECBD1F2
:104F200004B070BD002818BF03F062BC704700B524
:104F300085B000910190694603F05AFC05B000BDB0
:104F400000224A800A8003888288D21A8A80C28816
:104F50004088101AC880704770B5040086B00E46AD
:104F60005BD0FDF733FD0090856AA80752D5009904
:104F700002A80822FDF71EFEE80344BF2046FFF703
:104F800089FD86B104A831460822FDF713FE00987A
:104F9000B0F90220B0F9001004A803F0ABFB04A99B
:104FA00002A8FDF742FE264603E0064601A8FDF7EB
:104FB0001EFD3046FDF70AFD019090F8280080079D
:104FC00003D401A8FDF713FD24E0019902A8FDF721
:104FD0002CFE019880690028E7D101A8FDF707FDA4
:104FE000DFF8AC0A81698E421CBFC069864211D1CC
:104FF00040F601002840012807D10098026A816923
:10500000202302A8FFF7A4FD04E0202202A92046E5
:10501000FFF72DFC6846FDF7EAFC06B070BD0021E5
:105020009AE72DE9F04F87B05F4C8046894611988A
:10503000E16C109F92469B4641EA00053FB9608EA5
:1050400058B358480068407C04EB8000876917F12A
:10505000010F08BF002720D0FFB13846FDF7B6FC8E
:105060000190BAF1000F0199B0F90000B1F90210F6
:105070008044894405D1019AB2F90420101A00F144
:10508000010ABBF1000F05D10198B0F90600401AE2
:1050900000F1010B01A8FDF7AAFC13982C30FEF7D4
:1050A000B9FD060079D0608E401C60863046FDF761
:1050B0008DFC0090A0F800800098A0F802900AEB08
:1050C00008000099401E88800BEB09000099401EE3
:1050D000C880009912980861DFF8001B0098806A68
:1050E00029400843009988626846FDF780FCE06B20
:1050F00058B1FDF763FC80463046FDF75FFCD8F8F9
:1051000014104161C8F8146000E0E6633946304687
:10511000FFF740FCA8061DD5224F3868866430464C
:105120008146FDF74BFC80690028F9D1A1698945CA
:105130001DBF0120E169894501F052FD01F07EFCAF
:105140003046FDF73BFC3968B0F90020CA64B0F97D
:1051500002000865E80702D5A06D401CA06568063E
:1051600044BF304603F064FBA8070FD53046FDF777
:105170002DFC00900099806A40F002008862684629
:10518000FDF735FC00213046FFF7E6FE01200290D6
:10519000039602A9304603F02BFB304607B0BDE86A
:1051A000F08F000074010020DC530020F0B50500F2
:1051B00087B000F0AE80DFF8D848E06B03E000BFB6
:1051C000FDF7FCFB4069002800F0A380A842F7D15E
:1051D00028460746FDF7F2FB80690028F9D1A0694F
:1051E000002687421FBF0126E06987424FF0FF3645
:1051F0000B200290039502A9284603F0F9FA2846ED
:1052000003F058FB2846FDF7E1FB0190406A08B126
:10521000FEF72FFC00206066A06B04EB8000816A23
:10522000A94204BF00218162016AA94204BF002192
:105230000162206C38B14168A94204BF002141607D
:1052400000680028F7D10721284603F067FB019F7B
:10525000F869FFF7ABFFF8690028F9D12846FDF798
:10526000B5FB0090816949B1026A2023FFF770FC09
:105270002846FFF7E4FB0099002088616846FDF7A7
:10528000B6FBE06B50B1FDF799FB07467869A84281
:10529000F8D12846FDF792FB406978610198806A51
:1052A000C10702D5A16D491EA165800602D5A08E59
:1052B000401EA08601A8FDF79AFB608E401E608606
:1052C0002846FDF700FC002E23D404EB86008669F7
:1052D00006B9E66BDFF8C05B28688664304607468F
:1052E000FDF76CFB80690028F9D1A1698F421DBFD1
:1052F0000120E1698F4201F073FC01F09FFB304611
:10530000FDF75CFB2968B0F90020CA64B0F902001F
:10531000086507B0F0BD10B50446FDF74FFB806986
:105320000028F9D1DFF868178A6994421FBF01206D
:10533000C9698C424FF0FF3010BDDFF85C0B00688C
:10534000806C704700000000185700202DE9F041E4
:10535000DFF83C8786B0D8E90201CDE90101D8F831
:10536000100030B9B8F80000ADF80400B8F8020039
:1053700015E0B8F80C00401CADF80400B8F80A00BD
:10538000BDF90410ADF80600B8F90400884208DA47
:10539000B8F80000ADF80400B8F80E00401CADF8F5
:1053A0000600B8F90600BDF906108842C0F268810F
:1053B000DFF8E45A2868806CFDF708FB0590B8F91F
:1053C0000010BDF9040088425CD1B8F80600ADF8C1
:1053D0000A00B8F80400ADF808002868806C0028BE
:1053E00000F04A80FDF7EAFA0646376A002F40D0FF
:1053F0003846FDF7EBFA0090876AB80732D5009976
:1054000003A80822FDF7D6FB03A901A8FDF7B6FB08
:1054100040B3F80718D4009ABDF90610B2F902207B
:10542000BDF90A00914208DABDF90E104A1E824207
:1054300018DA481EADF80A0014E0BDF912108142D6
:1054400010DAADF80A100DE00098C76957B103AA49
:1054500001A93846FFF791FC3846FDF7AFFA076A15
:10546000002FF4D10098076A6846FDF7C0FA002FB4
:10547000BED1B0690028B5D10598C069002201A944
:10548000FFF77BFCBDF80400ADF808002868806CCD
:1054900018E00098C46964B103AA01A92046FFF787
:1054A000C3FC00B101272046FDF788FA046A002CEE
:1054B000F2D10098046A6846FDF799FA54B9002FB2
:1054C000E0D1B06908B3FDF779FA06460027346ADF
:1054D000002CF6D02046FDF779FA0090846AA007E8
:1054E000E7D5009903A80822FDF764FB03A901A8EA
:1054F000FDF744FB0028DCD0E007CAD4BDF810005B
:10550000401CADF804000127D3E70598C7690026C1
:1055100097B33846FDF75AFA0090876AB80722D544
:10552000009903A80822FDF745FB03A901A8FDF790
:1055300025FBC0B1F80706D4BDF81000401CADF83B
:10554000040001260FE00098C76967B103AA01A90A
:105550003846FFF769FC00B101263846FDF72EFA00
:10556000076A002FF2D10098076A6846FDF73FFAF4
:10557000002FCED1002E85D1BDF90410B8F904005A
:10558000ADF80800884207DADDE90101C8E9020147
:1055900005A8FDF72CFAFBE62868D0F84800A8B368
:1055A000FDF70CFA05462E6A6EB33046FDF70EFA8B
:1055B0000090866AB0071FD5009903A80822FDF75E
:1055C000F9FA03A901A8FDF7D9FAA8B1F00705D4A3
:1055D000BDF80C00401EADF808000DE00098C6694B
:1055E00056B103AA01A93046FFF760FC3046FDF72B
:1055F000E5F9066A002EF4D10098066A6846FDF7C0
:10560000F6F9002ED1D1A8690028C9D10598C5693D
:105610006DB32846FDF7DAF90090856AA8071FD513
:10562000009903A80822FDF7C5FA03A901A8FDF710
:10563000A5FAA8B1E80705D4BDF80C00401EADF8E6
:1056400008000DE00098C56955B103AA01A92846D4
:10565000FFF72CFC2846FDF7B1F9056A002DF4D1BF
:105660000098056A6846FDF7C2F9002DD1D105A85A
:10567000FDF7BDF9D8F8100044F62161884203DB3C
:10568000002006B0BDE8F081DDE90101C8E90201B2
:1056900006B00120BDE8F08130B5DFF8445585B093
:1056A000286890F85400002843D0DFF8E44360698C
:1056B000022805DA2069401C2061FFF747FE28B95F
:1056C0006069401E606105B0002030BD286890F818
:1056D000541021B104F10800FEF7E2FF28E0806CCD
:1056E000FDF774F9019002A801990822FDF762FA0A
:1056F00001A8FDF77CF9E46DBCB101E0FDF777F995
:105700002046FDF763F9009090F82800800701D447
:10571000684608E0009902A8FDF787FA00988469B6
:10572000002C6846EAD1FDF762F902A8FEF7B8FF3F
:10573000012005B030BD70B5DFF8A4548AB006462C
:105740002868D34C90F8541051BB806CFDF73EF99B
:10575000019004A801990822FDF72CFA01A8FDF791
:1057600046F9E46DB4B102E06846FDF740F9204621
:10577000FDF72CF9009090F82800800707D50099D4
:1057800004A8FDF752FA00988469002CECD1684611
:10579000FDF72DF904A8FEF783FF01200AB070BDC4
:1057A0006169491C0229616180F2D080806CFDF73B
:1057B0000DF902904FF0FF30206194F8300050B3A3
:1057C000029906A808310822FDF7F4F91EB1314606
:1057D00006A8FDF72AFA2868416C59B3029803908D
:1057E000082208A8FDF7E6F9E06D30B103A8FDF73F
:1057F000FEF8E06DFDF7EAF803900398B0F9022097
:10580000B0F9001008A802F075FF08A906A8FDF776
:105810000CFA03A80FE0029890F82800800702D540
:10582000029906A8CFE76069401E606102A8FDF7F3
:10583000DEF891E002A8FDF7DAF8E66D0EB303E0BA
:1058400006466846FDF7D3F83046FDF7BFF80090EE
:1058500090F82800800703D46846FDF7C8F878E080
:10586000009906A8FDF7E1F9009880690028E7D1C2
:105870006846FDF7BCF8A06986421CBFE069864215
:1058800067D12868866C03E006466846FDF7AFF8E6
:105890003046FDF79BF8009090F828008007DBD594
:1058A000009906A8FDF7C1F9009880690028EBD19E
:1058B0006846FDF79CF8A06986421CBFE0698642F5
:1058C00047D1DDE90601C4E90001286890F85400D9
:1058D000002842D0606902283BDA2069401C206120
:1058E000FFF734FDA8B3286890F8541031B104F1E3
:1058F0000800FEF7D5FE01200AB070BD806CFDF7F0
:1059000065F8019004A801990822FDF753F901A850
:10591000FDF76DF8E46DB4B102E06846FDF767F895
:105920002046FDF753F8009090F82800800707D52F
:10593000009904A8FDF779F900988469002CECD14E
:105940006846FDF754F804A8FEF7AAFE01200AB045
:1059500070BD6069401E606100200AB070BD00002B
:1059600070B58CB00446FDF731F80190866A056980
:10597000019903A808310822FDF71CF901A8FDF7D9
:1059800036F8002D00F08280B00740F17F802E2194
:10599000204602F0CDFF3E4D95F83000401C85F8C2
:1059A0003000F00410D50F200790089403A80A9047
:1059B00002F0C0FFDFF8F41909680020486407A965
:1059C000204602F015FF58E003A8FFF7B4FE28B9FF
:1059D00053E000BF05F10800FEF762FE0F200790BC
:1059E00003A80A90089402F0A5FFDFF8C0693168A7
:1059F0000020486407A9204602F0FAFE306890F8BB
:105A00005400002839D06869022833DA2869401C1C
:105A10002861FFF79BFC68B3306890F854100029A8
:105A2000D8D1806CFCF7D2FF029005A80299082219
:105A3000FDF7C0F802A8FCF7DAFFEE6DB6B102E0A0
:105A40006846FCF7D4FF3046FCF7C0FF009090F8A2
:105A50002800800707D5009905A8FDF7E6F800980B
:105A60008669002EECD16846FCF7C1FF05A8FEF759
:105A700017FEB3E76869401E68612F2195F8300072
:105A8000401E85F83000204602F052FF0CB070BD79
:105A9000DC5300202DE9F04F87B08046FCF796FFDD
:105AA000009090F82800800740F192800098DFF87D
:105AB0000099C569DFF8FCA8494CDFF8FCB8002D57
:105AC00000F086802846FCF781FF019090F82800BE
:105AD00000F00300032873D1009800F10801019839
