:020000040800F2
:10000000C823012079020008C118010889C300082B
:10001000BD180108091700089980010800000000B8
:10002000000000000000000000000000C101000806
:10003000853300080000000015020008813D01081A
:10004000930200089302000893020008930200083C
:10005000930200089302000893020008930200082C
:10006000930200089302000893020008930200081C
:10007000930200089302000893020008930200080C
:1000800093020008930200089302000893020008FC
:100090000D170008930200089302000809430008A6
:1000A00093020008930200089302000893020008DC
:1000B00093020008930200089302000893020008CC
:1000C00093020008930200089302000893020008BC
:1000D00093020008054501089302000893020008F6
:1000E000930200089302000893020008930200089C
:1000F000930200089302000893020008930200088C
:10010000930200089D27010893020008930200084B
:100110009302000893020008494101089302000875
:1001200093020008930200089302000815230008B8
:10013000930200089302000893020008930200084B
:1001400093020008D51700089302000893020008E4
:10015000930200089302000893020008930200082B
:10016000930200089302000893020008930200081B
:1001700093020008A51901089302000893020008E1
:1001800093020008930200089302000893020008FB
:1001900093020008930200089302000893020008EB
:1001A000791201089302000809230008DFF80CD037
:1001B00000F06CFD00480047F5AD0208C82301209F
:1001C0002A4B19680868B0E8F04F80F30988BFF33C
:1001D0006F8F4FF0000080F311887047000000001F
:1001E00006480068006880F3088862B661B6BFF30D
:1001F0004F8FBFF36F8F00DF00BF00BF08ED00E03F
:10020000DFF80C00016841F470010160704700BF25
:1002100088ED00E0EFF30980BFF36F8F134B1A688E
:100220001EF0100F08BF20ED108A20E9F04F10607B
:1002300008B44FF0100080F31188BFF34F8FBFF365
:100240006F8F2EF03DFA4FF0000080F3118808BC4C
:1002500019680868B0E8F04F1EF0100F08BFB0EC46
:10026000108A80F30988BFF36F8F70471001002058
:10027000EFF30580704700000648804706480047B6
:10028000FEE7FEE7FEE7FEE7FEE7FEE7FEE7FEE746
:10029000FEE7FEE7753E0108AD0100082DE9F05FBD
:1002A0000546002092469B468846064681464024E5
:1002B0001BE0284641464746224600F021FB5346B4
:1002C0005A46C01A914110D311461846224600F0F2
:1002D00008FB2D1A67EB01084F462246012000213A
:1002E00000F0FFFA17EB00094E41201EA4F10104B3
:1002F000DFDC484631462A464346BDE8F09F10B54C
:10030000431A934209D28318881803E010F8011D9C
:1003100003F8011D521EF9D210BD40EA01039B07EC
:1003200003D009E008C9121F08C0042AFAD203E06A
:1003300011F8013B00F8013B521EF9D210BDD2B2B8
:1003400001E000F8012B491EFBD270470022F6E7BE
:1003500010B513460A4604461946FFF7F0FF20463B
:1003600010BD421E12F8013F002BFBD111F8013BDA
:1003700002F8013B002BF9D1704730B505462A46FB
:100380000B4612F8010B13F8014B08B1A042F8D04C
:100390001CB1002802D06D1CF1E7284630BD10B515
:1003A000044604E00B7800F8013B03B1491C521EDF
:1003B000F8D2204610BD421C10F8011B0029FBD1C9
:1003C000801A704710B5002200E0521C835C8C5CE0
:1003D000A34201D1002BF8D1D8B2E1B2401A10BD2E
:1003E00030B504460020034600E05B1C934203D274
:1003F000E05CCD5C401BF8D030BD034611F8012B0A
:1004000000F8012B002AF9D11846704730B505468F
:100410000020034600E05B1C934205D2EC5CC85C04
:10042000201A01D1002CF6D130BD2DE9F05F9346A2
:100430000F4680460446002624F016FBD0F80090B4
:10044000824614F8015B2DB100F07CFA0068405D33
:10045000C007F6D12B2D02D02D2D1AD0641E0021FD
:10046000CAF800105A463946204600F078FA01468C
:1004700027B13868A04201D1C7F80080DAF800003F
:10048000022809D0CAF80090700505D54842BDE899
:10049000F09F46F48066E2E70846F8E770B5064646
:1004A00024F0E2FA046805460A220021304600F0F2
:1004B000F3FA2C6070BD2DE9FE4F804681EA0300FF
:1004C000C00F0C46009021F0004123F00045B8EB2E
:1004D0000200A94105D24046214690461C460B46E3
:1004E000024623F00040104304D14046214603B0A9
:1004F000BDE8F08F270DC7F30A00C3F30A5102903D
:10050000401A0190402866DAC3F3130040F4801BC0
:100510000098924620B10023D2EB030A63EB0B0B49
:1005200001985946C0F14002504600F0DAF90646FB
:100530000D4650465946019A00F0F2F910EB0800BA
:100540006141002487EA115284EAE7731A433BD0E1
:10055000009A3AB3019A012A4FEA075210DC001BB5
:1005600061EB02014FF0004202EA0752CDE900427E
:10057000001C41F5801132462B4600F008FBB6E71F
:10058000001B61EB0201001C41F5801300185B4168
:100590002018A2F5001747EB030140EAD570B61901
:1005A0006D4111E06D084FEA360645EAC0754FEA25
:1005B0000752001B61EB0201001C41F58011490844
:1005C0004FEA30000019514132462B4603B0BDE8D6
:1005D000F04F00F0CFBA0098012240000023D0EB8A
:1005E000020263EBE073009821464FEAE074B8EB37
:1005F000000061EB0401E9E783F000435BE781F071
:10060000004158E72DE9FE4F81EA030404F000445D
:1006100021F0004100944FF0000B23F0004350EA1A
:10062000010402D052EA030404D10020014603B0C1
:10063000BDE8F08FC3F30A54C1F30A552C44A4F269
:10064000F3340194A0FB0254C1F3130141F480116F
:10065000C3F3130343F4801301FB024400FB034E76
:10066000840A970A44EA815447EA8357A4FB07683F
:1006700002958D0A05FB07854FEA932C04FB0C5469
:100680002705029D4FEA065847EA1637B5EB0805DD
:100690006EEB070C870E920E47EA811742EA83122F
:1006A000A7FB0201B6EB0B0164EB00042B0D43EA40
:1006B0000C335E1844EB1C50DA465146E7FB02014E
:1006C000C5F313044FEA0B3343EA14534FEA0432E1
:1006D000019C43EA0603A4F10C040294009CCDE9BA
:1006E00000B400F054FAA2E72DE9F04D81EA0304CA
:1006F00004F0004B21F0004514464FF0000A23F0AF
:10070000004150EA050220D054EA01021DD0C5F391
:100710000A570246C5F31303C1F31300C1F30A5687
:1007200040F4801543F48013A7EB0608101BD6464F
:1007300008F2FD3873EB050002D308F1010801E06F
:1007400092185B41B8F1000F03DA00200146BDE8C2
:10075000F08D00204FF48011064684460EE0171BF2
:1007600073EB050705D3121B63EB050306434CEA45
:10077000010C49084FEA300092185B4150EA01072A
:10078000EDD152EA030012D082EA040083EA0501A7
:10079000084303D100224FF0004308E0101BAB4197
:1007A00002D20122002302E06FF0010253101AEB83
:1007B00006004CEB085110EB0A0041EB0B01BDE8C1
:1007C000F04D00F0D7B90EB5C10F80EAE0700844D3
:1007D000CA07002140F233438DE80E000A460B465B
:1007E00000F0D5F903B000BD70B5C1F30A5201F0B5
:1007F00000450024C1F3130140F2FF3341F480119E
:100800009A4201DA002070BD40F233439A42A2F2CC
:10081000334203DC524200F073F800E090402C4376
:10082000F1D0404270BDC1F30A5210B5C1F31301BB
:1008300040F2FF3341F480119A4201DA002010BDEA
:1008400040F233439A42A2F2334203DC524200F0B8
:1008500057F810BD904010BD00F0004230F000404D
:100860000AD0C10D01F56071C0F3160042EA0151D2
:10087000C20840071143704700200146704701F04D
:10088000004330B421F0004150EA010206D00A0DC5
:10089000A2F56072C1F31301002A02DC30BC002013
:1008A0007047440F44EAC104C100E01830BC00EBBB
:1008B000C25000F029B930B50B4601460020202275
:1008C000012409E021FA02F59D4205D303FA02F55D
:1008D000491B04FA02F52844151EA2F10102F1DCBD
:1008E00030BD202A04DB203A00FA02F100207047D4
:1008F0009140C2F1200320FA03F31943904070475E
:10090000202A04DB203A21FA02F00021704721FA64
:1009100002F3D040C2F120029140084319467047CB
:10092000202A06DBCB17203A41FA02F043EAE073B3
:1009300006E041FA02F3D040C2F1200291400843A0
:100940001946704700487047408E070810B50446A6
:10095000FFF7F8FF0068005D00F0010010BD2DE911
:10096000F05F82460078002715468B460AF10104A5
:10097000B946302801D09DB113E014F8010B0127CE
:10098000782803D0582801D045B10AE00DB1102DC8
:1009900007D10027102514F8010B02E0082500E01C
:1009A0000A250026B0460EE005FB080005FB06F10F
:1009B000012701EB10461FFA80F8B6F5803F00D3FF
:1009C000B94614F8010B294600F072F90028EBDA59
:1009D000BBF1000F05D00FB1641E00E05446CBF808
:1009E0000040B9F1000F06D024F03EF8022101606A
:1009F000C81EBDE8F09F48EA0640FAE70FB400239E
:100A000000B589B00CA900910B996FF00042CB6042
:100A10001E4B06931E4B07930423CDE901321D4A5A
:100A2000089202466B46002000F0D0F909B05DF84C
:100A300014FB70B586B006464FF0FF300091CDE94B
:100A40000101002015460C4604903246694604A870
:100A5000FFF7D4FF03460498211825B108B10A46D0
:100A600000E022462A6000280DD0002B02DD00980D
:100A7000884208D0081B0094CDE90104324669463B
:100A800004A8FFF7BBFF06B070BD00000910000806
:100A9000271000084D0900082DE9F04791460F4640
:100AA00080460446002614F8015B2DB1FFF74AFF8B
:100AB0000068405DC007F6D12B2D02D02D2D18D037
:100AC000641E4A4639462046FFF749FF27B1396878
:100AD000A14201D1C7F8008071054FF002040BD587
:100AE0004042002803DD23F0BFFF0460A007BDE8FB
:100AF000F08746F48066E4E70028F8DA23F0B4FFD4
:100B000004606FF00040F2E70029A8BF7047401C66
:100B1000490008BF20F00100704710B4B0FA80FC13
:100B200000FA0CF050EA010404BF10BC704749B150
:100B3000CCF1200421FA04F411FA0CF118BF0121C0
:100B400021430843A3EB0C01CB1D0106000A002B37
:100B5000BEBF002010BC704700EBC35010440029FA
:100B6000A4BF10BC7047401C490008BF20F0010022
:100B700010BC704710B5002B08DA401C41F1000191
:100B800092185B411A4301D120F0010010BD2DE9FC
:100B9000F04D92469B4611B1B1FA81F202E0B0FAF3
:100BA00080F220329046FFF79CFE04460F4640EA52
:100BB0000A0041EA0B0153465A46084303D1204636
:100BC0003946BDE8F08D114653EA010015D0C8F151
:100BD00040025046FFF794FE05460E4650465946E1
:100BE0004246FFF77EFE084301D0012000E00020CE
:100BF000054346EAE0762C4337430A984FEA4453CC
:100C0000A0EB08004FEAD4240A304FF0000244EA77
:100C100047544FEAD72502D500200146D1E7010508
:100C200010196941DDE9084500196941BDE8F04D39
:100C3000A0E7C1F30A52C1F3130140F2FF3341F4BC
:100C400080119A4202DA00200146704740F2334395
:100C50009A42A2F2334202DC5242FFF751BEFFF742
:100C600040BE000030B5002904DB4FF00044404294
:100C700064EB0101002B04DB4FF00044524264EBB3
:100C80000303994208BF904230BD0000064C074D57
:100C900006E0E06840F0010394E80700984710344C
:100CA000AC42F6D3FFF786FA148F0708348F070893
:100CB0003A2800D2303820F02002412A01D3A2F194
:100CC0003700884201D34FF0FF3070472DE9FF4FC6
:100CD000087881B09946FF2805D0491C2D2804D0FA
:100CE0000024002308E000230BE00124F9E703EBD4
:100CF000830300EB4303491C0878FF28F7D104B1B4
:100D00005B4200200090147801462D2C01D02B2C42
:100D100004D1521C2D2C12D00024009400251678EA
:100D2000FF2E0ED00A24A0FB04C801FB048100277B
:100D300000FB0711521C16EB0C006941EFE7012480
:100D4000EBE7994450EA010206D101980021C0E97D
:100D5000001105B0BDE8F08F0024A84D2646DFF84D
:100D6000A08200F071F982468B46B9F1000002DAE8
:100D7000C9F1000714E0074612E0F80707D0224641
:100D80002B4630464146FFF73DFC06468846224644
:100D90002B4610461946FFF735FC04460D467F10DA
:100DA000002FEAD1B9F1000F32464346504659466A
:100DB00002DAFFF799FC01E0FFF724FC009A0AB180
:100DC00081F00041019AC2E90001C2E72DE9FF4F1D
:100DD0001F468DB0D7E901464FF0FF382E2045461B
:100DE0004FF000090B90B9696D1C0E988847396A5D
:100DF000824688470028F6D11AF101000AD024F46F
:100E0000D064002E12DDBAF12B0F08D0BAF12D0FED
:100E10000CD102E0404611B09CE744F48064B9690B
:100E20006D1C0E9888478246A6F10106694660054A
:100E300001D52D2000E02B208DF8000001F1010BE1
:100E40000DF1200809E0B9696D1C0E9888478246AB
:100E50000F98761E44F400740560002E02DDBAF18E
:100E6000300FF0D00B998A453ED144F0800406E063
:100E70000F99681CA9F1010944F400740860761EFA
:100E8000B9696D1C0E98884782463028F0D02BE057
:100E90000B998A4505D1200603D444F08004761EC0
:100EA00018E0504625F0BAFB08B3761E0DF1130189
:100EB00044F400748B4508D2AAF130000BF8010B02
:100EC000200607D5A9F1010003E0200602D409F1AC
:100ED00001008146A00502D50F99681C0860B96918
:100EE0006D1C0E9888478246002ED1DC54E0002EFF
:100EF00052DDBAF1650F02D0BAF1450F4CD1A00511
:100F00004AD5761EB96924F440746D1C0E98884742
:100F10008246002E0DDD2B2804D0BAF12D0F08D10A
:100F200044F48074B9696D1C0E9888478246A6F116
:100F30000106E00501D52D2100E02B2108F8011B59
:100F4000CDF82C8021E0761E0DF1290144F40074C7
:100F500088450CD2AAF1300010F0FF0088F800009C
:100F600002D10B99884509D908F1010806E0E0058E
:100F700001D5244801E042F20F708146B9696D1C29
:100F80000E98884782460F980560002E04DD504673
:100F900025F044FB0028D6D1F9690E988847FF2038
:100FA0008BF8000088F800000020069007904B4660
:100FB0006A4608A906A8FFF789FEA00502D46FF0CB
:100FC000010028E714F0240F0AD0E00714D1DDE96E
:100FD00006123868031D3B600068C0E900120BE090
:100FE000DDE90601FFF74BFC0146E00704D1386854
:100FF000021D3A600068016028460CE700002440AA
:101000000000F03FF1D8FFFF426842B1016811F8DB
:10101000013B23B1521EC0E900121846704701215E
:10102000C160881E704742685AB1C368016843B9FD
:1010300083688B4205D0491E521CC0E90012002073
:1010400070474FF0FF3070470EB540F233420292C6
:101050000022CDE900221346FFF799FD03B000BD41
:1010600070B501EB020410F8015B15F0070301D124
:1010700010F8013B2A1106D110F8012B03E010F8FB
:10108000016B01F8016B5B1EF9D12B0705D400231E
:10109000521E0FD401F8013BFAE710F8013B02F1B0
:1010A0000202A1EB030303E013F8015B01F8015B0B
:1010B000521EF9D5A142D6D3002070BD7047000062
:1010C0001FB50020294A0123CDE901200093039098
:1010D00003464FF4006226A128482DF07FFF002030
:1010E000274A0223CDE901200093039003464FF4E1
:1010F000007224A126482DF071FF0020254A032309
:10110000CDE901200093039003464FF4806222A1B1
:1011100024482DF063FF0020234A0423CDE9012059
:101120000093039003464FF4807220A122482DF0D3
:1011300055FF0020214A0523CDE9012000930390AB
:1011400003464FF400721EA120482DF047FF0020F7
:101150001F4A0623CDE901200093039003464FF474
:1011600080721CA11E482DF039FF1FBD0000002019
:10117000765461736B4755490000000045E1020851
:1011800004000020765461736B5573657249460004
:101190008DE7020808000020765461736B4D736779
:1011A00050726F0059E102081000002076546173FC
:1011B0006B53746172740000B9E5020814000020DA
:1011C000765461736B436F6D00000000B1E002085C
:1011D0000C000020765461736B55534250726F00BF
:1011E0001DE902080020014908737047BC41002036
:1011F00038B5446805460146204617F007F8002830
:1012000008BF38BD464A286811280DD006DC0B28D7
:101210002AD00E2838D00F2817D07CE0282873D089
:10122000B0F5107F0AD076E09268002A08BF38BD7A
:10123000294601B02046BDE830401047526801B051
:1012400029462046BDE8304010472546204605F097
:1012500031F90090406E0468684605F0C3F9002C2F
:101260001CBF2846A04738BD204605F023F9009052
:10127000683005F021F8009803216C3005F04AF839
:10128000684605F0AFF946E0E968486809680D2945
:1012900002D0202918D037E0002835DD4FF48071C6
:1012A000204617F07EF8204605F004F9009090F8EB
:1012B0002850684605F096F915F0020F1ED001215E
:1012C000204618F0DDFA19E0002817DD25464FF416
:1012D0008071204617F065F8284605F0EBF800907D
:1012E00090F82840684605F07DF914F0020F08BF19
:1012F00038BD0121284618F0C3FA38BD2046BDE8A4
:101300003840022121F030BBE86820B920464FF474
:10131000807116F059FF2846BDE8384017F096BB9B
:101320002C03002070B5044686B08069B4F908C06B
:10133000658A00260091CDE90165CDE903C0B4F9C5
:101340000C00B4F91050C118B4F90A00B4F90EC079
:1013500010442B46624600F007F80546616800F02D
:10136000A7F906B0284670BD2DE9F04F85B0984624
:10137000DDE91164DDE90E5791468A46834606F0A1
:10138000A9FE04F14C001749CDE90210CDE9005740
:1013900043464A465146584617F09CFA05001BD072
:1013A00005F088F810223146049017F06FF90E4CC2
:1013B0000499B4E8CD133431A1E8CD1394E80D10AD
:1013C000A1E80D1054F82C0D086004A805F00AF9E6
:1013D000206841682846884708F054FE05B0284632
:1013E000BDE8F08FF111000838030020F0B5044685
:1013F00080688C4989B051F820506068002800F05E
:101400000A81052806D006287DD0122800F0B48075
:1014100000F004B9E869002808BF002651D0D5E9DA
:101420000012AB688DE80F0004F110010FC909F03C
:1014300069FC002655F8260008F03DFAA169E86924
:101440000A1A216901446069304406F0B9FAA169B9
:10145000E8690A1A21690144E069801B06F0B0FAC4
:10146000E169E8690A1A616901442069304406F0BB
:1014700043FBE169E8690A1A61690144A069801BBC
:1014800006F03AFB761C022ED4DBA86808F013FAAB
:10149000E069E969D4F814C0431A2069421861442C
:1014A000801C521E06F0A2FBE169E869A2690B1AD2
:1014B00061690144101A401C921E06F097FBEE6908
:1014C00011E055F8260008F0F6F9E069831BA069E1
:1014D000821B606981192069304406F0C5FA761CC8
:1014E000022EEEDB0226D5E90301CDE90001E16918
:1014F000606901444B10A1698A1B811C206930443A
:1015000006F054F900E011E0D5E90501CDE900014C
:10151000E0696169831E01440122A06902EB610157
:10152000821B2069304406F041F977E0206804F01E
:10153000C1FF0490206819F0F5FA50B1A0680028A6
:1015400018BF00200AD10498006F002818BF01209E
:1015500004E00498406F002818BF0220049901EBB2
:101560008000C56E04A805F03DF800231A46284601
:10157000216805F07BFD51E0206804F09BFF04909A
:10158000866E002E08BF04A842D0A168B0F95C7036
:10159000002908BF012103D003290CBF022100212B
:1015A00000EB8101406D0C6C08F09CF9204608F0BE
:1015B00082F906A806F022FCBDF81810A88B014499
:1015C000ADF81810BDF81C10081AADF81C00BDF8D5
:1015D0001A00801CADF81A00BDF81E00801EADF880
:1015E0001E000498B0F96020B0F95E1006A807F05C
:1015F00091FF04A804F0F6FF022008F0FFF930463E
:1016000004F058FF3A4606A9059005F03BFE05A8F0
:1016100004F0E8FF02E0206818F014FC09B0002094
:10162000F0BD0000782E0708042928BF7047F0B4E9
:10163000044A52F8211091E8FE1080E8FE10F0BC38
:1016400070470000782E0708044A034911600449D6
:101650004A6A486210467047680300202C03002045
:1016600038030020002808BF704738B50C460546EF
:1016700006F030FD284604F01DFF009044656846E2
:1016800004F0B0FF284618F02BF808F0FBFC38BD3A
:10169000042928BF7047F0B4044A52F8211090E89A
:1016A000FD1081E8FD10F0BC70470000782E07089F
:1016B000F0B583B00F4605004FF0010421D006F0CD
:1016C00009FD284604F0F6FE0190866E01A80096FA
:1016D00004F088FF394668460AF028F878B1009887
:1016E0000024B04208D0284604F0E4FE019000999E
:1016F000816601A804F076FF284617F0F1FF08F094
:10170000C1FC03B02046F0BD00BFFEE710B52A4A79
:1017100000212A4800F0B5F927484068284A811A74
:1017200090422CD008DCB0F5803F35D025494018D8
:101730000CD001283DD115E0FD2939D0B1F53F7F0E
:1017400037D11D48C07A2049087033E0002406E0F4
:1017500019480B30005D1D490855601CC4B2082CA7
:10176000F6DB27E0002407E013480B30015D174843
:1017700008300155601CC4B2082CF5DB1AE00024C7
:1017800007E00D480B30015D104810300155601C1A
:10179000C4B2082CF5DB0DE0002406E006480B304F
:1017A000005D0B490855601CC4B2082CF6DB01E053
:1017B00000E000BF00BF10BDE4190020006400403D
:1017C00003010200FFFEFDFF32000020B8190020D7
:1017D0002A00002010B500240D4A01210D4800F018
:1017E00050F90B480068A0F5407121390ED1084826
:1017F000007A58B90648807A012807D134B1000729
:1018000005490860BFF34F8FBFF36F8F10BD000015
:10181000E41900200068004004ED00E010B5044623
:101820000B48844209D10121480610F0F3F8002149
:101830004FF0007010F0EEF808E00121880610F07B
:10184000E9F800214FF0806010F0E4F810BD0000CE
:101850000064004010B50021837A012202FA03F1EE
:101860003D4A126842F001023B4B1A603A4A1C3270
:1018700012688A43384B1C331A60027BCAB9364A55
:101880000C3212688A43344B0C331A604288C38886
:1018900042EA0343304A4032847A42F834300288C4
:1018A000838842EA03432C4A4032847A02EBC40222
:1018B0005360027B012A19D1274A0C3212680A436D
:1018C000254B0C331A604288038842EA0343224ABC
:1018D0004032847A42F83430C288838842EA034333
:1018E0001D4A4032847A02EBC4025360C27A3AB98C
:1018F000194A121D12688A43174B1B1D1A6006E015
:10190000154A121D12680A43134B1B1D1A600289E7
:1019100032B9114A143212688A430F4B14331A60D9
:101920000289012A06D10C4A143212680A430A4B72
:1019300014331A60427B012A06D1074A1C3212680E
:101940000A43054B1C331A60034A126822F0010255
:10195000014B1A6010BD0000006600401AB14369D7
:101960000B43436102E043698B434361704730B5E9
:10197000024600200023146824F002041460146856
:1019800044F00104146000E05B1C546814F0010F83
:1019900003D1A3F57F44FF3CF6D1546814F0010F46
:1019A00001D100206CE08C79012C04D1146844F042
:1019B0008004146003E0146824F080041460CC797F
:1019C000012C04D1146844F04004146003E014684E
:1019D00024F0400414600C7A012C04D1146844F003
:1019E0002004146003E0146824F0200414604C7A8E
:1019F000012C04D1146844F01004146003E014684E
:101A000024F0100414608C7A012C04D1146844F082
:101A10000804146003E0146824F008041460CC7A0D
:101A2000012C04D1146844F00404146003E0146829
:101A300024F0040414608C78A407CD7844EA05648B
:101A40000D7944EA05444D7944EA05540D886D1E2C
:101A50002C43D461146824F001041460002300E0D6
:101A60005B1C546814F0010F03D0A3F57F44FF3CC6
:101A7000F6D1546814F0010F01D0002000E00120DD
:101A800030BD10B500F5D87303EB01131B6803F0EC
:101A900004031372137A53B900F5D87303EB0113DF
:101AA0001B6840F2FF7404EA5353136009E000F529
:101AB000D87303EB01131B686FF0604404EAD3038F
:101AC000536000F5D87303EB01131B6803F00203A6
:101AD000537200F5D87303EB01135B6803F00F0337
:101AE000937200F5D87303EB01135B681B0AD37480
:101AF00000F5D87303EB01139B68D37200F5D8731C
:101B000003EB01139B681C0A147300F5D87303EBF5
:101B100001139B681C0C547300F5D87303EB01137D
:101B20009B681B0E937300F5D87303EB0113DB68FE
:101B3000D37300F5D87303EB0113DB681C0A14742C
:101B400000F5D87303EB0113DB681C0C547400F52B
:101B5000D87303EB0113DB681B0E937421B9C368C0
:101B600043F02003C36003E0036943F020030361F3
:101B700010BD000070B505460C46002613484560B0
:101B800000201249487204200872082088722078C8
:101B9000C87261780D480173A1784173E17881734F
:101BA0002179C17361790174A1794174E1798174FA
:101BB0000146074800F00EF8064600BF31460448CB
:101BC00000F09CF80128F9D170BD0000D019002068
:101BD0000064004010B502460020936803F0806363
:101BE000B3F1806F00D110E0936803F00063B3F1AC
:101BF000006F01D1012008E0936803F08053B3F136
:101C0000805F01D1022000E00420042874D002F596
:101C1000C07303EB00131B6803F0010402F5C073EB
:101C200003EB00131C600B7A7BB94B7A0C8843EAF8
:101C3000445302F5C07404EB00142468234302F5F6
:101C4000C07404EB0014236010E00B7A4C6843EA84
:101C5000C4034C7A234302F5C07404EB00142468D7
:101C6000234302F5C07404EB001423608B7A03F065
:101C70000F038B7202F5C07303EB00135B6823F054
:101C80000F0402F5C07303EB00135C6002F5C07330
:101C900003EB00135B688C7A234302F5C07404EBFA
:101CA000001463608B7B1C064B7B44EA03440B7B74
:101CB00044EA0323CC7A234302F5C07404EB0014F6
:101CC000A3608B7C1C064B7C44EA03440B7C44EAF7
:101CD0000323CC7B234302F5C07404EB0014E360C0
:101CE00002F5C07303EB00131B6843F0010402F517
:101CF000C07303EB00131C6010BD000010B502465A
:101D0000002321B1012907D002290FD109E09068F1
:101D10001D4C00EA04030BE090681C4C00EA04032D
:101D200006E090681A4C00EA040301E0002300BFBB
:101D300000BF184C181BA34216D007DC83B16FF00C
:101D4000806018180ED0022818D111E0B0F5007F7D
:101D500010D0114C001909D0B0F5003F0ED10BE0A6
:101D600002230DE000230BE0002309E0002307E03D
:101D7000012305E0012303E0012301E0002300BF6C
:101D800000BFD8B210BD000003000004000300082B
:101D900000000310000100080001FFF770B50025E6
:101DA0004FF4803400E0641E24B1802010F0CAFC9F
:101DB0000028F8D014B90325284670BD40F2FF5022
:101DC00010F07CFC2846F8E72DE9F0410646002794
:101DD0004748056801E04648056815F0450FFAD008
:101DE00015F0040F06D00327042010F067FC3846D6
:101DF000BDE8F08115F0010F05D00127012010F09A
:101E00005DFC3846F4E710F097FCB04202D0102792
:101E10003846EDE740F2FF5010F050FC002010F083
:101E2000B1FC04463348044201D13846E0E714F0DF
:101E3000004F01D01C20DBE714F0804F01D00920B7
:101E4000D6E714F0005F01D00A20D1E714F0805FDC
:101E500001D00B20CCE714F0006F01D00C20C7E7B5
:101E600014F0806F01D00D20C2E714F0807F01D004
:101E70000E20BDE714F4000F01D00F20B8E714F4D2
:101E8000800F01D01020B3E714F4001F01D01120FF
:101E9000AEE714F4801F01D01220A9E714F4002F3C
:101EA00001D01320A4E714F4802F01D014209FE761
:101EB00014F4003F01D015209AE714F4803F01D0BC
:101EC000162095E714F4004F01D0172090E714F482
:101ED000804F01D018208BE714F4005F01D0192047
:101EE00086E714F0080F01D01A2081E738467FE713
:101EF000342C014008E0FFFD70B500250F48046850
:101F000001E00E48046814F0450FFAD014F0040FF5
:101F100005D00325042010F0D1FB284670BD14F035
:101F2000010F05D00125012010F0C8FB2846F5E778
:101F300040F2FF5010F0C2FB2846EFE7342C01407E
:101F400070B500250B48046801E00A48046814F0E5
:101F5000450FFAD014F0040F05D00325042010F02B
:101F6000ADFB284670BD40F2FF5010F0A7FB28469D
:101F7000F8E70000342C01402DE9F04106460F46F9
:101F80004FF000082248056801E02148056815F077
:101F9000450FFAD015F0040F07D04FF003080420C6
:101FA00010F08CFB4046BDE8F08115F0010F06D023
:101FB0004FF00108012010F081FB4046F3E710F0DC
:101FC000BBFBB04203D04FF010084046EBE740F2B5
:101FD000FF5010F073FB002010F0D4FB044614F403
:101FE000604F03D1200C38804046DCE714F4005FDA
:101FF00001D01320D7E714F4804F01D01020D2E78E
:1020000014F4004F01D00F20CDE74046CBE700008D
:10201000342C014070B500264FF480350F48046819
:1020200002E06D1E0D48046814F0450F01D1002D2B
:10203000F7D115B114F0040F05D00326042010F0D9
:102040003DFB304670BD14F0400F05D00026402007
:1020500010F034FB3046F5E73046F3E7342C01400E
:1020600070B5044600252078232802D02078452822
:1020700004D12146284628F095FE0DE0284629F097
:10208000B3FB064901EB05102146FEF7B6F9012224
:102090000021084600F09EF8284670BDF81900207F
:1020A000014609B90B487047012901D10020FAE720
:1020B000022901D10020F6E7032901D10020F2E72F
:1020C000042901D10020EEE7052901D10020EAE72B
:1020D0000020E8E7C438002008B525208DF800006E
:1020E00001208DF8010000208DF8020001208DF8FC
:1020F000030068460FF0E6FB08BD00001CB516F0B3
:10210000E1FF0446002000902346094A1221019075
:10211000084804F017FE084908600846006816F0F1
:10212000C5FF044600230A22194616F0A3FB1CBD76
:10213000454E0208BC600308E80000201CB516F0FC
:10214000C1FF0446002000902346094A2A2101903D
:10215000084804F0F7FD084908600846006816F0D2
:10216000A5FF044600230A22012116F083FB1CBDB3
:10217000C5570208B4620308EC0000201CB516F035
:10218000A1FF0446002000902346044A0421019048
:10219000034804F0D7FD034908601CBD156202081E
:1021A00014600308E00000201CB516F08BFF044605
:1021B000002000902346044A02210190034804F0C5
:1021C000C1FD034908601CBD8163020884600308E7
:1021D000E40000202DE9F041ADF5976D04460E4670
:1021E000174600200190029003900490002233A132
:1021F000A2A827F087FA05461DB10DF5976DBDE839
:10220000F0812FA10EA827F089FB054605B1F4E760
:1022100027B3012F02D0022F42D10DE00A2229A1BB
:1022200018A827F09FFA05460DAB0122294918A8E6
:1022300027F074FD054633E00020274908700A2284
:1022400026A118A827F08EFA05460DAB40F22622EB
:10225000264918A827F062FD054621E0244901EB34
:102260000410FEF7A8F88046214800EB041142460E
:1022700001A8FEF794F8334601AA1EA105A822F092
:10228000DFFB0A2205A918A827F06CFA05460DAB5A
:1022900040F6C4321B4918A827F040FD054600BF90
:1022A00000BF05B1A9E718A827F058F9002203A13B
:1022B000104627F027FA00BF9FE70000303A0000E1
:1022C000303A2F00303A2F70726F6E616D652E7448
:1022D00078740000D100002035000020303A2F6AC9
:1022E00069616F7A68756E2E74787400181E00200C
:1022F000F8190020303A2F2573253032642E747877
:1023000074000000402000200220014988607047CE
:1023100000B0024010B511F03BF910BD0246094B68
:102320009A4201D2084801E00648103811F0005FD7
:1023300003D0064B0B40C36002E0044B0B408360AC
:102340007047000010640240006002407D0F7D0F66
:1023500021B1026842F00102026003E0026822F04B
:102360000102026070470000016821F00101016074
:102370000021016041608160C160016121214161F2
:102380004A49884204D13D21484A103A91608CE084
:1023900046491831884205D14FF47461434A103AD6
:1023A000916082E041493031884205D14FF4741187
:1023B0003E4A103A916078E03C494831884205D164
:1023C0004FF07461394A103A91606EE037496031DC
:1023D000884204D13649354A103AD16065E0334924
:1023E0007831884204D13349304A103AD1605CE0F8
:1023F0002E499031884204D12F492C4A103AD1609D
:1024000053E02A49A831884205D14FF03D51274A6F
:10241000103AD16049E02949884204D13D21274A38
:10242000083A116041E025491831884205D14FF43E
:102430007461224A083A116037E0204930318842FD
:1024400005D14FF474111D4A083A11602DE01B4963
:102450004831884205D14FF07461184A083A11603A
:1024600023E016496031884204D11149134A121FF2
:1024700011601AE011497831884204D10D490F4AA0
:10248000121F116011E00D499031884204D10A49B0
:102490000A4A121F116008E00849A831884204D195
:1024A0004FF03D51054A121F116070471060024005
:1024B0003D000020400F002000003D20106402403D
:1024C00021B1026842F02002026003E0026822F0BB
:1024D00020020260704710B511F0800F09D022B1C0
:1024E000436943F08003436103E0436923F08003C1
:1024F000436180290BD02AB1036801F01E042343F5
:10250000036004E0036801F01E04A343036010BDF0
:1025100010B500220268134B1A40CC680B682343A5
:102520004C6923438C692343CC6923430C6A2343BE
:102530004C6A23438C6A23434C6B23438C6B2343A9
:102540001A430260426922F00702D1E90B342343A7
:102550001A4342610B6943604B6883608B68C360B8
:1025600010BD00003F801CF02DE9F04389B00D46FE
:10257000040004BF09B0BDE8F08305F0ABFD112DE8
:102580006BD0132D57D02646204603F093FF0290C0
:10259000C06B04F0F9F8074602A804F023F8A5F18F
:1025A0004100192898BF2035A8460024002F71DD6E
:1025B0000025304603F07EFF0590C06B214604F0F5
:1025C000EFF8814605A804F00DF8B9F1000002D03B
:1025D00003F070FF05460395002D58D02878A0F130
:1025E0004101192998BF2030C5B203A803F0FAFFB2
:1025F00045454CD1002E4DD005F06CFD304603F022
:1026000059FF0190C06B04F0BFF8002818BF401EAE
:10261000844244DC0198B0F93410A14231D0848660
:1026200001A803F0DFFF304617F05AF804213046C6
:1026300017F026F928E005F04DFD204603F03AFF9B
:102640000090B0F93450684603F0CCFF07F01AFD53
:10265000691C204600F017FE1CE005F03BFD2046FB
:1026600003F028FF0190B0F9345001A803F0BAFF3D
:1026700007F008FD290018BF691E204600F003FE80
:1026800008E001A803F0AEFF07F0FCFC02E0641CC8
:10269000BC428DDB09B0BDE8F04307F0F3BC044653
:1026A000B8E7002814BF00297047F8B50C46054666
:1026B00005F010FD284603F0FDFE0090C66B68464D
:1026C00003F090FF2046FDF776FE421C214630467F
:1026D00003F0AEFF284617F003F807F0D3FCF8BD6F
:1026E000F0B54468054685B0204603F0E3FE01904E
:1026F000D0F8886001A803F075FF002E14BF0127F1
:1027000000272946204615F081FD002804BF05B0AA
:10271000F0BD2868112876D006DC0B2870D00E2872
:102720006FD00F286ED0D4E00027212805D02628AE
:102730002FD0B0F5107F6CD0CBE0E868416800295D
:1027400043DD00680D2840D130460CF0EAFB00283C
:1027500006DB30460CF0E5FB0146204600F093FD19
:10276000002C7CD005F0B6FC204603F0A3FE0290BE
:10277000D0F8880038B116F0A3F90298C0F8887034
:10278000204616F0ADFF02A803F02CFF07F07AFCFC
:102790009CE0E868012809D00A2802D00B2815D04F
:1027A00097E00A21204617F06BF892E030460CF0D3
:1027B000B8FB002809DB30460CF0B3FB014620468D
:1027C00000F061FD204617F05BFA82E0002C45D056
:1027D00005F080FC204603F06DFE0090D0F88800E4
:1027E00038B116F06DF90098C0F88870204616F0E0
:1027F00077FF684603F0F6FE07F044FC69E002E06C
:102800002FE043E01BE0002F63D1E868007A38BB7B
:102810005FE0E86868B1007A28B10121204617F02E
:102820002FF805B0F0BD0221204617F029F805B0B9
:10283000F0BD0321204617F023F805B0F0BD264671
:10284000204603F037FE0290D0F88400046802A806
:1028500003F0C8FE002C1CBF3046A04739E035E02D
:102860002CE0204603F026FE0090C06B03F022FF10
:102870000098D0F8880016F023F90098D0F894005A
:1028800003F0E4FC684603F0ADFE22E0E86841682E
:1028900000291EDD0168202910D00ADC092911D089
:1028A0000A2918BF1B2914D02046FFF75DFE05B08A
:1028B000F0BD212918BF2229F6D10AE0204600F0F8
:1028C000FBF906E016F050FCB04202D1204617F0AA
:1028D000D7F9284616F0BAF805B0F0BD002808BFB1
:1028E000704738B5044605F0F5FB204603F0E2FDDD
:1028F0000090D0F8880040B116F0E2F8009900206E
:10290000C1F88800204616F0EBFE684603F06AFE28
:1029100007F0B8FB38BD70B586B0B0F90840458AFD
:10292000D0F818C00026CDE90254CDE90016CDF844
:1029300010C0B0F90C10B0F91040B0F90EC0B0F9E9
:102940000A00194410442346624600F003F806B01A
:1029500070BD00002DE9FF4F85B01E46DDE914472C
:10296000DDE9128992468B46169D05F0B3FB05F111
:102970006C003049CDE90210CDE900894FF0FF33FA
:1029800052465946059815F0A5FF05004BD003F0B7
:1029900091FD10223946009015F078FE009880F8DD
:1029A0008C40254C4C30B4E88E17A0E88E1794E884
:1029B0008E11A0E88E1154F8241D40F884190021CE
:1029C00080F89010C686284603F074FD0190B0F997
:1029D000381019B9C06C05F09BFA01460198C26A1B
:1029E000B0F98030126801EB4301561817F0C4FEAD
:1029F000074601A803F0F6FD32463946284617F08F
:102A0000C1FA684603F0EEFD03F051FE0646284683
:102A100003F050FD0090C663684603F0E3FD2068B4
:102A200041682846884707F02DFB09B02846BDE8D5
:102A3000F08F0000E1260008F8030020002808BFFE
:102A40007047F8B50D46064600F080FA854228BF6B
:102A5000F8BD05F03FFB304603F02CFD0090D0F8A8
:102A60008840C06B294603F054FE684603F0BAFD67
:102A7000304616F035FE1CB1294620460CF006FA09
:102A800007F000FBF8BD00002DE9F041044688B0D6
:102A9000006803F00FFD0690468ED0F8885006A817
:102AA00003F0A0FD002D18BF012506F001062068E7
:102AB00018F038F8002D18BF00200FD07D4951F8CC
:102AC00020506068002800F0EE80022800F0CE80E0
:102AD00005280CD012287DD000F0E8B8002E18BFD1
:102AE0000120EBD1002814BF02200320E6E7D5E93E
:102AF0000123A86A29688DE80F0004F110000FC8AF
:102B000008F000F95FF0000655F8260006F0D3FE45
:102B1000A169A86A0A1A216901446069304404F075
:102B20004FFFA169A86A0A1A21690144E069801B64
:102B300004F046FFE169A86A0A1A61690144206944
:102B4000304404F0D9FFE169A86A0A1A61690144B6
:102B5000A069801B04F0D0FF761C022ED4DBA86A8B
:102B600002281BDDA86806F0A6FEE169A86AD4F871
:102B700010C00B1A0CEB00014A1E616901440CF1F4
:102B8000020005F033F8E169A86AA2690B1A6169CD
:102B90000144101A401C921E05F028F8D5E90301E3
:102BA000CDE90001E1696069A26901444B10A96A9D
:102BB000D4F810C0521A8C44811C604604F0F6FD13
:102BC000D5E90501CDE90001A069AB6A6169C21AC6
:102BD000E06900E019E001444FF0010C0CEB6101E9
:102BE000D4F810C09C44831E604604F0DFFD686A80
:102BF00006F061FEE2696169A369501A181A401C67
:102C0000091D121F04F078FF50E0206803F052FC09
:102C10000090B0F88060B0F98280C76C684603F01D
:102C2000E1FC208AB11C0844ADF80800A08A801C91
:102C3000ADF80A00A08BA18A401A218B891B081AC3
:102C4000C01EADF80C00A08B801EADF80E00022057
:102C500006F0D4FE384606F045FE286A06F02BFE44
:102C6000424602A9206A04F00DFB1FE06169E06999
:102C70004FF0FF32401AA0F1080102EB6106411C3F
:102C8000A269801B4410A2EB6107E86906F013FEFD
:102C9000002E0BDBBA19B91B204604F091FE641C10
:102CA000761EF7D502E0206817F0CCF808B00020B7
:102CB000BDE8F081882E0708002808BF70472DE97D
:102CC000F04F9DB0064605F005FA304603F0F2FBE2
:102CD0000E90304616F0BCFB82460E98B0F9367066
:102CE00090F89010099190F88C80D0F83C90B0F951
:102CF00034000690484603F047FD04460E98B0F8AD
:102D00008E100C91B0F982100791C16C0891D0E936
:102D10000012CDE90412D0F89450016D1091416D6C
:102D20001191816D1291C16D1391016E1491416EDB
:102D30001591016F1691416F1791806F18900EA831
:102D400003F050FC304616F0BDFA03F0B3FB0D90D3
:102D5000D0F800B00DA803F045FC4FEA2B404242EA
:102D60000FFA8BF0414204A806F0D4FB18F0020FD2
:102D70001ABFBDF81200C01BBDF81600ADF8120056
:102D8000304616F09FFA0221CDF800A0CDE901717E
:102D90000146BDF91230BDF9102000200BF0FDFFF7
:102DA000074618F0010F07D0384609990CF0B1FB1F
:102DB000012138460CF0BEFA4FF00008002C0BD968
:102DC0004146484603F0ECFC014638460BF01AFD3C
:102DD00008F101084445F3D800240DF1400800BF74
:102DE00058F82420214638460CF0D1FA641C032CF4
:102DF000F6D300240DF14C08214658F8242038461B
:102E00000CF0ADFC641C032CF6D300240DF1580823
:102E1000214658F8242038460CF059FB641C032C3A
:102E2000F6D315B3284603F045FB0F9030F8028B1C
:102E300000240546B8F1000FC8BF4FF0010911DDAD
:102E400005EBD40004F00701007809FA01F108420B
:102E500014BF01220022214638460CF0CEFA641C31
:102E60004445EDDB0FA803F0BDFB38460C990CF090
:102E7000FEFA384608990CF0A5FA384607990CF086
:102E800057FC384616F0FCFE314638460CF008FB7D
:102E9000384606990CF05CFB0121304616F0F0FC38
:102EA000304603F007FB0E90C0F888700EA803F0C0
:102EB00099FB07F0E7F81DB0BDE8F08F2DE9F0436E
:102EC00083B01D4617460C4606004FF0010818BF98
:102ED000002D35DD05F0FEF8304603F0EBFA0190E9
:102EE000C06B03F051FC844225D2A1463046002439
:102EF00003F0E0FA0290C06B494603F051FC06462D
:102F000002A803F06FFB1EB1304603F0D3FA04466B
:102F1000200000900FD0FDF74EFA0446A84213DCC3
:102F200038460099FDF769FA00203855684603F0E5
:102F300059FB4FF0000801A803F054FB07F0A2F87A
:102F400003B04046BDE8F0832C46E9E738B50500FC
:102F50004FF000040DD005F0BDF8284603F0AAFAA2
:102F6000009000F0F7F90446684603F03BFB07F0D9
:102F700089F8204638BD38B505004FF000040CD064
:102F800005F0A8F8284603F095FA0090B0F934400F
:102F9000684603F027FB07F075F8204638BD0000AF
:102FA000042928BF70472DE9F001084A52F8211082
:102FB00091E8FC1180E8FC11D1E90823896A0262DA
:102FC000C0E90931BDE8F00170470000882E07080C
:102FD000002814BF002970472DE9F04383B015463F
:102FE0000E46074605F076F83846FFF7AFFF8146F4
:102FF000384603F05FFA0090D0F83C80D0F8884063
:10300000684603F0EFFA4D451BD23046FDF7D3F981
:10301000421C2946404603F0FEFB40B103F04AFA49
:1030200031460190FDF7E9F901A803F0DBFA3846D3
:1030300016F056FB74B12A46314620460BF085FF48
:1030400008E031463846FFF72CFB1CB131462046DC
:103050000BF061FB07F016F803B0BDE8F083002821
:1030600008BF7047F8B50E46044605F033F8204611
:1030700003F020FA009090F88C10D0F8885021F0DE
:103080000104002E18BF44F00104A1420BD080F8C7
:103090008C40684603F0A6FA45B104F001012846C9
:1030A0000CF048F902E0684603F09CFA06F0EAFFEB
:1030B000F8BD0000044A0349116004490A6B086323
:1030C0001046704730040020F4030020F80300206D
:1030D000002808BF7047F8B50C46074604F0FAFF11
:1030E000384603F0E7F90090D0F88850C06C04F03F
:1030F0000FFF06460098C464684603F073FA38462A
:1031000000F006F9384616F0EBFA75B1204604F0E7
:10311000FFFEB04205D03846FFF7E0FB3846FFF728
:10312000CBFD214628460CF04DF906F0ABFFF8BD6B
:10313000002808BF70472DE9F04F87B091460D4633
:10314000824604F0C7FF504603F0B4F90090D0F86F
:103150009440C06B03F018FB86B2684603F042FA55
:10316000B5426AD205F108004FF0020B6E1C0BEB62
:10317000D000B7B20390002C34D0204603F09AF967
:103180000190B0F8008001A803F02CFAB0453DD2C0
:10319000039803F03BF8060038D003F08BF9029057
:1031A000204603F087F90146059008F107000BEB74
:1031B000D0020298FDF7A3F805A803F013FA0298CD
:1031C0000780204603F042F8504603F073F9009060
:1031D000C0F89460684603F005FA02A803F002FA0A
:1031E000344613E003F012F8040026D003F062F92D
:1031F0000190078001A803F0F5F9504603F05AF951
:103200000090C0F89440684603F0ECF9204603F0C3
:1032100051F905F00701012202FA01F10490801C26
:1032200000EBD500B9F1000F027814BF114322EA78
:103230000101017004A803F0D5F906F023FF07B0DF
:10324000BDE8F08FF8B50C4605004FF0000618D029
:1032500004F040FF284603F02DF90090B0F93660E5
:10326000D0F88850C486684603F0BCF93DB12846C2
:1032700016F0EEF801462246284616F083FE06F0C8
:1032800001FF3046F8BD38B50C46050008BF38BD13
:1032900004F020FF284603F00DF90090C06B03F006
:1032A00073FA002818BF401E844216DC0098B0F95B
:1032B0003410A1420BD08486684603F093F9284667
:1032C00016F00EFA0421284616F0DAFA02E06846F3
:1032D00003F088F906F0D6FE38BD0446E6E70000A4
:1032E000042928BF70472DE9F001084A52F821103F
:1032F00090E8FC1181E8FC11D0E90823806A0A6299
:10330000C1E90930BDE8F00170470000882E0708C8
:10331000F8B5044603F0CEF801460090B0F9380045
:10332000002804BFC86C04F0F3FD0099CA6AB1F923
:103330008030126800EB43001518084617F01CFA9D
:103340000646684603F04EF92A463146204616F0F6
:1033500019FEF8BDC06B03F017BA38B50D4600244E
:1033600003F0A8F80090C06B294603F019FA05464F
:10337000684603F037F91DB1284603F09BF8044670
:10338000204638BD70470000F0B5ADF52F7D0446EE
:103390000E4600270022214623A826F0B3F9054651
:1033A00015B10DF52F7DF0BD224620A101A821F019
:1033B00047FB01A919A826F0B1FA054605B1F0E7C7
:1033C00009A8179020201890002700BF11A919A85C
:1033D00026F0BEFB054615B99DF84D0000B922E068
:1033E0009DF84D002E2800D11BE09DF84C0010F0F8
:1033F000100F15D131460DF14D00FCF7BEFF28B17D
:103400000DF14D0026F02CFC054600BF3146179803
:10341000FCF7B3FF20B1179826F022FC054600BF49
:1034200000BF7F1CD2E700BF00BFBAE725732F00A3
:1034300010B50248006815F043FB10BDE000002005
:1034400010B50248006815F03BFB10BDE4000020F9
:1034500088B0182102A8FCF779FF002001900090A5
:103460000024002700BF80464FF001090025824656
:1034700000267BE06946002025F064F9002861D031
:103480009DF80000C92806D19DF800008DF80800BD
:103490004FF00109012548E06946002025F052F966
:1034A000002842D0062D3FD2DFE805F03E030D1381
:1034B000212C9DF80000DB2803D19DF800008DF839
:1034C0000900022530E09DF800008DF80A00032570
:1034D0002AE09DF80010E01C02AA1154601CC4B23E
:1034E0009DF80A00801CA04200DC04251CE09DF829
:1034F0000000E82804D19DF80010E01C02AA115435
:10350000052511E09DF80000B22804D19DF80010B7
:10351000201D02AA115400259DF80A00C01D00F0CC
:10352000FF08A946002400BF00BFB9F1000FB3D1C6
:103530000F4840780E49097840EA012A414602A81E
:103540002AF0ACFB0A4840780949097840EA01268C
:10355000B24508D0B246032701208DF8040001A926
:10356000384625F015F90A202AF0A6FD82E700006A
:103570002A00002070B5ADF51E7D20216846FCF7BD
:10358000E5FE0026234924A014F088FDC6B230468B
:1035900028F02AF9012200210846FEF71BFE00222E
:1035A0001DA112A826F0AEF805461DB100200DF5AC
:1035B0001E7D70BD18A219A1684621F041FA694626
:1035C00008A826F0ABF905460DB10020EFE700246E
:1035D00017E0104800EB04130FA211A1684621F078
:1035E0002FFA01226946114826F0BCF805460DB1B4
:1035F0000020DCE720460DF0FBFF0C4825F0AEFF75
:10360000641CB442E5D3002203A1104626F07AF8E8
:103610003046CCE7F8190020323A000025732F001D
:1036200025732F25732E747874000000680E002017
:10363000002808BF70472DE9F04F91B00E460446B0
:1036400004F048FD204602F035FF039090F854A0A6
:10365000D0F83490876DC56C03A802F0C3FF27B182
:1036600031462046B84700F0B8B901274FF00008AE
:10367000122E75D006DC082E73D0102E72D0112EAB
:103680003DD006E0132E70D01D2E00F0F3801E2ECC
:103690006AD0202EC0F2A181BAF1000F00F00181A2
:1036A000204602F007FF0590D0F834A0D0F84C90E7
:1036B00005A802F097FFBAF1000F00F0F280504623
:1036C00002F0F8FE82464946069006F0B5FB8146B8
:1036D0005046FCF770FE484540F2E080D144484631
:1036E00006F056FB09EB00014846FCF786FE06A8EB
:1036F00002F078FF0521204616F0C2F8D1E0B9F1BA
:10370000000F00F06A81484602F0D4FE06462946C2
:10371000049006F091FB0644304606F029FB05466E
:10372000CDF8088006F052FB0746681C1FFA80F8A7
:10373000404606F04BFB0546AF420CD1414602A87D
:1037400006F004FB2A4602A93046FCF7D8FD052105
:10375000204616F095F804A802F044FF00F03DB9A9
:103760002FE03AE033E000E059E0B9F1000F00F05B
:103770003481484602F09EFE06462946049006F033
:103780005BFB0644304606F0F3FA0546CDF80880A8
:1037900006F01CFB8046681E87B2384606F016FB12
:1037A0000546A845D7D1394602A806F0CFFA2A46E1
:1037B00002A93046FCF7A3FD0521204616F060F86B
:1037C000C9E7691C204600F06BFD00F006B9691ED0
:1037D000204600F065FD00F000B9002D00F0FD80EE
:1037E000691E204600F05CFD204602F063FE019059
:1037F000C76C456B01A802F0F5FE002D00F0ED80CE
:10380000284602F057FE06463946029006F014FBA1
:1038100005463046FCF7CFFDA84229D918E02046DE
:1038200002F048FE0190C76C456B01A802F0DAFE79
:10383000002D7CD0284602F03DFE06463946029017
:1038400006F0FAFA05463046FCF7B5FDA8420FD956
:103850003544284606F09CFA29182846FCF7CDFD89
:1038600002A802F0BFFE0521204616F009F8B4E0D8
:1038700002A810E0204602F01DFE0390BAF1010FED
:1038800008BF80F8548005D080F85470294620463F
:1038900000F006FD03A802F0A5FE9EE006A802F0D7
:1038A000A1FEB0B20890204602F004FE0646029047
:1038B000B0F93800002813DD706B4FF0000940B1FB
:1038C00002F0F8FD009007F08FFD8146684602F097
:1038D00089FEB6F9381009F101008842C8BF474691
:1038E0000298C06C099002A802F07CFE002F74D0F0
:1038F000089806F06BFA074626464FF00009204666
:1039000002F0D8FD0590406B40B102F0D3FD0A9063
:10391000FCF751FD81460AA802F064FE059907EB09
:103920000900498F401A00F1010905A800E054E0A0
:1039300002F058FEB9F1000F2ADD304609F11009F6
:1039400002F0B8FD0090D0F834B0408F00EB090AC7
:10395000684602F047FE5146584602F0C1FD5FEA54
:1039600000093AD0BBF1000F07D102F0A3FD0D9082
:1039700080F800800DA802F035FE304602F09AFD76
:103980000090A0F83AA0C0F83490684602F02AFEF1
:10399000204602F08FFD0290466B02A802F022FE44
:1039A000304602F087FD06460F90099906F044FA6A
:1039B00006443046FCF7FFFC421CF0193146FCF788
:1039C0009EFC3046089906F0C1F90FA802F00AFEE5
:1039D0000521204615F054FFF3E6204615F080FE41
:1039E00006F050FB11B0BDE8F08F70B54568044695
:1039F00082B0284617F096F806462146284614F06D
:103A000005FC002804BF02B070BD20680F2844D018
:103A100004DC0B2847D00E2850D066E0A0F580705B
:103A2000133804D0A0F580702D381FD05DE02846F3
:103A300016F008F8284602F03DFD009090F8561068
:103A400081F0040180F85610684602F0CBFD002199
:103A500028461FF0A7FB284602F02CFD0090D0F866
:103A60008400002115F0D3FF684624E0E06878B1B7
:103A7000017A41B10168284600F039F90121284650
:103A800015F0FEFE31E00221284615F0F9FE2CE08B
:103A90000321284615F0F4FE27E0012128461FF0F7
:103AA00081FB02B070BD284602F004FD0190343065
:103AB00002F002FC01A802F095FD16E0AEB1E0684C
:103AC0004168002911DD01681B290ED009DC092994
:103AD0001CBF0A290D2908D02846FFF7A9FD02B00E
:103AE00070BD212918BF2229F6D1204614F0AEFF5F
:103AF00002B070BD70B5044686B0D4E9056CB0F96B
:103B00000850408A0DF1080E8EE861100020CDE9C2
:103B10000010B4F90C00B4F91050C118B4F90A003F
:103B2000B4F90EC010442B46624600F009F80500B7
:103B30001CBF618A00F056FB284606B070BD00002D
:103B40002DE9FF4F85B09846DDE91654DDE9126B8B
:103B500091468A46159F04F0BDFA04F16001314A8E
:103B600003914BF480500096CDE9010243464A464A
:103B70005146059814F0AEFE04004DD002F09AFCB8
:103B800010223946049014F081FD2748049990E8EA
:103B9000CC1701F1600B8BE8CC17006AC1F88000EC
:103BA000012081F85500681C18BF012081F88800A9
:103BB000002DD8BF082528B2088700254D87461C50
:103BC00004A84D6302F00EFD204602F073FC009045
:103BD000476B408F00EB0608684602F003FD414644
:103BE000384602F07DFC060012D037B902F062FCC4
:103BF0000190057001A802F0F5FC204602F05AFC85
:103C00000090A0F83A804663684602F0EBFC03E0BF
:103C1000204614F055FF002406F034FA09B020467F
:103C2000BDE8F08FEB390008EC04002010B504006B
:103C30002DED028B82B09FED118A19D004F04AFA63
:103C4000204602F037FC009090F844100C4AD0ED6A
:103C5000120A684652F82110F8EEE00A00EE101A37
:103C6000B8EE400A80EE808A02F0BCFC06F00AFA48
:103C700002B0B0EE480ABDEC028B10BD000000009F
:103C80003C320708F0B583B016460D00044612BF5B
:103C9000002C03B0F0BD04F01DFA204602F00AFC2F
:103CA000002701902F70406BA8B102F003FC009038
:103CB00007F09AFB0146009806F0BEF80446701E15
:103CC00084420FDC224628460099FCF718FB684620
:103CD00002F088FC2F5501A802F084FC06F0D2F90E
:103CE00003B0F0BD0446EDE78C2316F027BD002895
:103CF00008BF70472DE9F04186B00C46074604F036
:103D0000E9F9384602F0D6FB0090406B002849D014
:103D100002F0D0FB03900098806E05F0E3FD804632
:103D2000384615F095FB0646039804F0C7F805469B
:103D3000009890F8601001F00301012918D00229C1
:103D40000FD0416EC06A00680844201A441E0398D0
:103D500007F04AFB002C11DA0021384600F0A0FAE7
:103D600017E0701B401C00EBD070A4EB6004EEE782
:103D7000406E711B081A201A441CE8E7A54204DBB8
:103D800002462146039807F0C3FA0146384600F080
:103D900087FA03A802F026FC404605F0A3FD38464A
:103DA00015F09EFC684602F01DFC06F06BF906B0AB
:103DB000BDE8F0812DE9F8431D46DDE908691446A8
:103DC0008846074604F086F9002F5FD0384602F097
:103DD00071FB3049009081652F49C1650021C0E920
:103DE0001281C0E90F4580F8446080F856900121A7
:103DF00080F8541090F88880684602F0F3FBB8F120
:103E0000000F2AD0002DAEBF012002206D42234BAF
:103E10000A2D07DB83FB05218A10A2EBE175401C0C
:103E20000A2DF7DA002CBABF0221644201210A2CC4
:103E300009DB00BF83FB04C24FEAA20CACEBE274C7
:103E4000491C0A2CF6DA002E1CBF401C491C884273
:103E5000C8BF0146384600F0A9F8384620F0BEFB3E
:103E6000384602F027FB009000F005FA0C4909786B
:103E7000884205D10098C06C411C384600F010FA09
:103E8000684602F0AFFB384615F02AFC06F0FAF857
:103E9000BDE8F883D9BD0108DD450208676666669E
:103EA0006C02002000000000002808BF70472DE9C8
:103EB000F04116462DED068B82B00C46F0EE418A9D
:103EC000B0EE60AAB0EE409A074604F003F9284825
:103ED00050F8240000EE100AB8EE408A28EE090AD5
:103EE00010EE100AFCF7B8FC9FED239B53EC192B46
:103EF000FCF7E1FA41EC100B20F0D6FD51EC100B71
:103F0000FCF772FC28EE0A0A054610EE100AFCF7D0
:103F1000A3FC53EC192BFCF7CEFA41EC100B20F06C
:103F2000C3FD51EC100BFCF75FFC28EE280A80461D
:103F300010EE100AFCF790FC53EC192BFCF7BBFABF
:103F400041EC100B20F0B0FD51EC100BFCF74CFCD9
:103F5000CDE900460346424629463846FFF72AFF88
:103F600002B0BDEC068BBDE8F04106F08BB8000056
:103F70003C32070800000000000000000000E03FA5
:103F8000002808BF704738B50C46054604F0A2F873
:103F9000284602F08FFA00908466284615F0A0FBB0
:103FA000684602F01FFB06F06DF838BD002808BF18
:103FB00070472DE9F04385B00C46054604F08AF8B9
:103FC000284602F077FA0090B0F93810468F4FF08B
:103FD0000008A14245D012DD406B80B102F06AFAC0
:103FE000019007F001FAA04206DD2146019805F094
:103FF00023FF019901F8008001A802F0F3FA684656
:1040000002F0F0FAA01B461C284602F053FA029078
:10401000D0F83490408F871902A802F0E3FA3946AD
:10402000484602F05DFA060013D0B9F1000F07D13F
:1040300002F040FA039080F8008003A802F0D2FA60
:10404000284602F037FA02904787466302A802F03A
:10405000C9FA284602F02EFA00900487284615F087
:104060003FFB684602F0BEFA06F00CF805B0BDE86A
:10407000F0832DE9F04F87B08A4605004FF0000825
:1040800004BF07B0BDE8F08F04F024F8284602F022
:1040900011FA0090B0F93870446B684602F0A2FA49
:1040A0000026BAF1000F7ED054B1204602F002FA89
:1040B0000190FCF780F900F1010801A802F092FAE2
:1040C000504607F091F90446B8426DDC214650464F
:1040D00005F0B2FE471CA7EB08094FF00008284680
:1040E00002F0E8F90390406B40B102F0E3F905906B
:1040F000FCF761F9804605A802F074FA039909EB10
:104100000800498F401A00F1010803A802F06AFA7A
:10411000B8F1000F2ADD284608F11008049502F0D6
:10412000C9F90290D0F834B0408F00EB080902A81A
:1041300002F058FA4946584602F0D2F95FEA000800
:1041400046D0BBF1000F06D102F0B4F9069006701C
:1041500006A802F047FA049802F0ACF90290A0F821
:104160003A90C0F8348002A802F03CFA284602F0E7
:10417000A1F90090406B02F09DF93A46514601903A
:10418000FCF7BDF80198384400F8016C0098C4644D
:10419000B0F938108C4201BF90F854100129611E0B
:1041A000C16401A801E006E01AE002F01BFA6846CB
:1041B00002F018FA0CE0284602F07CF90090343046
:1041C00002F07AF800984687C664684602F00AFA58
:1041D000284615F085FA05F055FF07B0BDE8F08FC9
:1041E0003C4673E7002808BF704738B50D460446C3
:1041F00003F070FF204602F05DF9009018B10566EB
:10420000204615F06DFA684602F0ECF905F03AFF29
:1042100038BD8C2316F084BE38B505000C4608BFA7
:1042200038BD03F057FF284602F044F90090C16BF7
:10423000A1421CDC016CA1421BDB816CA14210D0AD
:104240008464C16D00291CBF28468847284615F0A4
:1042500047FA684602F0C6F90521284615F010FB1A
:1042600002E0684602F0BEF905F00CFF38BD0C46CE
:10427000E0E70C46E1E738B50546406B002468B13D
:1042800002F018F900900446E96C05F0D5FD2044D1
:1042900005F06EFD0446684602F0A4F9204638BDDC
:1042A00010B582B00C4602F005F90090406BE8B101
:1042B00002F000F9019007F097F8009991F8542066
:1042C000002A18BF0122002C15DB844215DC00BF38
:1042D000B1F93800801AA04211DBC86CA04218BFA7
:1042E000CC640020086501A802F07CF9684602F061
:1042F00079F902B010BD0024E7E70446E8E7B1F918
:104300003800841AE9E7000010B5802000F05CF85E
:1043100090B10A48006820F0800008490860012038
:104320000749487007480068012121EA1020044924
:104330000870802000F008F810BD0000003C01402B
:104340002800002010040240014908607047000066
:10435000143C014000B585B0012102200DF02AFB7C
:10436000012188030DF066FB8020039000208DF86A
:1043700010008DF8130003A9124801F081FA0721FB
:1043800001200FF04FFC8020019000208DF80800E4
:104390000C208DF8090001208DF80A0001A800F01A
:1043A0001FF817208DF800000F208DF801008DF800
:1043B000020001208DF8030068460DF083FA05B075
:1043C00000BD00000004024001460020034A1268BC
:1043D0000A4201D0012000E000207047143C014057
:1043E000002123498279002A3AD00A4612680368DC
:1043F0009A430B461A600A1D126803689A430B1D04
:104400001A60027911440A6803681A430A60184A5C
:104410000832126803689A43154B08331A601A1D54
:10442000126803689A43124B0C331A604279102ABF
:104430000ED11A1F126803681A430D4B08331A6015
:104440001A1D126803681A43094B0C331A600DE0F9
:104450000749427911440A6803681A430A6005E073
:10446000027911440A6803689A430A6070470000A1
:10447000003C014010B5024600200023102A03D161
:104480004FF02044636E0DE0B2F5807F02D1094CFD
:10449000236807E0B2F5805F02D1074C236801E092
:1044A000064C236803EA01048C4201D0002000E09E
:1044B000012010BD840000A0A40000A0580100A0AD
:1044C0000021D0E900231A4383685B1E42EA4312AD
:1044D000C36842EA4321014A11607047500100A0BD
:1044E00070B500220021002300244FF0204605680B
:1044F00006EB8505D5F840216FF30E02D0E9015691
:104500003543C66835430669354346693543866990
:104510003543C6693543066A3543466A35432A43FF
:1045200005683DB94FF02046056806EB8505C5F8DE
:10453000402115E03E4D2B686FF30E03D0E907567E
:1045400045EA0605466A45EA060545EA0303384D8D
:104550002B604FF02046056806EB8505C5F8402125
:10456000056875BB324D0835066855F8261001F010
:104570007041856A2D686D1E866A7668761E45EAEA
:104580000616856AAD686D1E46EA0526856AED68E1
:104590006D1E46EA0536856A2D8A6D1E46EA054679
:1045A000856AAD8A6D1E46EA0556856A2D7E6D1EAA
:1045B00046EA056529431E4D0835066845F826106C
:1045C00034E0FFE71A4D0835066855F8261001F06B
:1045D0007041856A2D686D1E866A7668761E45EA8A
:1045E0000616856AAD686D1E46EA0526856A2D8A1F
:1045F0006D1E46EA054529430E4D2C6804F07044B3
:10460000856AED68A5F101054FEA0536856AAD8A30
:10461000A5F1010546EA055545EA04044FF0204599
:10462000C5F84841034D066845F8261070BD0000E6
:10463000400100A0480100A00449096841EA400186
:104640004FF02042C2F8541170470000540100A0FE
:104650002DE9F047446805468EB04FF0000820462B
:1046600001F028FF0090B0F87CA0D0F86890D0F856
:104670008070D0F88860C06D002818BFD0F8008026
:10468000684601F0AFFF56B1716828468847002898
:104690001CBF0EB0BDE8F0873668002EF4D1286844
:1046A000172802BFC5F80C900EB0BDE8F08713DCE8
:1046B0000F2844D00ADC0B2800F053810D2808BFD6
:1046C0001AF0080F00F0F68000F054B9112814D049
:1046D000142870D000F04EB926286DD006DC1E28B4
:1046E0006BD0202800F0F08000F044B92A2818D0C0
:1046F000B0F5107F2AD000F03DB92046EE6801F0F9
:10470000D9FE0190717A002904BF317A012905D1BF
:10471000B0F87C1041F48071A0F87C1001A800F082
:10472000FDB8204601F0C6FE0090E968002912BFDE
:10473000C0F88410D0F88400E860684649E0B8F119
:10474000000F1CBF2046C04700F014B92746204682
:10475000EE6801F0AFFE0190B0F87C4001A801F0D6
:1047600041FFE868002804BF0EB0BDE8F087307A4A
:1047700020B314F0080F04BF384615F081FA38460C
:1047800014F000F814F0100F12BF14F4807F0EB074
:10479000BDE8F087002314F0800F1CBF0EB0BDE809
:1047A000F08779483146B0F90020384615F0F4F921
:1047B0000EB0BDE8F0870FE018E024E0384601F0C5
:1047C00079FE0190B0F87C1021F48071A0F87C1083
:1047D00001A801F007FFEBE705A9204600F079FCEE
:1047E000DDE90612E86801604260E1E7E868022856
:1047F000DED10C94E8680D9027200A900AA9A868D9
:1048000016F050FBD4E7E868012819D0002CCFD06F
:1048100003F060FC204601F04DFE0190B0F87C10E2
:1048200011F0080F06D021F00801A0F87C102046F6
:1048300014F056FF01A801F0D5FE05F023FCB7E700
:10484000384614F0C1FF58B1384615F019FA384609
:1048500014F03CFE88B10121384613F0A2FD0CE0B3
:10486000484615F069FA0746204601F023FE0090FD
:10487000C0F88070684601F0B5FEB4B103F02AFCC0
:10488000204601F017FE0290B0F87C1011F0080FDE
:1048900006D141F00801A0F87C10204614F020FF5A
:1048A00002A801F09FFE05F0EDFB002F04BF0020E1
:1048B000E8607DE7E868C06800281FBF007A00282C
:1048C000204615F0DDF955E0EE684EB321467068DC
:1048D00016F000F900282746204622D001F0EAFD14
:1048E0000490B0F87C1011F0080F06D141F00801D7
:1048F000A0F87C10384614F0F3FE04A801F072FE14
:104900002146706816F0D2F850B1204601F0D2FD71
:1049100002907168C0F880100DF1080001F062FE8D
:1049200028E001F0C7FD0490B0F87C1011F0080FEA
:1049300006D021F00801A0F87C10384614F0D0FE13
:1049400004A801F04FFE2146306816F0AFF888B198
:10495000204601F0AFFD02903168C0F8801002A837
:10496000DCE7204601F0A6FD0090703001F0A4FCC9
:104970006846D3E72946204613F048FC00281CBFB0
:10498000284614F063F813E71005002070B588B0CE
:10499000B0F908400DF10C0E0C9ED0F818C0456817
:1049A0008EE87010B0F812C00024CDE90014CDF8E4
:1049B00008C0B0F90C10B0F91040B0F90EC0B0F951
:1049C0000A00194410442346624600F003F808B078
:1049D00070BD00002DE9FF4F8BB09946DDE91885C9
:1049E000DDE91B6792468B461E9C03F073FB04F1C6
:1049F0006000444945F48055CDE90210CDE90085B9
:104A00004B46524659460B9813F064FF040073D08E
:104A100001F050FD30223146049013F037FE3A4E3B
:104A2000049A06F1080102F1340E91E80B1F8EE89A
:104A30000B1FD6E90A01C2E915011D9850661A98A4
:104A4000A2F87C004FF00008C2F88080C2F86C80A9
:104A5000C2F888807068D06504A801F0C3FD05A97C
:104A6000204600F036FB294841F28271CDF80C80D7
:104A70000094CDE90110BDF91E00BDF91A10BDF971
:104A80001C20401A431CBDF91800121A521C13F0C6
:104A900021FF80467068416820468847204601F023
:104AA00009FD0490C0F8688004A801F09BFD42F263
:104AB0000400054204BF204614F0D0F803F00AFBBE
:104AC000204601F0F7FC0090006F0190684601F06D
:104AD00089FD394601A806F029FE58B1204601F0AB
:104AE000E9FC009001990167684601F07BFD2046D2
:104AF00014F0F6FD05F0C6FA05F0C4FA0FB0204632
:104B0000BDE8F08F51460008100500208D540008C4
:104B10002DE9F041044698B0006800F0BDF9002886
:104B200014BFDB4DDB4D6068152802BFA86A18B0C2
:104B3000BDE8F08112DC0B282AD007DC002800F049
:104B40009281052800F02C8100F09DB90E2800F01C
:104B50007781122800F03B8100F095B9162802BF3A
:104B6000E86918B0BDE8F081172802BF286A18B0BC
:104B7000BDE8F081182802BF686A18B0BDE8F0816E
:104B80001C2802BF686918B0BDE8F08100F07BB94D
:104B900020680E901C200F90206801F08BFC039081
:104BA000016D0EA88847064603A801F01BFD022EE2
:104BB00011DBD5E90001AA680292CDE90001D4E930
:104BC00004023346A16905F09BFF20698719A0699B
:104BD000A0EB06082CE0286804F06DFE2169E86966
:104BE0000844421E606902F0EBFEA269E869101AEF
:104BF000411C606902F0E4FE6069471C3946206987
:104C000002F00AFF3946A06902F006FF686804F066
:104C100052FE20693946401C02F0FEFEA06939466A
:104C2000401E02F0F9FE2069871CA069A0F102086D
:104C3000286804F040FE42463946606902F0C0FE32
:104C4000686804F038FE606942463946401C02F04C
:104C5000B7FE686A02287DDDA86804F02CFE606952
:104C60006A6A811C1044431E4246384602F0BEFF69
:104C70006069022EACBF0644861CE069471E2868A6
:104C800004F019FE3A463146206902F035FF3A46F3
:104C90003146A06902F030FFE069871E686804F0C1
:104CA0000AFE20693A463146401C02F025FFA06901
:104CB0003A463146401E02F01FFFE8690228DCBF79
:104CC000286A022820DDA86A0228C7BFE1690F1AF6
:104CD000E069871EA86804F0EEFDE969022907DD96
:104CE00022693B46901C11444A1E314602F07EFF69
:104CF000286A022808DDA169E8698A1E081A3B466D
:104D00003146401C02F072FF286804F0D4FDD4E95B
:104D10000620216902F054FE686804F0CCFDA06909
:104D2000421E2069411CE069401E02F049FEA86A4B
:104D300002284BDD21698E1CA1698F1EE169081ACA
:104D4000441CA1F10208A86804F0B5FD43463A46A8
:104D5000214600E003E0304602F048FF93E0296A74
:104D6000B14285DD6069022E00F10208ACBF8719EF
:104D700047462069ACBF3044801C22693B46114441
:104D8000A1F10102414602F031FFA069022EACBF41
:104D9000821B821EE9693B46401A4146401C65E77A
:104DA000208A00B2ADF81800A18A09B2ADF81A1035
:104DB000228B12B2ADF81C20A38B1BB2ADF81E30B3
:104DC000D5E9034CCDE9004C02F0F0FC5BE0208A11
:104DD000298B0844ADF81800A08AADF81A00208B82
:104DE000298B401AADF81C00A08BADF81E0020687E
:104DF00001F060FB0390006FF0B1022004F0FEFDB3
:104E0000039991F87C00C0F3C00001EB8000006CB6
:104E100004F051FD0398406B04F064FD0398006FAB
:104E200001F048FB03990A90B1F95A2006A902F053
:104E300029FA0AA801F0D6FB03A801F0D3FB22E06F
:104E4000208AADF81800A08AADF81A00208BADF8C2
:104E50001C00A08BADF81E00A86804F02CFD06A86D
:104E600002F0F0FE0FE0206801F024FB0390B0F8A0
:104E70005A1041F00C01A0F85A1003A801F0B2FB3F
:104E8000206814F0DFFF18B00020BDE8F0810000BA
:104E9000E00600200C07002038B505004FF00004A4
:104EA00010D003F017F9284601F004FB009090F8A9
:104EB0007C0010F0080F18BF0124684601F092FB37
:104EC00005F0E0F8204638BD002808BF704738B527
:104ED0000C46054603F0FEF8284601F0EBFA009078
:104EE000816CA14203D08464806E14F0F9FB6846A3
:104EF00001F078FB05F0C6F838BD2DE9F04182B02D
:104F00000E46054603F0E6F8002D29D0284601F0AC
:104F1000D1FA0190C16D8C6800F07FF907460198C5
:104F2000466301A801F05EFB2268012128469047F4
:104F300006462368032128469847804622680021B8
:104F4000284690470446284600F065FA4346324614
:104F500039462846009400F0DFF9284614F0C0FBDB
:104F600005F090F802B0BDE8F081002808BF704756
:104F700030B583B00D46044603F0ACF8204601F08E
:104F800099FA0090006F0190684601F02BFB2946CA
:104F900001A806F0CBFB58B1204601F08BFA009037
:104FA00001990167684601F01DFB204614F098FB4B
:104FB00005F068F803B030BD002808BF704738B569
:104FC0000C46054603F086F8284601F073FA009077
:104FD000B0F95A10A14204D0A0F85A40284614F063
:104FE0007FFB684601F0FEFA05F04CF838BD00285A
:104FF00008BF704738B50C46054603F06BF82846E5
:1050000001F058FA009004644464684601F0EAFA3A
:10501000284614F065FB05F035F838BD002808BFB8
:1050200070472DE9F04383B00C46804603F052F8F8
:10503000404601F03FFA0090428E002C114614BF0A
:1050400041F0200621F02006B2423AD04686404682
:1050500000F0E1F9009DEC690CB3204601F02AFA5A
:105060000190076AB0F90200B5F90210A0EB01093E
:1050700001A801F0B7FAB5F9560048450DD1A86E60
:10508000A0420AD095F8320010F0200F204602D03E
:1050900014F0F8FF01E014F027FA3C00DDD100988D
:1050A00090F87C0010F0400F08D016F0200F40461A
:1050B00002D014F0E7FF01E014F016FA404614F0B5
:1050C0000FFB684601F08EFA04F0DCFF03B0BDE888
:1050D000F0832DE9F04F00278DB00C468146BA468B
:1050E00001F0E8F90190C06D0121856848462A6801
:1050F000904780462A6803214846904707902A68CF
:1051000002214846904706902A6800214846904769
:105110000646019815F030FB0590019815F033FB19
:105120008346019890F8321001F02001002918BF41
:10513000B0F958A04FF0000506D0B0F954501DB991
:10514000406B02F0E7FE851C0198C06E10B114F0B0
:1051500097F9074625806780A4F804800799059889
:10516000401A06EB0A01401E294420813944E1809F
:105170000699ABEB0101491E6181A4F80C802082E5
:105180007019E681401E608201A801F02BFAB4F983
:105190000C70B4F910604D46484601F08BF906904A
:1051A000C16DD0F8008006A8D1F8089001F01AFA75
:1051B000D9F800200021284690478146284613F060
:1051C000B5FF050024D001F075F90790B0F9002073
:1051D0000FFA88F1B0F90430521A5B1AB0F90210D4
:1051E000A1EB284149450BD190F8280010F0800F21
:1051F00003D09642A8BF561E02E09F42D8BF5F1C54
:1052000007A801F0EFF9284614F04FF80500DAD1AD
:10521000A78126820DB0BDE8F08F10B501460020B1
:1052200091F8322012F0200F08BF10BDB1F95400E0
:10523000002818BF10BD486B02F06CFE801C10BD2A
:1052400070B58AB00E46044601F034F90990C06D7D
:10525000856809A801F0C6F90094002E08BF18203F
:105260000BD0012E08BF162007D0022E08BF152034
:1052700003D0032E08BF172000D10190696868464B
:1052800088470AB070BD2DE9F04383B017468846C1
:10529000814601F00FF90090C16D056868468C6881
:1052A00001F0A0F92268002148469047064648468A
:1052B00013F03CFF040004BF03B0BDE8F08301F02D
:1052C000F9F80190B0F900102AB2B0F90430891A47
:1052D0009A1AB0F90230A3EB2543B34211D190F8EA
:1052E000280010F0800F05D038688842A4BF481EFF
:1052F000386006E0D8F800009042DCBF501CC8F8C7
:10530000000001A801F06EF9204613F0CEFF040062
:10531000D5D103B0BDE8F0832DE9FF4F85B09A46A3
:1053200091460F46DDF848B0059801F0C3F80390A8
:10533000C16D8C68FFF771FF064603A801F052F9B2
:105340002268012105989047029022680321059860
:105350009047019022680021059890470546BE427B
:1053600004BF0298484506D10198504502BF5D45EB
:1053700009B0BDE8F08FF41B0027B846059813F07C
:10538000D5FE060004BF09B0BDE8F08F0198A5EB7B
:105390000B05AAEB000A0298A0EB0909304601F0C0
:1053A00089F80090806A10F0800F03D010F4007F1D
:1053B00006D025E010F4007F22D010F0800F1FD11E
:1053C00024B122461146304614F0A0FA009890F815
:1053D000280010F0800F06D004FB17A12A463046A3
:1053E0007F1C14F03EFA0098008D10F4007F07D067
:1053F00004FB08912A46304608F1010814F031FAFE
:10540000684601F0EFF8304613F04FFF0600C5D1B3
:1054100009B0BDE8F08F70B586B0064601F04AF8D5
:105420000590D0E91A4505A801F0DCF854EA05001A
:1054300004BF06B070BD69463046FFF74AFEACB106
:10544000BDF90620BDF90410204614F0D9F9BDF9C4
:105450000A00BDF90610401A421CBDF90800BDF94A
:105460000410401A411C204614F08CFD002D04BF8E
:1054700006B070BDBDF90600BDF90210421ABDF9B3
:105480000410284614F0BCF906B070BD2DE9F043B5
:105490000446406889B0054613F014FF814601F0C8
:1054A00009F80290D0F88080876C466E02A801F05F
:1054B00099F82068172862D008DC0E2850D00F28F1
:1054C00016D0142818BF152859D052E01E2829D00C
:1054D0001F283ED0222802BFE76009B0BDE8F08354
:1054E000312801BF0020E06009B0BDE8F08340E052
:1054F0006FF07040874204D0384608F0F7FB01F0A7
:10550000A9FB002E04BF09B0BDE8F083D4E9021264
:105510002068CDE90405CDE9061204A8B04709B01A
:10552000BDE8F083E068002804BF09B0BDE8F0835F
:10553000B8F1000F18BFA84505D0404614F0A0FBF5
:1055400009B0BDE8F083284614F0F6FB09B0BDE8C9
:10555000F0832146484612F059FE09B0BDE8F083B9
:10556000E0684168002904DD00680928EBD00A28BA
:105570000BD0002E1CBF2046C4F80490CED120468C
:1055800013F064FA09B0BDE8F083284614F022FC59
:1055900009B0BDE8F083000010B528F08FFC0022B0
:1055A00015A1104624F0AEF8002213A1134824F0F0
:1055B000A9F8134908700846007830B100220EA1FE
:1055C000104624F09FF8002010BD0EA10E4824F0D4
:1055D000A5F90B4908700846007830B1002206A1F1
:1055E000104624F08FF80020EEE7002202A11046BA
:1055F00024F088F80120E7E7323A000088170020FD
:1056000020000020323A2F00001300202DE9FC4139
:1056100007460D4600260024002000900190082037
:105620005A49086010204860402088600020C86007
:105630004FF48060086108460DF002F91020FCF775
:10564000C3FB044614B12046BDE8FC8150480088E5
:1056500000044E49086037204860402088600020E0
:10566000C8604FF48060086108460DF0E9F8372003
:10567000FCF7AAFB04460CB12046E5E74FF0FF30EB
:105680004449086008204860302088600220C860D3
:10569000002008610120486108460DF027F800202D
:1056A0003A49086033204860402088600020C86084
:1056B0004FF48060086108460DF0C2F83320FCF713
:1056C00083FB04460CB12046BEE709E04FF400100E
:1056D0000DF038F820B10DF0ADF84DF82600761C2D
:1056E0002D48006840F22A610842EFD008200DF0F2
:1056F00029F828B108200CF0E1FF04242046A3E794
:1057000002200DF01FF828B102200CF0D7FF022470
:10571000204699E720200DF015F828B120200CF044
:10572000CDFF062420468FE74FF400700DF00AF8F5
:1057300030B14FF400700CF0C1FF0724204683E71E
:1057400040F2FF500CF0BAFF00980006009901F4F7
:105750007F4140EA0120009901F47F0140EA1120D5
:10576000009940EA1160686001980006019901F40F
:105770007F4140EA0120019901F47F0140EA1120B4
:10578000019940EA1160286020465DE790410020C1
:1057900064000020A4410020342C01402DE9F04396
:1057A0000446C56887B017468846002004F08EF886
:1057B0000646002D1BBF2879002826F0020046F07F
:1057C000020004F083F82069012568B1D4E90212CF
:1057D0000091CDE901250395D0F800C063882288A7
:1057E00039464046E04719E0DFF84C90134B21461C
:1057F000D9F800001B68427CE0689847A0B1A188F6
:10580000E388A2680095CDE90231CDE90420019535
:10581000638822883946404607F0F4FB07B03046DB
:10582000BDE8F04304F052B8E088012812BF002020
:10583000D9F80000806BE2E77802002070020020B7
:1058400010B5002004F02CF86FF07F4004F033F81E
:10585000012004F0B5F8002004F0C0F8002004F0A6
:10586000CDF8002004F032F80448006804F03AF85B
:10587000BDE81040002004F075B80000740200205C
:10588000F0B50A4600210023002400BF3DE00125B9
:1058900005FA01F3156805EA03049C4234D1056852
:1058A0004F000326BE40B543056015794E00B54054
:1058B0000668354305601579012D02D01579022D52
:1058C00016D185684F000326BE40B54385605579E3
:1058D0004E00B540866835438560456801268E4098
:1058E000B5434560456896798E40B6B2354345600C
:1058F000C5684F000326BE40B543C560D5794E004C
:10590000B540C6683543C560491C1029BFD3F0BDFA
:10591000F0B5002300244D07ED0E02FA05F3CE107A
:1059200000F1200555F826504E07F70E0F26BE4011
:10593000B543CF1000F1200646F82750CE1000F1F5
:10594000200555F8265045EA0304CE1000F1200545
:1059500045F82640F0BD0246002013690B4201D0F5
:10596000012000E0002070470AB1018300E041837C
:1059700070470000014AC2E900017047240200207C
:10598000014AC2E9000170472C020020014AC2E925
:105990000001704700030020014AC2E9000170477E
:1059A00034020020014AC2E90001704708030020C8
:1059B0002DE9F04F4B4989B00968B1F922200692D0
:1059C000D1F81CC0B1F92470DCF81C40A2898242D5
:1059D0009CBFE389984205D8A0EB02094FF0FF383D
:1059E000266812E0D4E90162002A71D0138883424C
:1059F0009CBF5588A8426BD8C01A526880B202EB8F
:105A00008000B0F90090B0F90280B9F1FF3F5FD09B
:105A10009CF81800A27C10FB02FB94F810A00790E1
:105A2000B1F92A50284608F0C9F9C0B208902D48AB
:105A300009FB0B620068A37C4FF00109816BCDE983
:105A40000293CDE90421C0695246C17E807ECDE932
:105A50000001DDE90603394607F0D4FAB8F1FF3F4B
:105A600018D045F0020008F0A9F91E48A37C08FBF5
:105A70000B620068816BCDE90293CDE90421C06916
:105A80005246C17E807ECDE90001DDE9060339463C
:105A900007F0B8FA134E3068C069417E007E81423B
:105AA00013D9022D11D085F0040008F087F9306871
:105AB000C069017EC27E11FB0271427ED319827ED3
:105AC00006981AFB020207F077FC089808F076F9AE
:105AD0000448627C0068418C1144418409B0BDE8EF
