:020000040800F2
:10000000C0230120790200081D18010809C3000857
:100010001918010809170008F57F01080000000001
:10002000000000000000000000000000C101000806
:10003000453300080000000015020008DD3C0108FF
:10004000930200089302000893020008930200083C
:10005000930200089302000893020008930200082C
:10006000930200089302000893020008930200081C
:10007000930200089302000893020008930200080C
:1000800093020008930200089302000893020008FC
:100090000D1700089302000893020008C9420008E7
:1000A00093020008930200089302000893020008DC
:1000B00093020008930200089302000893020008CC
:1000C00093020008930200089302000893020008BC
:1000D000930200086144010893020008930200089B
:1000E000930200089302000893020008930200089C
:1000F000930200089302000893020008930200088C
:1001000093020008F92601089302000893020008F0
:100110009302000893020008A5400108930200081A
:10012000930200089302000893020008D5220008F9
:10013000930200089302000893020008930200084B
:1001400093020008D51700089302000893020008E4
:10015000930200089302000893020008930200082B
:10016000930200089302000893020008930200081B
:100170009302000801190108930200089302000885
:1001800093020008930200089302000893020008FB
:1001900093020008930200089302000893020008EB
:1001A000F911010893020008C9220008DFF80CD0F9
:1001B00000F06CFD0048004701AC0208C02301209C
:1001C0002A4B19680868B0E8F04F80F30988BFF33C
:1001D0006F8F4FF0000080F311887047000000001F
:1001E00006480068006880F3088862B661B6BFF30D
:1001F0004F8FBFF36F8F00DF00BF00BF08ED00E03F
:10020000DFF80C00016841F470010160704700BF25
:1002100088ED00E0EFF30980BFF36F8F134B1A688E
:100220001EF0100F08BF20ED108A20E9F04F10607B
:1002300008B44FF0100080F31188BFF34F8FBFF365
:100240006F8F2EF00BF94FF0000080F3118808BC7F
:1002500019680868B0E8F04F1EF0100F08BFB0EC46
:10026000108A80F30988BFF36F8F70471401002054
:10027000EFF30580704700000648804706480047B6
:10028000FEE7FEE7FEE7FEE7FEE7FEE7FEE7FEE746
:10029000FEE7FEE7D13D0108AD0100082DE9F05F62
:1002A0000546002092469B468846064681464024E5
:1002B0001BE0284641464746224600F021FB5346B4
:1002C0005A46C01A914110D311461846224600F0F2
:1002D00008FB2D1A67EB01084F462246012000213A
:1002E00000F0FFFA17EB00094E41201EA4F10104B3
:1002F000DFDC484631462A464346BDE8F09F10B54C
:10030000431A934209D28318881803E010F8011D9C
:1003100003F8011D521EF9D210BD40EA01039B07EC
:1003200003D009E008C9121F08C0042AFAD203E06A
:1003300011F8013B00F8013B521EF9D210BDD2B2B8
:1003400001E000F8012B491EFBD270470022F6E7BE
:1003500010B513460A4604461946FFF7F0FF20463B
:1003600010BD421E12F8013F002BFBD111F8013BDA
:1003700002F8013B002BF9D1704730B505462A46FB
:100380000B4612F8010B13F8014B08B1A042F8D04C
:100390001CB1002802D06D1CF1E7284630BD10B515
:1003A000044604E00B7800F8013B03B1491C521EDF
:1003B000F8D2204610BD421C10F8011B0029FBD1C9
:1003C000801A704710B5002200E0521C835C8C5CE0
:1003D000A34201D1002BF8D1D8B2E1B2401A10BD2E
:1003E00030B504460020034600E05B1C934203D274
:1003F000E05CCD5C401BF8D030BD034611F8012B0A
:1004000000F8012B002AF9D11846704730B505468F
:100410000020034600E05B1C934205D2EC5CC85C04
:10042000201A01D1002CF6D130BD2DE9F05F9346A2
:100430000F4680460446002624F0C4FAD0F8009007
:10044000824614F8015B2DB100F07CFA0068405D33
:10045000C007F6D12B2D02D02D2D1AD0641E0021FD
:10046000CAF800105A463946204600F078FA01468C
:1004700027B13868A04201D1C7F80080DAF800003F
:10048000022809D0CAF80090700505D54842BDE899
:10049000F09F46F48066E2E70846F8E770B5064646
:1004A00024F090FA046805460A220021304600F044
:1004B000F3FA2C6070BD2DE9FE4F804681EA0300FF
:1004C000C00F0C46009021F0004123F00045B8EB2E
:1004D0000200A94105D24046214690461C460B46E3
:1004E000024623F00040104304D14046214603B0A9
:1004F000BDE8F08F270DC7F30A00C3F30A5102903D
:10050000401A0190402866DAC3F3130040F4801BC0
:100510000098924620B10023D2EB030A63EB0B0B49
:1005200001985946C0F14002504600F0DAF90646FB
:100530000D4650465946019A00F0F2F910EB0800BA
:100540006141002487EA115284EAE7731A433BD0E1
:10055000009A3AB3019A012A4FEA075210DC001BB5
:1005600061EB02014FF0004202EA0752CDE900427E
:10057000001C41F5801132462B4600F008FBB6E71F
:10058000001B61EB0201001C41F5801300185B4168
:100590002018A2F5001747EB030140EAD570B61901
:1005A0006D4111E06D084FEA360645EAC0754FEA25
:1005B0000752001B61EB0201001C41F58011490844
:1005C0004FEA30000019514132462B4603B0BDE8D6
:1005D000F04F00F0CFBA0098012240000023D0EB8A
:1005E000020263EBE073009821464FEAE074B8EB37
:1005F000000061EB0401E9E783F000435BE781F071
:10060000004158E72DE9FE4F81EA030404F000445D
:1006100021F0004100944FF0000B23F0004350EA1A
:10062000010402D052EA030404D10020014603B0C1
:10063000BDE8F08FC3F30A54C1F30A552C44A4F269
:10064000F3340194A0FB0254C1F3130141F480116F
:10065000C3F3130343F4801301FB024400FB034E76
:10066000840A970A44EA815447EA8357A4FB07683F
:1006700002958D0A05FB07854FEA932C04FB0C5469
:100680002705029D4FEA065847EA1637B5EB0805DD
:100690006EEB070C870E920E47EA811742EA83122F
:1006A000A7FB0201B6EB0B0164EB00042B0D43EA40
:1006B0000C335E1844EB1C50DA465146E7FB02014E
:1006C000C5F313044FEA0B3343EA14534FEA0432E1
:1006D000019C43EA0603A4F10C040294009CCDE9BA
:1006E00000B400F054FAA2E72DE9F04D81EA0304CA
:1006F00004F0004B21F0004514464FF0000A23F0AF
:10070000004150EA050220D054EA01021DD0C5F391
:100710000A570246C5F31303C1F31300C1F30A5687
:1007200040F4801543F48013A7EB0608101BD6464F
:1007300008F2FD3873EB050002D308F1010801E06F
:1007400092185B41B8F1000F03DA00200146BDE8C2
:10075000F08D00204FF48011064684460EE0171BF2
:1007600073EB050705D3121B63EB050306434CEA45
:10077000010C49084FEA300092185B4150EA01072A
:10078000EDD152EA030012D082EA040083EA0501A7
:10079000084303D100224FF0004308E0101BAB4197
:1007A00002D20122002302E06FF0010253101AEB83
:1007B00006004CEB085110EB0A0041EB0B01BDE8C1
:1007C000F04D00F0D7B90EB5C10F80EAE0700844D3
:1007D000CA07002140F233438DE80E000A460B465B
:1007E00000F0D5F903B000BD70B5C1F30A5201F0B5
:1007F00000450024C1F3130140F2FF3341F480119E
:100800009A4201DA002070BD40F233439A42A2F2CC
:10081000334203DC524200F073F800E090402C4376
:10082000F1D0404270BDC1F30A5210B5C1F31301BB
:1008300040F2FF3341F480119A4201DA002010BDEA
:1008400040F233439A42A2F2334203DC524200F0B8
:1008500057F810BD904010BD00F0004230F000404D
:100860000AD0C10D01F56071C0F3160042EA0151D2
:10087000C20840071143704700200146704701F04D
:10088000004330B421F0004150EA010206D00A0DC5
:10089000A2F56072C1F31301002A02DC30BC002013
:1008A0007047440F44EAC104C100E01830BC00EBBB
:1008B000C25000F029B930B50B4601460020202275
:1008C000012409E021FA02F59D4205D303FA02F55D
:1008D000491B04FA02F52844151EA2F10102F1DCBD
:1008E00030BD202A04DB203A00FA02F100207047D4
:1008F0009140C2F1200320FA03F31943904070475E
:10090000202A04DB203A21FA02F00021704721FA64
:1009100002F3D040C2F120029140084319467047CB
:10092000202A06DBCB17203A41FA02F043EAE073B3
:1009300006E041FA02F3D040C2F1200291400843A0
:1009400019467047004870472886070810B50446C6
:10095000FFF7F8FF0068005D00F0010010BD2DE911
:10096000F05F82460078002715468B460AF10104A5
:10097000B946302801D09DB113E014F8010B0127CE
:10098000782803D0582801D045B10AE00DB1102DC8
:1009900007D10027102514F8010B02E0082500E01C
:1009A0000A250026B0460EE005FB080005FB06F10F
:1009B000012701EB10461FFA80F8B6F5803F00D3FF
:1009C000B94614F8010B294600F072F90028EBDA59
:1009D000BBF1000F05D00FB1641E00E05446CBF808
:1009E0000040B9F1000F06D023F0ECFF02210160B6
:1009F000C81EBDE8F09F48EA0640FAE70FB400239E
:100A000000B589B00CA900910B996FF00042CB6042
:100A10001E4B06931E4B07930423CDE901321D4A5A
:100A2000089202466B46002000F0D0F909B05DF84C
:100A300014FB70B586B006464FF0FF300091CDE94B
:100A40000101002015460C4604903246694604A870
:100A5000FFF7D4FF03460498211825B108B10A46D0
:100A600000E022462A6000280DD0002B02DD00980D
:100A7000884208D0081B0094CDE90104324669463B
:100A800004A8FFF7BBFF06B070BD00000910000806
:100A9000271000084D0900082DE9F04791460F4640
:100AA00080460446002614F8015B2DB1FFF74AFF8B
:100AB0000068405DC007F6D12B2D02D02D2D18D037
:100AC000641E4A4639462046FFF749FF27B1396878
:100AD000A14201D1C7F8008071054FF002040BD587
:100AE0004042002803DD23F06DFF0460A007BDE84D
:100AF000F08746F48066E4E70028F8DA23F062FF26
:100B000004606FF00040F2E70029A8BF7047401C66
:100B1000490008BF20F00100704710B4B0FA80FC13
:100B200000FA0CF050EA010404BF10BC704749B150
:100B3000CCF1200421FA04F411FA0CF118BF0121C0
:100B400021430843A3EB0C01CB1D0106000A002B37
:100B5000BEBF002010BC704700EBC35010440029FA
:100B6000A4BF10BC7047401C490008BF20F0010022
:100B700010BC704710B5002B08DA401C41F1000191
:100B800092185B411A4301D120F0010010BD2DE9FC
:100B9000F04D92469B4611B1B1FA81F202E0B0FAF3
:100BA00080F220329046FFF79CFE04460F4640EA52
:100BB0000A0041EA0B0153465A46084303D1204636
:100BC0003946BDE8F08D114653EA010015D0C8F151
:100BD00040025046FFF794FE05460E4650465946E1
:100BE0004246FFF77EFE084301D0012000E00020CE
:100BF000054346EAE0762C4337430A984FEA4453CC
:100C0000A0EB08004FEAD4240A304FF0000244EA77
:100C100047544FEAD72502D500200146D1E7010508
:100C200010196941DDE9084500196941BDE8F04D39
:100C3000A0E7C1F30A52C1F3130140F2FF3341F4BC
:100C400080119A4202DA00200146704740F2334395
:100C50009A42A2F2334202DC5242FFF751BEFFF742
:100C600040BE000030B5002904DB4FF00044404294
:100C700064EB0101002B04DB4FF00044524264EBB3
:100C80000303994208BF904230BD0000064C074D57
:100C900006E0E06840F0010394E80700984710344C
:100CA000AC42F6D3FFF786FAFC8607081C870708D4
:100CB0003A2800D2303820F02002412A01D3A2F194
:100CC0003700884201D34FF0FF3070472DE9FF4FC6
:100CD000087881B09946FF2805D0491C2D2804D0FA
:100CE0000024002308E000230BE00124F9E703EBD4
:100CF000830300EB4303491C0878FF28F7D104B1B4
:100D00005B4200200090147801462D2C01D02B2C42
:100D100004D1521C2D2C12D00024009400251678EA
:100D2000FF2E0ED00A24A0FB04C801FB048100277B
:100D300000FB0711521C16EB0C006941EFE7012480
:100D4000EBE7994450EA010206D101980021C0E97D
:100D5000001105B0BDE8F08F0024A84D2646DFF84D
:100D6000A08200F071F982468B46B9F1000002DAE8
:100D7000C9F1000714E0074612E0F80707D0224641
:100D80002B4630464146FFF73DFC06468846224644
:100D90002B4610461946FFF735FC04460D467F10DA
:100DA000002FEAD1B9F1000F32464346504659466A
:100DB00002DAFFF799FC01E0FFF724FC009A0AB180
:100DC00081F00041019AC2E90001C2E72DE9FF4F1D
:100DD0001F468DB0D7E901464FF0FF382E2045461B
:100DE0004FF000090B90B9696D1C0E988847396A5D
:100DF000824688470028F6D11AF101000AD024F46F
:100E0000D064002E12DDBAF12B0F08D0BAF12D0FED
:100E10000CD102E0404611B09CE744F48064B9690B
:100E20006D1C0E9888478246A6F10106694660054A
:100E300001D52D2000E02B208DF8000001F1010BE1
:100E40000DF1200809E0B9696D1C0E9888478246AB
:100E50000F98761E44F400740560002E02DDBAF18E
:100E6000300FF0D00B998A453ED144F0800406E063
:100E70000F99681CA9F1010944F400740860761EFA
:100E8000B9696D1C0E98884782463028F0D02BE057
:100E90000B998A4505D1200603D444F08004761EC0
:100EA00018E0504625F022FB08B3761E0DF1130121
:100EB00044F400748B4508D2AAF130000BF8010B02
:100EC000200607D5A9F1010003E0200602D409F1AC
:100ED00001008146A00502D50F99681C0860B96918
:100EE0006D1C0E9888478246002ED1DC54E0002EFF
:100EF00052DDBAF1650F02D0BAF1450F4CD1A00511
:100F00004AD5761EB96924F440746D1C0E98884742
:100F10008246002E0DDD2B2804D0BAF12D0F08D10A
:100F200044F48074B9696D1C0E9888478246A6F116
:100F30000106E00501D52D2100E02B2108F8011B59
:100F4000CDF82C8021E0761E0DF1290144F40074C7
:100F500088450CD2AAF1300010F0FF0088F800009C
:100F600002D10B99884509D908F1010806E0E0058E
:100F700001D5244801E042F20F708146B9696D1C29
:100F80000E98884782460F980560002E04DD504673
:100F900025F0ACFA0028D6D1F9690E988847FF20D1
:100FA0008BF8000088F800000020069007904B4660
:100FB0006A4608A906A8FFF789FEA00502D46FF0CB
:100FC000010028E714F0240F0AD0E00714D1DDE96E
:100FD00006123868031D3B600068C0E900120BE090
:100FE000DDE90601FFF74BFC0146E00704D1386854
:100FF000021D3A600068016028460CE700002440AA
:101000000000F03FF1D8FFFF426842B1016811F8DB
:10101000013B23B1521EC0E900121846704701215E
:10102000C160881E704742685AB1C368016843B9FD
:1010300083688B4205D0491E521CC0E90012002073
:1010400070474FF0FF3070470EB540F233420292C6
:101050000022CDE900221346FFF799FD03B000BD41
:1010600070B501EB020410F8015B15F0070301D124
:1010700010F8013B2A1106D110F8012B03E010F8FB
:10108000016B01F8016B5B1EF9D12B0705D400231E
:10109000521E0FD401F8013BFAE710F8013B02F1B0
:1010A0000202A1EB030303E013F8015B01F8015B0B
:1010B000521EF9D5A142D6D3002070BD7047000062
:1010C0001FB50020294A0123CDE901200093039098
:1010D00003464FF4006226A128482DF04FFE002061
:1010E000274A0223CDE901200093039003464FF4E1
:1010F000007224A126482DF041FE0020254A03233A
:10110000CDE901200093039003464FF4806222A1B1
:1011100024482DF033FE0020234A0423CDE901208A
:101120000093039003464FF4807220A122482DF0D3
:1011300025FE0020214A0523CDE9012000930390DC
:1011400003464FF400721EA120482DF017FE002028
:101150001F4A0623CDE901200093039003464FF474
:1011600080721CA11E482DF009FE1FBD000000204A
:10117000765461736B47554900000000E1DE0208B8
:1011800004000020765461736B5573657249460004
:1011900029E5020808000020765461736B4D7367DF
:1011A00050726F00F5DE0208100000207654617363
:1011B0006B5374617274000055E302081400002040
:1011C000765461736B436F6D000000004DDE0208C2
:1011D0000C000020765461736B55534250726F00BF
:1011E000B9E602080020014908737047C441002095
:1011F00038B5446805460146204616F0B5FF00287C
:1012000008BF38BD464A286811280DD006DC0B28D7
:101210002AD00E2838D00F2817D07CE0282873D089
:10122000B0F5107F0AD076E09268002A08BF38BD7A
:10123000294601B02046BDE830401047526801B051
:1012400029462046BDE8304010472546204605F097
:101250000FF90090406E0468684605F0A1F9002C73
:101260001CBF2846A04738BD204605F001F9009074
:10127000683004F0FFFF009803216C3005F028F877
:10128000684605F08DF946E0E968486809680D2967
:1012900002D0202918D037E0002835DD4FF48071C6
:1012A000204617F02CF8204605F0E2F8009090F860
:1012B0002850684605F074F915F0020F1ED0012180
:1012C000204618F08BFA19E0002817DD25464FF468
:1012D0008071204617F013F8284605F0C9F80090F1
:1012E00090F82840684605F05BF914F0020F08BF3B
:1012F00038BD0121284618F071FA38BD2046BDE8F6
:101300003840022121F0DEBAE86820B920464FF4C7
:10131000807116F007FF2846BDE8384017F044BB3F
:101320003003002070B5044686B08069B4F908C067
:10133000658A00260091CDE90165CDE903C0B4F9C5
:101340000C00B4F91050C118B4F90A00B4F90EC079
:1013500010442B46624600F007F80546616800F02D
:10136000A7F906B0284670BD2DE9F04F85B0984624
:10137000DDE91164DDE90E5791468A46834606F0A1
:1013800069FE04F14C001749CDE90210CDE9005780
:1013900043464A465146584617F04AFA05001BD0C4
:1013A00005F066F810223146049017F01DF90E4C36
:1013B0000499B4E8CD133431A1E8CD1394E80D10AD
:1013C000A1E80D1054F82C0D086004A805F0E8F809
:1013D000206841682846884708F014FE05B0284672
:1013E000BDE8F08FF11100083C030020F0B5044681
:1013F00080688C4989B051F820506068002800F05E
:101400000A81052806D006287DD0122800F0B48075
:1014100000F004B9E869002808BF002651D0D5E9DA
:101420000012AB688DE80F0004F110010FC909F03C
:1014300029FC002655F8260008F0FDF9A169E869A5
:101440000A1A216901446069304406F097FAA169DB
:10145000E8690A1A21690144E069801B06F08EFAE6
:10146000E169E8690A1A616901442069304406F0BB
:1014700021FBE169E8690A1A61690144A069801BDE
:1014800006F018FB761C022ED4DBA86808F0D3F90E
:10149000E069E969D4F814C0431A2069421861442C
:1014A000801C521E06F062FBE169E869A2690B1A12
:1014B00061690144101A401C921E06F057FBEE6948
:1014C00011E055F8260008F0B6F9E069831BA06921
:1014D000821B606981192069304406F0A3FA761CEA
:1014E000022EEEDB0226D5E90301CDE90001E16918
:1014F000606901444B10A1698A1B811C206930443A
:1015000006F032F900E011E0D5E90501CDE900016E
:10151000E0696169831E01440122A06902EB610157
:10152000821B2069304406F01FF977E0206804F040
:101530009FFF0490206819F0A3FA50B1A06800281A
:1015400018BF00200AD10498006F002818BF01209E
:1015500004E00498406F002818BF0220049901EBB2
:101560008000C56E04A805F01BF800231A46284623
:10157000216805F059FD51E0206804F079FF0490DE
:10158000866E002E08BF04A842D0A168B0F95C7036
:10159000002908BF012103D003290CBF022100212B
:1015A00000EB8101406D0C6C08F05CF9204608F0FE
:1015B00042F906A806F0E2FBBDF81810A88B01441A
:1015C000ADF81810BDF81C10081AADF81C00BDF8D5
:1015D0001A00801CADF81A00BDF81E00801EADF880
:1015E0001E000498B0F96020B0F95E1006A807F05C
:1015F00051FF04A804F0D4FF022008F0BFF93046E0
:1016000004F036FF3A4606A9059005F019FE05A834
:1016100004F0C6FF02E0206818F0C2FB09B0002009
:10162000F0BD000060260708042928BF7047F0B409
:10163000044A52F8211091E8FE1080E8FE10F0BC38
:101640007047000060260708044A034911600449F6
:101650004A6A4862104670476C030020300300203D
:101660003C030020002808BF704738B50C460546EB
:1016700006F0F0FC284604F0FBFE00904465684646
:1016800004F08EFF284617F0D9FF08F0BBFC38BDE8
:10169000042928BF7047F0B4044A52F8211090E89A
:1016A000FD1081E8FD10F0BC7047000060260708BF
:1016B000F0B583B00F4605004FF0010421D006F0CD
:1016C000C9FC284604F0D4FE0190866E01A800965D
:1016D00004F066FF3946684609F0E8FF78B10098E3
:1016E0000024B04208D0284604F0C2FE01900099C0
:1016F000816601A804F054FF284617F09FFF08F008
:1017000081FC03B02046F0BD00BFFEE710B52A4AB9
:1017100000212A4800F0B5F927484068284A811A74
:1017200090422CD008DCB0F5803F35D025494018D8
:101730000CD001283DD115E0FD2939D0B1F53F7F0E
:1017400037D11D48C07A2049087033E0002406E0F4
:1017500019480B30005D1D490855601CC4B2082CA7
:10176000F6DB27E0002407E013480B30015D174843
:1017700008300155601CC4B2082CF5DB1AE00024C7
:1017800007E00D480B30015D104810300155601C1A
:10179000C4B2082CF5DB0DE0002406E006480B304F
:1017A000005D0B490855601CC4B2082CF6DB01E053
:1017B00000E000BF00BF10BDE81900200064004039
:1017C00003010200FFFEFDFF32000020BC190020D3
:1017D0002A00002010B500240D4A01210D4800F018
:1017E00050F90B480068A0F5407121390ED1084826
:1017F000007A58B90648807A012807D134B1000729
:1018000005490860BFF34F8FBFF36F8F10BD000015
:10181000E81900200068004004ED00E010B504461F
:101820000B48844209D10121480610F0A1F800219B
:101830004FF0007010F09CF808E00121880610F0CD
:1018400097F800214FF0806010F092F810BD000072
:101850000064004010B50021837A012202FA03F1EE
:101860003D4A126842F001023B4B1A603A4A1C3270
:1018700012688A43384B1C331A60027BCAB9364A55
:101880000C3212688A43344B0C331A604288C38886
:1018900042EA0343304A4032847A42F834300288C4
:1018A000838842EA03432C4A4032847A02EBC40222
:1018B0005360027B012A19D1274A0C3212680A436D
:1018C000254B0C331A604288038842EA0343224ABC
:1018D0004032847A42F83430C288838842EA034333
:1018E0001D4A4032847A02EBC4025360C27A3AB98C
:1018F000194A121D12688A43174B1B1D1A6006E015
:10190000154A121D12680A43134B1B1D1A600289E7
:1019100032B9114A143212688A430F4B14331A60D9
:101920000289012A06D10C4A143212680A430A4B72
:1019300014331A60427B012A06D1074A1C3212680E
:101940000A43054B1C331A60034A126822F0010255
:10195000014B1A6010BD0000006600401AB14369D7
:101960000B43436102E043698B434361704730B5E9
:10197000024600200023146824F002041460146856
:1019800044F00104146000E05B1C546814F0010F83
:1019900003D1A3F57F44FF3CF6D1546814F0010F46
:1019A00001D100206CE08C79012C04D1146844F042
:1019B0008004146003E0146824F080041460CC797F
:1019C000012C04D1146844F04004146003E014684E
:1019D00024F0400414600C7A012C04D1146844F003
:1019E0002004146003E0146824F0200414604C7A8E
:1019F000012C04D1146844F01004146003E014684E
:101A000024F0100414608C7A012C04D1146844F082
:101A10000804146003E0146824F008041460CC7A0D
:101A2000012C04D1146844F00404146003E0146829
:101A300024F0040414608C78A407CD7844EA05648B
:101A40000D7944EA05444D7944EA05540D886D1E2C
:101A50002C43D461146824F001041460002300E0D6
:101A60005B1C546814F0010F03D0A3F57F44FF3CC6
:101A7000F6D1546814F0010F01D0002000E00120DD
:101A800030BD10B500F5D87303EB01131B6803F0EC
:101A900004031372137A53B900F5D87303EB0113DF
:101AA0001B6840F2FF7404EA5353136009E000F529
:101AB000D87303EB01131B686FF0604404EAD3038F
:101AC000536000F5D87303EB01131B6803F00203A6
:101AD000537200F5D87303EB01135B6803F00F0337
:101AE000937200F5D87303EB01135B681B0AD37480
:101AF00000F5D87303EB01139B68D37200F5D8731C
:101B000003EB01139B681C0A147300F5D87303EBF5
:101B100001139B681C0C547300F5D87303EB01137D
:101B20009B681B0E937300F5D87303EB0113DB68FE
:101B3000D37300F5D87303EB0113DB681C0A14742C
:101B400000F5D87303EB0113DB681C0C547400F52B
:101B5000D87303EB0113DB681B0E937421B9C368C0
:101B600043F02003C36003E0036943F020030361F3
:101B700010BD000070B505460C46002613484560B0
:101B800000201249487204200872082088722078C8
:101B9000C87261780D480173A1784173E17881734F
:101BA0002179C17361790174A1794174E1798174FA
:101BB0000146074800F00EF8064600BF31460448CB
:101BC00000F09CF80128F9D170BD0000D419002064
:101BD0000064004010B502460020936803F0806363
:101BE000B3F1806F00D110E0936803F00063B3F1AC
:101BF000006F01D1012008E0936803F08053B3F136
:101C0000805F01D1022000E00420042874D002F596
:101C1000C07303EB00131B6803F0010402F5C073EB
:101C200003EB00131C600B7A7BB94B7A0C8843EAF8
:101C3000445302F5C07404EB00142468234302F5F6
:101C4000C07404EB0014236010E00B7A4C6843EA84
:101C5000C4034C7A234302F5C07404EB00142468D7
:101C6000234302F5C07404EB001423608B7A03F065
:101C70000F038B7202F5C07303EB00135B6823F054
:101C80000F0402F5C07303EB00135C6002F5C07330
:101C900003EB00135B688C7A234302F5C07404EBFA
:101CA000001463608B7B1C064B7B44EA03440B7B74
:101CB00044EA0323CC7A234302F5C07404EB0014F6
:101CC000A3608B7C1C064B7C44EA03440B7C44EAF7
:101CD0000323CC7B234302F5C07404EB0014E360C0
:101CE00002F5C07303EB00131B6843F0010402F517
:101CF000C07303EB00131C6010BD000010B502465A
:101D0000002321B1012907D002290FD109E09068F1
:101D10001D4C00EA04030BE090681C4C00EA04032D
:101D200006E090681A4C00EA040301E0002300BFBB
:101D300000BF184C181BA34216D007DC83B16FF00C
:101D4000806018180ED0022818D111E0B0F5007F7D
:101D500010D0114C001909D0B0F5003F0ED10BE0A6
:101D600002230DE000230BE0002309E0002307E03D
:101D7000012305E0012303E0012301E0002300BF6C
:101D800000BFD8B210BD000003000004000300082B
:101D900000000310000100080001FFF770B50025E6
:101DA0004FF4803400E0641E24B1802010F078FCF1
:101DB0000028F8D014B90325284670BD40F2FF5022
:101DC00010F02AFC2846F8E72DE9F04106460027E6
:101DD0004748056801E04648056815F0450FFAD008
:101DE00015F0040F06D00327042010F015FC384628
:101DF000BDE8F08115F0010F05D00127012010F09A
:101E00000BFC3846F4E710F045FCB04202D0102736
:101E10003846EDE740F2FF5010F0FEFB002010F0D6
:101E20005FFC04463348044201D13846E0E714F031
:101E3000004F01D01C20DBE714F0804F01D00920B7
:101E4000D6E714F0005F01D00A20D1E714F0805FDC
:101E500001D00B20CCE714F0006F01D00C20C7E7B5
:101E600014F0806F01D00D20C2E714F0807F01D004
:101E70000E20BDE714F4000F01D00F20B8E714F4D2
:101E8000800F01D01020B3E714F4001F01D01120FF
:101E9000AEE714F4801F01D01220A9E714F4002F3C
:101EA00001D01320A4E714F4802F01D014209FE761
:101EB00014F4003F01D015209AE714F4803F01D0BC
:101EC000162095E714F4004F01D0172090E714F482
:101ED000804F01D018208BE714F4005F01D0192047
:101EE00086E714F0080F01D01A2081E738467FE713
:101EF000342C014008E0FFFD70B500250F48046850
:101F000001E00E48046814F0450FFAD014F0040FF5
:101F100005D00325042010F07FFB284670BD14F087
:101F2000010F05D00125012010F076FB2846F5E7CA
:101F300040F2FF5010F070FB2846EFE7342C0140D0
:101F400070B500250B48046801E00A48046814F0E5
:101F5000450FFAD014F0040F05D00325042010F02B
:101F60005BFB284670BD40F2FF5010F055FB284641
:101F7000F8E70000342C01402DE9F04106460F46F9
:101F80004FF000082248056801E02148056815F077
:101F9000450FFAD015F0040F07D04FF003080420C6
:101FA00010F03AFB4046BDE8F08115F0010F06D075
:101FB0004FF00108012010F02FFB4046F3E710F02E
:101FC00069FBB04203D04FF010084046EBE740F207
:101FD000FF5010F021FB002010F082FB044614F4A7
:101FE000604F03D1200C38804046DCE714F4005FDA
:101FF00001D01320D7E714F4804F01D01020D2E78E
:1020000014F4004F01D00F20CDE74046CBE700008D
:10201000342C014070B500264FF480350F48046819
:1020200002E06D1E0D48046814F0450F01D1002D2B
:10203000F7D115B114F0040F05D00326042010F0D9
:10204000EBFA304670BD14F0400F05D0002640205A
:1020500010F0E2FA3046F5E73046F3E7342C014061
:10206000014609B90B487047012901D10020FAE760
:10207000022901D10020F6E7032901D10020F2E76F
:10208000042901D10020EEE7052901D10020EAE76B
:102090000020E8E7CC38002008B525208DF80000A6
:1020A00001208DF8010000208DF8020001208DF83C
:1020B000030068460FF0B4FB08BD00001CB516F025
:1020C000AFFF0446002000902346044A02210190FD
:1020D000034804F015FE034908601CBDC1610208F5
:1020E000B45D0308E00000201CB516F099FF04461B
:1020F000002000902346044A02210190034804F086
:10210000FFFD034908601CBD51620208B45D03086D
:10211000E40000201CB516F083FF04460020009068
:102120002346094A12210190084804F0E9FD0849B4
:1021300008600846006816F067FF044600230A227C
:10214000194616F045FB1CBDA54D0208245E030888
:10215000E80000201CB516F063FF04460020009044
:102160002346094A2A210190084804F0C9FD08497C
:1021700008600846006816F047FF044600230A225C
:10218000012116F025FB1CBD655702081C600308E1
:10219000EC0000202DE9F041ADF5976D04460E46A8
:1021A000174600200190029003900490002233A172
:1021B000A2A827F0C5F905461DB10DF5976DBDE83C
:1021C000F0812FA10EA827F0C7FA054605B1F4E764
:1021D00027B3012F02D0022F42D10DE00A2229A1FC
:1021E00018A827F0DDF905460DAB0122294918A8EA
:1021F00027F0B2FC054633E00020274908700A2288
:1022000026A118A827F0CCF905460DAB40F22622EE
:10221000264918A827F0A0FC054621E0244901EB37
:102220000410FEF7C8F88046214800EB041142462E
:1022300001A8FEF7B4F8334601AA1EA105A822F0B2
:10224000ADFB0A2205A918A827F0AAF905460DAB8F
:1022500040F6C4321B4918A827F07EFC054600BF93
:1022600000BF05B1A9E718A827F096F8002203A13E
:10227000104627F065F900BF9FE70000303A0000E4
:10228000303A2F00303A2F70726F6E616D652E7488
:1022900078740000D100002035000020303A2F6A09
:1022A00069616F7A68756E2E74787400201E002044
:1022B000001A0020303A2F2573253032642E7478AE
:1022C0007400000048200020022001498860704707
:1022D00000B0024010B511F009F910BD0246094BDB
:1022E0009A4201D2084801E00648103811F0005F18
:1022F00003D0064B0B40C36002E0044B0B408360ED
:102300007047000010640240006002407D0F7D0FA6
:1023100021B1026842F00102026003E0026822F08B
:102320000102026070470000016821F001010160B4
:102330000021016041608160C16001612121416132
:102340004A49884204D13D21484A103A91608CE0C4
:1023500046491831884205D14FF47461434A103A16
:10236000916082E041493031884205D14FF47411C7
:102370003E4A103A916078E03C494831884205D1A4
:102380004FF07461394A103A91606EE0374960311C
:10239000884204D13649354A103AD16065E0334964
:1023A0007831884204D13349304A103AD1605CE038
:1023B0002E499031884204D12F492C4A103AD160DD
:1023C00053E02A49A831884205D14FF03D51274AB0
:1023D000103AD16049E02949884204D13D21274A79
:1023E000083A116041E025491831884205D14FF47F
:1023F0007461224A083A116037E02049303188423E
:1024000005D14FF474111D4A083A11602DE01B49A3
:102410004831884205D14FF07461184A083A11607A
:1024200023E016496031884204D11149134A121F32
:1024300011601AE011497831884204D10D490F4AE0
:10244000121F116011E00D499031884204D10A49F0
:102450000A4A121F116008E00849A831884204D1D5
:102460004FF03D51054A121F116070471060024045
:102470003D000020400F002000003D20106402407D
:1024800021B1026842F02002026003E0026822F0FB
:1024900020020260704710B511F0800F09D022B100
:1024A000436943F08003436103E0436923F0800301
:1024B000436180290BD02AB1036801F01E04234335
:1024C000036004E0036801F01E04A343036010BD31
:1024D00010B500220268134B1A40CC680B682343E6
:1024E0004C6923438C692343CC6923430C6A2343FF
:1024F0004C6A23438C6A23434C6B23438C6B2343EA
:102500001A430260426922F00702D1E90B342343E7
:102510001A4342610B6943604B6883608B68C360F8
:1025200010BD00003F801CF02DE9F04389B00D463E
:10253000040004BF09B0BDE8F08305F08BFD112D48
:102540006BD0132D57D02646204603F091FF029002
:10255000C06B04F0F7F8074602A804F021F8A5F1D3
:102560004100192898BF2035A8460024002F71DDAE
:102570000025304603F07CFF0590C06B214604F037
:10258000EDF8814605A804F00BF8B9F1000002D07F
:1025900003F06EFF05460395002D58D02878A0F172
:1025A0004101192998BF2030C5B203A803F0F8FFF4
:1025B00045454CD1002E4DD005F04CFD304603F082
:1025C00057FF0190C06B04F0BDF8002818BF401EF3
:1025D000844244DC0198B0F93410A14231D08486A1
:1025E00001A803F0DDFF304617F028F8042130463B
:1025F00017F0F4F828E005F02DFD204603F038FF31
:102600000090B0F93450684603F0CAFF07F0FAFCB6
:10261000691C204600F017FE1CE005F01BFD20465B
:1026200003F026FF0190B0F9345001A803F0B8FF81
:1026300007F0E8FC290018BF691E204600F003FEE1
:1026400008E001A803F0ACFF07F0DCFC02E0641C2A
:10265000BC428DDB09B0BDE8F04307F0D3BC0446B3
:10266000B8E7002814BF00297047F8B50C460546A6
:1026700005F0F0FC284603F0FBFE0090C66B6846B0
:1026800003F08EFF2046FDF796FE421C21463046A1
:1026900003F0ACFF284616F0D1FF07F0B3FCF8BDFD
:1026A000F0B54468054685B0204603F0E1FE019090
:1026B000D0F8886001A803F073FF002E14BF012733
:1026C00000272946204615F04FFD002804BF05B01D
:1026D000F0BD2868112876D006DC0B2870D00E28B3
:1026E0006FD00F286ED0D4E00027212805D02628EF
:1026F0002FD0B0F5107F6CD0CBE0E868416800299E
:1027000043DD00680D2840D130460CF0CAFB00289C
:1027100006DB30460CF0C5FB0146204600F093FD79
:10272000002C7CD005F096FC204603F0A1FE029020
:10273000D0F8880038B116F071F90298C0F88870A6
:10274000204616F07BFF02A803F02AFF07F05AFC90
:102750009CE0E868012809D00A2802D00B2815D08F
:1027600097E00A21204617F039F892E030460CF045
:1027700098FB002809DB30460CF093FB014620460D
:1027800000F061FD204617F029FA82E0002C45D0C8
:1027900005F060FC204603F06BFE0090D0F8880046
:1027A00038B116F03BF90098C0F88870204616F052
:1027B00045FF684603F0F4FE07F024FC69E002E000
:1027C0002FE043E01BE0002F63D1E868007A38BBBC
:1027D0005FE0E86868B1007A28B10121204616F070
:1027E000FDFF05B0F0BD0221204616F0F7FF05B051
:1027F000F0BD0321204616F0F1FF05B0F0BD2646DE
:10280000204603F035FE0290D0F88400046802A848
:1028100003F0C6FE002C1CBF3046A04739E035E06F
:102820002CE0204603F024FE0090C06B03F020FF54
:102830000098D0F8880016F0F1F80098D0F89400CD
:1028400003F0E2FC684603F0ABFE22E0E868416872
:1028500000291EDD0168202910D00ADC092911D0C9
:102860000A2918BF1B2914D02046FFF75DFE05B0CA
:10287000F0BD212918BF2229F6D10AE0204600F038
:10288000FBF906E016F01EFCB04202D1204617F01C
:10289000A5F9284616F088F805B0F0BD002808BF55
:1028A000704738B5044605F0D5FB204603F0E0FD3F
:1028B0000090D0F8880040B116F0B0F800990020E0
:1028C000C1F88800204616F0B9FE684603F068FE9D
:1028D00007F098FB38BD70B586B0B0F90840458A5E
:1028E000D0F818C00026CDE90254CDE90016CDF885
:1028F00010C0B0F90C10B0F91040B0F90EC0B0F92A
:102900000A00194410442346624600F003F806B05A
:1029100070BD00002DE9FF4F85B01E46DDE914476C
:10292000DDE9128992468B46169D05F093FB05F171
:102930006C003049CDE90210CDE900894FF0FF333A
:1029400052465946059815F073FF05004BD003F029
:102950008FFD10223946009015F046FE009880F851
:102960008C40254C4C30B4E88E17A0E88E1794E8C4
:102970008E11A0E88E1154F8241D40F8841900210E
:1029800080F89010C686284603F072FD0190B0F9D9
:10299000381019B9C06C05F07BFA01460198C26A7B
:1029A000B0F98030126801EB4301561817F092FE1F
:1029B000074601A803F0F4FD32463946284617F0D1
:1029C0008FFA684603F0ECFD03F04FFE06462846FA
:1029D00003F04EFD0090C663684603F0E1FD2068F9
:1029E00041682846884707F00DFB09B02846BDE836
:1029F000F08F0000A1260008FC030020002808BF7B
:102A00007047F8B50D46064600F080FA854228BFAB
:102A1000F8BD05F01FFB304603F02AFD0090D0F80A
:102A20008840C06B294603F052FE684603F0B8FDAB
:102A3000304616F003FE1CB1294620460CF0E6F99C
:102A400007F0E0FAF8BD00002DE9F041044688B037
:102A5000006803F00DFD0690468ED0F8885006A859
:102A600003F09EFD002D18BF012506F00106206829
:102A700018F006F8002D18BF00200FD07D4951F83E
:102A800020506068002800F0EE80022800F0CE8020
:102A900005280CD012287DD000F0E8B8002E18BF11
:102AA0000120EBD1002814BF02200320E6E7D5E97E
:102AB0000123A86A29688DE80F0004F110000FC8EF
:102AC00008F0E0F85FF0000655F8260006F0B3FEC7
:102AD000A169A86A0A1A216901446069304404F0B6
:102AE0004DFFA169A86A0A1A21690144E069801BA7
:102AF00004F044FFE169A86A0A1A61690144206987
:102B0000304404F0D7FFE169A86A0A1A61690144F8
:102B1000A069801B04F0CEFF761C022ED4DBA86ACD
:102B200002281BDDA86806F086FEE169A86AD4F8D1
:102B300010C00B1A0CEB00014A1E616901440CF134
:102B4000020005F013F8E169A86AA2690B1A61692D
:102B50000144101A401C921E05F008F8D5E9030143
:102B6000CDE90001E1696069A26901444B10A96ADD
:102B7000D4F810C0521A8C44811C604604F0F4FD55
:102B8000D5E90501CDE90001A069AB6A6169C21A06
:102B9000E06900E019E001444FF0010C0CEB610129
:102BA000D4F810C09C44831E604604F0DDFD686AC2
:102BB00006F041FEE2696169A369501A181A401CC7
:102BC000091D121F04F076FF50E0206803F050FC4E
:102BD0000090B0F88060B0F98280C76C684603F05E
:102BE000DFFC208AB11C0844ADF80800A08A801CD4
:102BF000ADF80A00A08BA18A401A218B891B081A04
:102C0000C01EADF80C00A08B801EADF80E00022097
:102C100006F0B4FE384606F025FE286A06F00BFEE4
:102C2000424602A9206A04F00BFB1FE06169E069DB
:102C30004FF0FF32401AA0F1080102EB6106411C7F
:102C4000A269801B4410A2EB6107E86906F0F3FD5E
:102C5000002E0BDBBA19B91B204604F08FFE641C52
:102C6000761EF7D502E0206817F09AF808B0002029
:102C7000BDE8F08170260708002808BF70472DE9DD
:102C8000F04F9DB0064605F0E5F9304603F0F0FB45
:102C90000E90304616F08AFB82460E98B0F93670D8
:102CA00090F89010099190F88C80D0F83C90B0F991
:102CB00034000690484603F045FD04460E98B0F8EF
:102CC0008E100C91B0F982100791C16C0891D0E977
:102CD0000012CDE90412D0F89450016D1091416DAD
:102CE0001191816D1291C16D1391016E1491416E1C
:102CF0001591016F1691416F1791806F18900EA872
:102D000003F04EFC304616F08BFA03F0B1FB0D9049
:102D1000D0F800B00DA803F043FC4FEA2B4042422C
:102D20000FFA8BF0414204A806F0B4FB18F0020F32
:102D30001ABFBDF81200C01BBDF81600ADF8120096
:102D4000304616F06DFA0221CDF800A0CDE90171F0
:102D50000146BDF91230BDF9102000200BF0DDFF57
:102D6000074618F0010F07D0384609990CF091FB7F
:102D7000012138460CF09EFA4FF00008002C0BD9C8
:102D80004146484603F0EAFC014638460BF0FAFC9F
:102D900008F101084445F3D800240DF1400800BFB4
:102DA00058F82420214638460CF0B1FA641C032C54
:102DB000F6D300240DF14C08214658F8242038465B
:102DC0000CF08DFC641C032CF6D300240DF1580884
:102DD000214658F8242038460CF039FB641C032C9B
:102DE000F6D315B3284603F043FB0F9030F8028B5F
:102DF00000240546B8F1000FC8BF4FF0010911DDEE
:102E000005EBD40004F00701007809FA01F108424B
:102E100014BF01220022214638460CF0AEFA641C91
:102E20004445EDDB0FA803F0BBFB38460C990CF0D2
:102E3000DEFA384608990CF085FA384607990CF006
:102E400037FC384616F0CAFE314638460CF0E8FA30
:102E5000384606990CF03CFB0121304616F0BEFCCA
:102E6000304603F005FB0E90C0F888700EA803F002
:102E700097FB07F0C7F81DB0BDE8F08F2DE9F043D0
:102E800083B01D4617460C4606004FF0010818BFD8
:102E9000002D35DD05F0DEF8304603F0E9FA01904B
:102EA000C06B03F04FFC844225D2A146304600247B
:102EB00003F0DEFA0290C06B494603F04FFC064671
:102EC00002A803F06DFB1EB1304603F0D1FA0446B0
:102ED000200000900FD0FDF76EFA0446A84213DCE4
:102EE00038460099FDF789FA00203855684603F006
:102EF00057FB4FF0000801A803F052FB07F082F8DF
:102F000003B04046BDE8F0832C46E9E738B505003C
:102F10004FF000040DD005F09DF8284603F0A8FA04
:102F2000009000F0F7F90446684603F039FB07F01B
:102F300069F8204638BD38B505004FF000040CD0C4
:102F400005F088F8284603F093FA0090B0F9344071
:102F5000684603F025FB07F055F8204638BD000011
:102F6000042928BF70472DE9F001084A52F82110C2
:102F700091E8FC1180E8FC11D1E90823896A02621A
:102F8000C0E90931BDE8F00170470000702607086C
:102F9000002814BF002970472DE9F04383B015467F
:102FA0000E46074605F056F83846FFF7AFFF814654
:102FB000384603F05DFA0090D0F83C80D0F88840A5
:102FC000684603F0EDFA4D451BD23046FDF7F3F9A4
:102FD000421C2946404603F0FCFB40B103F048FA8E
:102FE00031460190FDF709FA01A803F0D9FA3846F5
:102FF00016F024FB74B12A46314620460BF065FFDB
:1030000008E031463846FFF72CFB1CB1314620461C
:103010000BF041FB06F0F6FF03B0BDE8F08300289B
:1030200008BF7047F8B50E46044605F013F8204671
:1030300003F01EFA009090F88C10D0F8885021F020
:103040000104002E18BF44F00104A1420BD080F807
:103050008C40684603F0A4FA45B104F0010128460B
:103060000CF028F902E0684603F09AFA06F0CAFF6D
:10307000F8BD0000044A0349116004490A6B086363
:103080001046704734040020F8030020FC030020A1
:10309000002808BF7047F8B50C46074604F0DAFF71
:1030A000384603F0E5F90090D0F88850C06C04F081
:1030B000EFFE06460098C464684603F071FA38468D
:1030C00000F006F9384616F0B9FA75B1204604F05A
:1030D000DFFEB04205D03846FFF7E0FB3846FFF789
:1030E000CBFD214628460CF02DF906F08BFFF8BDEC
:1030F000002808BF70472DE9F04F87B091460D4674
:10310000824604F0A7FF504603F0B2F90090D0F8D1
:103110009440C06B03F016FB86B2684603F040FA99
:10312000B5426AD205F108004FF0020B6E1C0BEBA2
:10313000D000B7B20390002C34D0204603F098F9A9
:103140000190B0F8008001A803F02AFAB0453DD202
:10315000039803F039F8060038D003F089F902909B
:10316000204603F085F90146059008F107000BEBB6
:10317000D0020298FDF7C3F805A803F011FA0298EF
:103180000780204603F040F8504603F071F90090A4
:10319000C0F89460684603F003FA02A803F000FA4E
:1031A000344613E003F010F8040026D003F060F971
:1031B0000190078001A803F0F3F9504603F058F995
:1031C0000090C0F89440684603F0EAF9204603F006
:1031D0004FF905F00701012202FA01F10490801C69
:1031E00000EBD500B9F1000F027814BF114322EAB9
:1031F0000101017004A803F0D3F906F003FF07B042
:10320000BDE8F08FF8B50C4605004FF0000618D069
:1032100004F020FF284603F02BF90090B0F9366047
:10322000D0F88850C486684603F0BAF93DB1284604
:1032300016F0BCF801462246284616F051FE06F06C
:10324000E1FE3046F8BD38B50C46050008BF38BD74
:1032500004F000FF284603F00BF90090C06B03F068
:1032600071FA002818BF401E844216DC0098B0F99D
:103270003410A1420BD08486684603F091F92846A9
:1032800016F0DCF90421284616F0A8FA02E0684698
:1032900003F086F906F0B6FE38BD0446E6E7000006
:1032A000042928BF70472DE9F001084A52F821107F
:1032B00090E8FC1181E8FC11D0E90823806A0A62D9
:1032C000C1E90930BDE8F001704700007026070829
:1032D000F8B5044603F0CCF801460090B0F9380088
:1032E000002804BFC86C04F0D3FD0099CA6AB1F984
:1032F0008030126800EB43001518084617F0EAF911
:103300000646684603F04CF92A463146204616F038
:10331000E7FDF8BDC06B03F015BA38B50D460024C3
:1033200003F0A6F80090C06B294603F017FA054693
:10333000684603F035F91DB1284603F099F80446B4
:10334000204638BD70470000F0B5ADF52F7D04462E
:103350000E4600270022214623A826F0F1F8054654
:1033600015B10DF52F7DF0BD224620A101A821F059
:1033700015FB01A919A826F0EFF9054605B1F0E7FC
:1033800009A8179020201890002700BF11A919A89C
:1033900026F0FCFA054615B99DF84D0000B922E06B
:1033A0009DF84D002E2800D11BE09DF84C0010F038
:1033B000100F15D131460DF14D00FCF7DEFF28B19D
:1033C0000DF14D0026F06AFB054600BF3146179807
:1033D000FCF7D3FF20B1179826F060FB054600BF2D
:1033E00000BF7F1CD2E700BF00BFBAE725732F00E4
:1033F00010B50248006815F011FB10BDE000002078
:1034000010B50248006815F009FB10BDE40000206B
:1034100088B0182102A8FCF799FF002001900090C5
:103420000024002700BF80464FF001090025824696
:1034300000267BE06946002025F0A2F8002861D034
:103440009DF80000C92806D19DF800008DF80800FD
:103450004FF00109012548E06946002025F090F869
:10346000002842D0062D3FD2DFE805F03E030D13C1
:10347000212C9DF80000DB2803D19DF800008DF879
:103480000900022530E09DF800008DF80A000325B0
:103490002AE09DF80010E01C02AA1154601CC4B27E
:1034A0009DF80A00801CA04200DC04251CE09DF869
:1034B0000000E82804D19DF80010E01C02AA115475
:1034C000052511E09DF80000B22804D19DF80010F8
:1034D000201D02AA115400259DF80A00C01D00F00D
:1034E000FF08A946002400BF00BFB9F1000FB3D107
:1034F0000F4840780E49097840EA012A414602A85F
:103500002AF054FA0A4840780949097840EA012625
:10351000B24508D0B246032701208DF8040001A966
:10352000384625F053F80A202AF094FC82E7000080
:103530002A00002070B5ADF51E7D20216846FCF7FD
:1035400005FF0026234924A014F056FDC6B23046DC
:1035500028F050F8012200210846FEF71BFE002249
:103560001DA112A825F0ECFF05461DB100200DF5A8
:103570001E7D70BD18A219A1684621F00FFA694698
:1035800008A826F0E9F805460DB10020EFE7002471
:1035900017E0104800EB04130FA211A1684621F0B8
:1035A000FDF901226946114825F0FAFF05460DB1E3
:1035B0000020DCE720460DF0DBFF0C4825F0ECFE98
:1035C000641CB442E5D3002203A1104625F0B8FFE5
:1035D0003046CCE7001A0020323A000025732F0055
:1035E00025732F25732E7478740000006C0E002054
:1035F000002808BF70472DE9F04F91B00E460446F1
:1036000004F028FD204602F033FF039090F854A008
:10361000D0F83490876DC56C03A802F0C1FF27B1C4
:1036200031462046B84700F0B8B901274FF00008EE
:10363000122E75D006DC082E73D0102E72D0112EEB
:103640003DD006E0132E70D01D2E00F0F3801E2E0C
:103650006AD0202EC0F2A181BAF1000F00F00181E2
:10366000204602F005FF0590D0F834A0D0F84C9029
:1036700005A802F095FFBAF1000F00F0F280504665
:1036800002F0F6FE82464946069006F095FB81461A
:103690005046FCF790FE484540F2E080D144484651
:1036A00006F036FB09EB00014846FCF7A6FE06A82B
:1036B00002F076FF0521204616F090F8D1E0B9F12E
:1036C000000F00F06A81484602F0D2FE0646294605
:1036D000049006F071FB0644304606F009FB0546EF
:1036E000CDF8088006F032FB0746681C1FFA80F808
:1036F000404606F02BFB0546AF420CD1414602A8DE
:1037000006F0E4FA2A4602A93046FCF7F8FD052146
:10371000204616F063F804A802F042FF00F03DB91D
:103720002FE03AE033E000E059E0B9F1000F00F09B
:103730003481484602F09CFE06462946049006F075
:103740003BFB0644304606F0D3FA0546CDF8088028
:1037500006F0FCFA8046681E87B2384606F0F6FA94
:103760000546A845D7D1394602A806F0AFFA2A4641
:1037700002A93046FCF7C3FD0521204616F02EF8BD
:10378000C9E7691C204600F06BFD00F006B9691E10
:10379000204600F065FD00F000B9002D00F0FD802E
:1037A000691E204600F05CFD204602F061FE01909B
:1037B000C76C456B01A802F0F3FE002D00F0ED8010
:1037C000284602F055FE06463946029006F0F4FA05
:1037D00005463046FCF7EFFDA84229D918E02046FF
:1037E00002F046FE0190C76C456B01A802F0D8FEBE
:1037F000002D7CD0284602F03BFE0646394602905A
:1038000006F0DAFA05463046FCF7D5FDA8420FD996
:103810003544284606F07CFA29182846FCF7EDFDC9
:1038200002A802F0BDFE0521204615F0D7FFB4E046
:1038300002A810E0204602F01BFE0390BAF1010F2F
:1038400008BF80F8548005D080F85470294620467F
:1038500000F006FD03A802F0A3FE9EE006A802F019
:103860009FFEB0B20890204602F002FE064602908B
:10387000B0F93800002813DD706B4FF0000940B13B
:1038800002F0F6FD009007F06FFD8146684602F0F9
:1038900087FEB6F9381009F101008842C8BF4746D3
:1038A0000298C06C099002A802F07AFE002F74D032
:1038B000089806F04BFA074626464FF000092046C6
:1038C00002F0D6FD0590406B40B102F0D1FD0A90A8
:1038D000FCF771FD81460AA802F062FE059907EB2C
:1038E0000900498F401A00F1010905A800E054E0E1
:1038F00002F056FEB9F1000F2ADD304609F1100939
:1039000002F0B6FD0090D0F834B0408F00EB090A09
:10391000684602F045FE5146584602F0BFFD5FEA98
:1039200000093AD0BBF1000F07D102F0A1FD0D90C4
:1039300080F800800DA802F033FE304602F098FDBA
:103940000090A0F83AA0C0F83490684602F028FE33
:10395000204602F08DFD0290466B02A802F020FE88
:10396000304602F085FD06460F90099906F024FACC
:1039700006443046FCF71FFD421CF0193146FCF7A7
:10398000BEFC3046089906F0A1F90FA802F008FE27
:103990000521204615F022FFF3E6204615F04EFEE5
:1039A00006F030FB11B0BDE8F08F70B545680446F5
:1039B00082B0284617F064F806462146284614F0DF
:1039C000D3FB002804BF02B070BD20680F2844D08C
:1039D00004DC0B2847D00E2850D066E0A0F580709C
:1039E000133804D0A0F580702D381FD05DE0284634
:1039F00015F0D6FF284602F03BFD009090F85610D7
:103A000081F0040180F85610684602F0C9FD0021DB
:103A100028461FF075FB284602F02AFD0090D0F8DA
:103A20008400002115F0A1FF684624E0E06878B129
:103A3000017A41B10168284600F039F90121284690
:103A400015F0CCFE31E00221284615F0C7FE2CE02F
:103A50000321284615F0C2FE27E0012128461FF069
:103A60004FFB02B070BD284602F002FD01903430D9
:103A700002F000FC01A802F093FD16E0AEB1E06890
:103A80004168002911DD01681B290ED009DC0929D4
:103A90001CBF0A290D2908D02846FFF7A9FD02B04E
:103AA00070BD212918BF2229F6D1204614F07CFFD1
:103AB00002B070BD70B5044686B0D4E9056CB0F9AB
:103AC0000850408A0DF1080E8EE861100020CDE903
:103AD0000010B4F90C00B4F91050C118B4F90A0080
:103AE000B4F90EC010442B46624600F009F80500F8
:103AF0001CBF618A00F056FB284606B070BD00006E
:103B00002DE9FF4F85B09846DDE91654DDE9126BCB
:103B100091468A46159F04F09DFA04F16001314AEE
:103B200003914BF480500096CDE9010243464A468A
:103B30005146059814F07CFE04004DD002F098FC2C
:103B400010223946049014F04FFD2748049990E85C
:103B5000CC1701F1600B8BE8CC17006AC1F880002C
:103B6000012081F85500681C18BF012081F88800E9
:103B7000002DD8BF082528B2088700254D87461C90
:103B800004A84D6302F00CFD204602F071FC009089
:103B9000476B408F00EB0608684602F001FD414686
:103BA000384602F07BFC060012D037B902F060FC08
:103BB0000190057001A802F0F3FC204602F058FCC9
:103BC0000090A0F83A804663684602F0E9FC03E002
:103BD000204614F023FF002406F014FA09B0204612
:103BE000BDE8F08FAB390008F004002010B50400E8
:103BF0002DED028B82B09FED118A19D004F02AFAC4
:103C0000204602F035FC009090F844100C4AD0EDAC
:103C1000120A684652F82110F8EEE00A00EE101A77
:103C2000B8EE400A80EE808A02F0BAFC06F0EAF9AB
:103C300002B0B0EE480ABDEC028B10BD00000000DF
:103C4000242A0708F0B583B016460D00044612BFBB
:103C5000002C03B0F0BD04F0FDF9204602F008FC92
:103C6000002701902F70406BA8B102F001FC00907A
:103C700007F07AFB0146009806F09EF80446701E95
:103C800084420FDC224628460099FCF738FB684640
:103C900002F086FC2F5501A802F082FC06F0B2F972
:103CA00003B0F0BD0446EDE78C2316F0F5BC002808
:103CB00008BF70472DE9F04186B00C46074604F076
:103CC000C9F9384602F0D4FB0090406B002849D077
:103CD00002F0CEFB03900098806E05F0C3FD804695
:103CE000384615F063FB0646039804F0A7F805462E
:103CF000009890F8601001F00301012918D0022902
:103D00000FD0416EC06A00680844201A441E039810
:103D100007F02AFB002C11DA0021384600F0A0FA47
:103D200017E0701B401C00EBD070A4EB6004EEE7C2
:103D3000406E711B081A201A441CE8E7A54204DBF8
:103D400002462146039807F0A3FA0146384600F0E0
:103D500087FA03A802F024FC404605F083FD3846AC
:103D600015F06CFC684602F01BFC06F04BF906B03F
:103D7000BDE8F0812DE9F8431D46DDE908691446E8
:103D80008846074604F066F9002F5FD0384602F0F7
:103D90006FFB3049009081652F49C1650021C0E962
:103DA0001281C0E90F4580F8446080F856900121E7
:103DB00080F8541090F88880684602F0F1FBB8F162
:103DC000000F2AD0002DAEBF012002206D42234BF0
:103DD0000A2D07DB83FB05218A10A2EBE175401C4D
:103DE0000A2DF7DA002CBABF0221644201210A2C05
:103DF00009DB00BF83FB04C24FEAA20CACEBE27408
:103E0000491C0A2CF6DA002E1CBF401C491C8842B3
:103E1000C8BF0146384600F0A9F8384620F08CFBB0
:103E2000384602F025FB009000F005FA0C490978AD
:103E3000884205D10098C06C411C384600F010FA49
:103E4000684602F0ADFB384615F0F8FB06F0DAF8EC
:103E5000BDE8F88335BD0108394502086766666626
:103E60007002002000000000002808BF70472DE904
:103E7000F04116462DED068B82B00C46F0EE418ADD
:103E8000B0EE60AAB0EE409A074604F0E3F8284886
:103E900050F8240000EE100AB8EE408A28EE090A15
:103EA00010EE100AFCF7D8FC9FED239B53EC192B66
:103EB000FCF701FB41EC100B20F0A6FD51EC100BC0
:103EC000FCF792FC28EE0A0A054610EE100AFCF7F1
:103ED000C3FC53EC192BFCF7EEFA41EC100B20F06D
:103EE00093FD51EC100BFCF77FFC28EE280A80466E
:103EF00010EE100AFCF7B0FC53EC192BFCF7DBFAC0
:103F000041EC100B20F080FD51EC100BFCF76CFC29
:103F1000CDE900460346424629463846FFF72AFFC8
:103F200002B0BDEC068BBDE8F04106F06BB80000B6
:103F3000242A070800000000000000000000E03F05
:103F4000002808BF704738B50C46054604F082F8D3
:103F5000284602F08DFA00908466284615F06EFB24
:103F6000684602F01DFB06F04DF838BD002808BF7A
:103F700070472DE9F04385B00C46054604F06AF819
:103F8000284602F075FA0090B0F93810468F4FF0CD
:103F90000008A14245D012DD406B80B102F068FA02
:103FA000019007F0E1F9A04206DD2146019805F0F5
:103FB00003FF019901F8008001A802F0F1FA6846B8
:103FC00002F0EEFAA01B461C284602F051FA0290BD
:103FD000D0F83490408F871902A802F0E1FA3946F0
:103FE000484602F05BFA060013D0B9F1000F07D182
:103FF00002F03EFA039080F8008003A802F0D0FAA5
:10400000284602F035FA02904787466302A802F07C
:10401000C7FA284602F02CFA00900487284615F0CB
:104020000DFB684602F0BCFA05F0ECFF05B0BDE8F8
:10403000F0832DE9F04F87B08A4605004FF0000865
:1040400004BF07B0BDE8F08F04F004F8284602F082
:104050000FFA0090B0F93870446B684602F0A0FA8D
:104060000026BAF1000F7ED054B1204602F000FACB
:104070000190FCF7A0F900F1010801A802F090FA04
:10408000504607F071F90446B8426DDC21465046AF
:1040900005F092FE471CA7EB08094FF000082846E0
:1040A00002F0E6F90390406B40B102F0E1F90590AF
:1040B000FCF781F9804605A802F072FA039909EB32
:1040C0000800498F401A00F1010803A802F068FABD
:1040D000B8F1000F2ADD284608F11008049502F017
:1040E000C7F90290D0F834B0408F00EB080902A85D
:1040F00002F056FA4946584602F0D0F95FEA000845
:1041000046D0BBF1000F06D102F0B2F9069006705E
:1041100006A802F045FA049802F0AAF90290A0F865
:104120003A90C0F8348002A802F03AFA284602F029
:104130009FF90090406B02F09BF93A46514601907E
:10414000FCF7DDF80198384400F8016C0098C4646D
:10415000B0F938108C4201BF90F854100129611E4B
:10416000C16401A801E006E01AE002F019FA68460D
:1041700002F016FA0CE0284602F07AF9009034308A
:1041800002F078F800984687C664684602F008FA9C
:10419000284615F053FA05F035FF07B0BDE8F08F5B
:1041A0003C4673E7002808BF704738B50D46044603
:1041B00003F050FF204602F05BF9009018B105664D
:1041C000204615F03BFA684602F0EAF905F01AFFBE
:1041D00038BD8C2316F052BE38B505000C4608BF1A
:1041E00038BD03F037FF284602F042F90090C16B5A
:1041F000A1421CDC016CA1421BDB816CA14210D0EE
:104200008464C16D00291CBF28468847284615F0E4
:1042100015FA684602F0C4F90521284615F0DEFAC1
:1042200002E0684602F0BCF905F0ECFE38BD0C4631
:10423000E0E70C46E1E738B50546406B002468B17D
:1042400002F016F900900446E96C05F0B5FD204433
:1042500005F04EFD0446684602F0A2F9204638BD3E
:1042600010B582B00C4602F003F90090406BE8B143
:1042700002F0FEF8019007F077F8009991F85420C9
:10428000002A18BF0122002C15DB844215DC00BF78
:10429000B1F93800801AA04211DBC86CA04218BFE7
:1042A000CC640020086501A802F07AF9684602F0A3
:1042B00077F902B010BD0024E7E70446E8E7B1F95A
:1042C0003800841AE9E7000010B5802000F05CF89F
:1042D00090B10A48006820F0800008490860012079
:1042E0000749487007480068012121EA1020044965
:1042F0000870802000F008F810BD0000003C01406C
:1043000028000020100402400149086070470000A6
:10431000143C014000B585B0012102200DF0F8FAEF
:10432000012188030DF034FB8020039000208DF8DC
:1043300010008DF8130003A9124801F07FFA07213D
:1043400001200FF01DFC8020019000208DF8080056
:104350000C208DF8090001208DF80A0001A800F05A
:104360001FF817208DF800000F208DF801008DF840
:10437000020001208DF8030068460DF051FA05B0E7
:1043800000BD00000004024001460020034A1268FC
:104390000A4201D0012000E000207047143C014097
:1043A000002123498279002A3AD00A46126803681C
:1043B0009A430B461A600A1D126803689A430B1D44
:1043C0001A60027911440A6803681A430A60184A9D
:1043D0000832126803689A43154B08331A601A1D95
:1043E000126803689A43124B0C331A604279102A00
:1043F0000ED11A1F126803681A430D4B08331A6056
:104400001A1D126803681A43094B0C331A600DE039
:104410000749427911440A6803681A430A6005E0B3
:10442000027911440A6803689A430A6070470000E1
:10443000003C014010B5024600200023102A03D1A1
:104440004FF02044636E0DE0B2F5807F02D1094C3D
:10445000236807E0B2F5805F02D1074C236801E0D2
:10446000064C236803EA01048C4201D0002000E0DE
:10447000012010BD840000A0A40000A0580100A0ED
:104480000021D0E900231A4383685B1E42EA4312ED
:10449000C36842EA4321014A11607047500100A0FD
:1044A00070B500220021002300244FF0204605684B
:1044B00006EB8505D5F840216FF30E02D0E90156D1
:1044C0003543C668354306693543466935438669D1
:1044D0003543C6693543066A3543466A35432A4340
:1044E00005683DB94FF02046056806EB8505C5F81F
:1044F000402115E03E4D2B686FF30E03D0E90756BF
:1045000045EA0605466A45EA060545EA0303384DCD
:104510002B604FF02046056806EB8505C5F8402165
:10452000056875BB324D0835066855F8261001F050
:104530007041856A2D686D1E866A7668761E45EA2A
:104540000616856AAD686D1E46EA0526856AED6821
:104550006D1E46EA0536856A2D8A6D1E46EA0546B9
:10456000856AAD8A6D1E46EA0556856A2D7E6D1EEA
:1045700046EA056529431E4D0835066845F82610AC
:1045800034E0FFE71A4D0835066855F8261001F0AB
:104590007041856A2D686D1E866A7668761E45EACA
:1045A0000616856AAD686D1E46EA0526856A2D8A5F
:1045B0006D1E46EA054529430E4D2C6804F07044F3
:1045C000856AED68A5F101054FEA0536856AAD8A71
:1045D000A5F1010546EA055545EA04044FF02045DA
:1045E000C5F84841034D066845F8261070BD000027
:1045F000400100A0480100A00449096841EA4001C7
:104600004FF02042C2F8541170470000540100A03E
:104610002DE9F047446805468EB04FF0000820466B
:1046200001F026FF0090B0F87CA0D0F86890D0F898
:104630008070D0F88860C06D002818BFD0F8008066
:10464000684601F0ADFF56B17168284688470028DA
:104650001CBF0EB0BDE8F0873668002EF4D1286884
:10466000172802BFC5F80C900EB0BDE8F08713DC28
:104670000F2844D00ADC0B2800F053810D2808BF16
:104680001AF0080F00F0F68000F054B9112814D089
:10469000142870D000F04EB926286DD006DC1E28F4
:1046A0006BD0202800F0F08000F044B92A2818D000
:1046B000B0F5107F2AD000F03DB92046EE6801F039
:1046C000D7FE0190717A002904BF317A012905D102
:1046D000B0F87C1041F48071A0F87C1001A800F0C3
:1046E000FDB8204601F0C4FE0090E968002912BF21
:1046F000C0F88410D0F88400E860684649E0B8F15A
:10470000000F1CBF2046C04700F014B927462046C2
:10471000EE6801F0ADFE0190B0F87C4001A801F018
:104720003FFFE868002804BF0EB0BDE8F087307A8C
:1047300020B314F0080F04BF384615F04FFA38467E
:1047400013F0CEFF14F0100F12BF14F4807F0EB0E0
:10475000BDE8F087002314F0800F1CBF0EB0BDE849
:10476000F08779483146B0F90020384615F0C2F993
:104770000EB0BDE8F0870FE018E024E0384601F005
:1047800077FE0190B0F87C1021F48071A0F87C10C5
:1047900001A801F005FFEBE705A9204600F079FC30
:1047A000DDE90612E86801604260E1E7E868022896
:1047B000DED10C94E8680D9027200A900AA9A86819
:1047C00016F01EFBD4E7E868012819D0002CCFD0E2
:1047D00003F040FC204601F04BFE0190B0F87C1045
:1047E00011F0080F06D021F00801A0F87C10204637
:1047F00014F024FF01A801F0D3FE05F003FCB7E795
:10480000384614F08FFF58B1384615F0E7F93846AE
:1048100014F00AFE88B10121384613F070FD0CE057
:10482000484615F037FA0746204601F021FE009071
:10483000C0F88070684601F0B3FEB4B103F00AFC22
:10484000204601F015FE0290B0F87C1011F0080F20
:1048500006D141F00801A0F87C10204614F0EEFECD
:1048600002A801F09DFE05F0CDFB002F04BF002043
:10487000E8607DE7E868C06800281FBF007A00286C
:10488000204615F0ABF955E0EE684EB3214670684E
:1048900016F0CEF800282746204622D001F0E8FD89
:1048A0000490B0F87C1011F0080F06D141F0080117
:1048B000A0F87C10384614F0C1FE04A801F070FE88
:1048C0002146706816F0A0F850B1204601F0D0FDE6
:1048D00002907168C0F880100DF1080001F060FED0
:1048E00028E001F0C5FD0490B0F87C1011F0080F2D
:1048F00006D021F00801A0F87C10384614F09EFE86
:1049000004A801F04DFE2146306816F07DF888B10C
:10491000204601F0ADFD02903168C0F8801002A879
:10492000DCE7204601F0A4FD0090703001F0A2FC0D
:104930006846D3E72946204613F016FC00281CBF22
:10494000284614F031F813E71405002070B588B03C
:10495000B0F908400DF10C0E0C9ED0F818C0456857
:104960008EE87010B0F812C00024CDE90014CDF824
:1049700008C0B0F90C10B0F91040B0F90EC0B0F991
:104980000A00194410442346624600F003F808B0B8
:1049900070BD00002DE9FF4F8BB09946DDE9188509
:1049A000DDE91B6792468B461E9C03F053FB04F126
:1049B0006000444945F48055CDE90210CDE90085F9
:1049C0004B46524659460B9813F032FF040073D001
:1049D00001F04EFD30223146049013F005FE3A4EB0
:1049E000049A06F1080102F1340E91E80B1F8EE8DB
:1049F0000B1FD6E90A01C2E915011D9850661A98E5
:104A0000A2F87C004FF00008C2F88080C2F86C80E9
:104A1000C2F888807068D06504A801F0C1FD05A9BE
:104A2000204600F036FB294841F28271CDF80C8017
:104A30000094CDE90110BDF91E00BDF91A10BDF9B1
:104A40001C20401A431CBDF91800121A521C13F006
:104A5000EFFE80467068416820468847204601F096
:104A600007FD0490C0F8688004A801F099FD42F2A7
:104A70000400054204BF204614F09EF803F0EAFA51
:104A8000204601F0F5FC0090006F0190684601F0AF
:104A900087FD394601A806F009FE58B1204601F00D
:104AA000E7FC009001990167684601F079FD204616
:104AB00014F0C4FD05F0A6FA05F0A4FA0FB02046E4
:104AC000BDE8F08F11460008140500204D54000881
:104AD0002DE9F041044698B0006800F0BDF90028C7
:104AE00014BFDB4DDB4D6068152802BFA86A18B003
:104AF000BDE8F08112DC0B282AD007DC002800F08A
:104B00009281052800F02C8100F09DB90E2800F05C
:104B10007781122800F03B8100F095B9162802BF7A
:104B2000E86918B0BDE8F081172802BF286A18B0FC
:104B3000BDE8F081182802BF686A18B0BDE8F081AE
:104B40001C2802BF686918B0BDE8F08100F07BB98D
:104B500020680E901C200F90206801F089FC0390C3
:104B6000016D0EA88847064603A801F019FD022E24
:104B700011DBD5E90001AA680292CDE90001D4E970
:104B800004023346A16905F07BFF20698719A069FB
:104B9000A0EB06082CE0286804F04DFE2169E869C6
:104BA0000844421E606902F0E9FEA269E869101A31
:104BB000411C606902F0E2FE6069471C39462069C9
:104BC00002F008FF3946A06902F004FF686804F0AB
:104BD00032FE20693946401C02F0FCFEA0693946CD
:104BE000401E02F0F7FE2069871CA069A0F10208B0
:104BF000286804F020FE42463946606902F0BEFE95
:104C0000686804F018FE606942463946401C02F0AC
:104C1000B5FE686A02287DDDA86804F00CFE6069B4
:104C20006A6A811C1044431E4246384602F09EFFC9
:104C30006069022EACBF0644861CE069471E2868E6
:104C400004F0F9FD3A463146206902F033FF3A4656
:104C50003146A06902F02EFFE069871E686804F003
:104C6000EAFD20693A463146401C02F023FFA06964
:104C70003A463146401E02F01DFFE8690228DCBFBB
:104C8000286A022820DDA86A0228C7BFE1690F1A36
:104C9000E069871EA86804F0CEFDE969022907DDF6
:104CA00022693B46901C11444A1E314602F05EFFC9
:104CB000286A022808DDA169E8698A1E081A3B46AD
:104CC0003146401C02F052FF286804F0B4FDD4E9DC
:104CD0000620216902F052FE686804F0ACFDA0696C
:104CE000421E2069411CE069401E02F047FEA86A8E
:104CF00002284BDD21698E1CA1698F1EE169081A0B
:104D0000441CA1F10208A86804F095FD43463A4608
:104D1000214600E003E0304602F028FF93E0296AD4
:104D2000B14285DD6069022E00F10208ACBF87192F
:104D300047462069ACBF3044801C22693B46114481
:104D4000A1F10102414602F011FFA069022EACBFA1
:104D5000821B821EE9693B46401A4146401C65E7BA
:104D6000208A00B2ADF81800A18A09B2ADF81A1075
:104D7000228B12B2ADF81C20A38B1BB2ADF81E30F3
:104D8000D5E9034CCDE9004C02F0EEFC5BE0208A53
:104D9000298B0844ADF81800A08AADF81A00208BC2
:104DA000298B401AADF81C00A08BADF81E002068BE
:104DB00001F05EFB0390006FF0B1022004F0DEFD15
:104DC000039991F87C00C0F3C00001EB8000006CF7
:104DD00004F031FD0398406B04F044FD0398006F2C
:104DE00001F046FB03990A90B1F95A2006A902F096
:104DF00027FA0AA801F0D4FB03A801F0D1FB22E0B6
:104E0000208AADF81800A08AADF81A00208BADF802
:104E10001C00A08BADF81E00A86804F00CFD06A8CD
:104E200002F0D0FE0FE0206801F022FB0390B0F802
:104E30005A1041F00C01A0F85A1003A801F0B0FB81
:104E4000206814F0ADFF18B00020BDE8F08100002C
:104E5000E40600201007002038B505004FF00004DC
:104E600010D003F0F7F8284601F002FB009090F80C
:104E70007C0010F0080F18BF0124684601F090FB79
:104E800005F0C0F8204638BD002808BF704738B587
:104E90000C46054603F0DEF8284601F0E9FA0090DA
:104EA000816CA14203D08464806E14F0C7FB684615
:104EB00001F076FB05F0A6F838BD2DE9F04182B08F
:104EC0000E46054603F0C6F8002D29D0284601F00D
:104ED000CFFA0190C16D8C6800F07FF90746019808
:104EE000466301A801F05CFB226801212846904737
:104EF00006462368032128469847804622680021F9
:104F0000284690470446284600F065FA4346324654
:104F100039462846009400F0DFF9284614F08EFB4D
:104F200005F070F802B0BDE8F081002808BF7047B6
:104F300030B583B00D46044603F08CF8204601F0EE
:104F400097FA0090006F0190684601F029FB29460E
:104F500001A806F0ABFB58B1204601F089FA009099
:104F600001990167684601F01BFB204614F066FBBF
:104F700005F048F803B030BD002808BF704738B5C9
:104F80000C46054603F066F8284601F071FA0090D9
:104F9000B0F95A10A14204D0A0F85A40284614F0A3
:104FA0004DFB684601F0FCFA05F02CF838BD0028EE
:104FB00008BF704738B50C46054603F04BF8284645
:104FC00001F056FA009004644464684601F0E8FA7F
:104FD000284614F033FB05F015F838BD002808BF4B
:104FE00070472DE9F04383B00C46804603F032F859
:104FF000404601F03DFA0090428E002C114614BF4D
:1050000041F0200621F02006B2423AD046864046C2
:1050100000F0E1F9009DEC690CB3204601F028FA9C
:105020000190076AB0F90200B5F90210A0EB01097E
:1050300001A801F0B5FAB5F9560048450DD1A86EA2
:10504000A0420AD095F8320010F0200F204602D07E
:1050500014F0C6FF01E014F0F5F93C00DDD1009832
:1050600090F87C0010F0400F08D016F0200F40465A
:1050700002D014F0B5FF01E014F0E4F9404614F05A
:10508000DDFA684601F08CFA04F0BCFF03B0BDE81D
:10509000F0832DE9F04F00278DB00C468146BA46CB
:1050A00001F0E6F90190C06D0121856848462A6843
:1050B000904780462A6803214846904707902A680F
:1050C00002214846904706902A68002148469047AA
:1050D0000646019815F0FEFA0590019815F001FBBF
:1050E0008346019890F8321001F02001002918BF82
:1050F000B0F958A04FF0000506D0B0F954501DB9D2
:10510000406B02F0C7FE851C0198C06E10B114F010
:1051100065F9074625806780A4F8048007990598FB
:10512000401A06EB0A01401E294420813944E180DF
:105130000699ABEB0101491E6181A4F80C80208225
:105140007019E681401E608201A801F029FAB4F9C5
:105150000C70B4F910604D46484601F089F906908C
:10516000C16DD0F8008006A8D1F8089001F018FAB7
:10517000D9F800200021284690478146284613F0A0
:1051800083FF050024D001F073F90790B0F90020E7
:105190000FFA88F1B0F90430521A5B1AB0F9021014
:1051A000A1EB284149450BD190F8280010F0800F61
:1051B00003D09642A8BF561E02E09F42D8BF5F1C94
:1051C00007A801F0EDF9284614F01DF80500DAD122
:1051D000A78126820DB0BDE8F08F10B501460020F2
:1051E00091F8322012F0200F08BF10BDB1F9540021
:1051F000002818BF10BD486B02F04CFE801C10BD8B
:1052000070B58AB00E46044601F032F90990C06DBF
:10521000856809A801F0C4F90094002E08BF182081
:105220000BD0012E08BF162007D0022E08BF152074
:1052300003D0032E08BF172000D10190696868468B
:1052400088470AB070BD2DE9F04383B01746884601
:10525000814601F00DF90090C16D056868468C68C3
:1052600001F09EF9226800214846904706464846CC
:1052700013F00AFF040004BF03B0BDE8F08301F09F
:10528000F7F80190B0F900102AB2B0F90430891A89
:105290009A1AB0F90230A3EB2543B34211D190F82A
:1052A000280010F0800F05D038688842A4BF481E3F
:1052B000386006E0D8F800009042DCBF501CC8F807
:1052C000000001A801F06CF9204613F09CFF0400D7
:1052D000D5D103B0BDE8F0832DE9FF4F85B09A46E4
:1052E00091460F46DDF848B0059801F0C1F80390EB
:1052F000C16D8C68FFF771FF064603A801F050F9F5
:1053000022680121059890470290226803210598A0
:105310009047019022680021059890470546BE42BB
:1053200004BF0298484506D10198504502BF5D452B
:1053300009B0BDE8F08FF41B0027B846059813F0BC
:10534000A3FE060004BF09B0BDE8F08F0198A5EBED
:105350000B05AAEB000A0298A0EB0909304601F000
:1053600087F80090806A10F0800F03D010F4007F5F
:1053700006D025E010F4007F22D010F0800F1FD15E
:1053800024B122461146304614F06EFA009890F887
:10539000280010F0800F06D004FB17A12A463046E3
:1053A0007F1C14F00CFA0098008D10F4007F07D0D9
:1053B00004FB08912A46304608F1010814F0FFF971
:1053C000684601F0EDF8304613F01DFF0600C5D128
:1053D00009B0BDE8F08F70B586B0064601F048F818
:1053E0000590D0E91A4505A801F0DAF854EA05005D
:1053F00004BF06B070BD69463046FFF74AFEACB147
:10540000BDF90620BDF90410204614F0A7F9BDF936
:105410000A00BDF90610401A421CBDF90800BDF98A
:105420000410401A411C204614F05AFD002D04BF00
:1054300006B070BDBDF90600BDF90210421ABDF9F3
:105440000410284614F08AF906B070BD2DE9F04327
:105450000446406889B0054613F0E2FE814601F03B
:1054600007F80290D0F88080876C466E02A801F0A1
:1054700097F82068172862D008DC0E2850D00F2833
:1054800016D0142818BF152859D052E01E2829D04C
:105490001F283ED0222802BFE76009B0BDE8F08394
:1054A000312801BF0020E06009B0BDE8F08340E092
:1054B0006FF07040874204D0384608F0D7FB01F007
:1054C000A7FB002E04BF09B0BDE8F083D4E90212A7
:1054D0002068CDE90405CDE9061204A8B04709B05B
:1054E000BDE8F083E068002804BF09B0BDE8F083A0
:1054F000B8F1000F18BFA84505D0404614F06EFB68
:1055000009B0BDE8F083284614F0C4FB09B0BDE83B
:10551000F0832146484612F027FE09B0BDE8F0832B
:10552000E0684168002904DD00680928EBD00A28FA
:105530000BD0002E1CBF2046C4F80490CED12046CC
:1055400013F032FA09B0BDE8F083284614F0F0FBFE
:1055500009B0BDE8F083000010B5002215A1104687
:1055600023F0EEFF002213A1134823F0E9FF1349B3
:1055700008700846007830B100220EA1104623F0D2
:10558000DFFF002010BD0EA10E4824F0E5F80B4906
:1055900008700846007830B1002206A1104623F0BA
:1055A000CFFF0020EEE7002202A1104623F0C8FF43
:1055B0000120E7E7323A00008C170020200000208D
:1055C000323A2F00041300202DE9FC4107460D4616
:1055D0000026002400200090019008205A4908600D
:1055E00010204860402088600020C8604FF4806030
:1055F000086108460DF0D2F81020FCF7E5FB0446E0
:1056000014B12046BDE8FC815048008800044E4992
:10561000086037204860402088600020C8604FF450
:105620008060086108460DF0B9F83720FCF7CCFB24
:1056300004460CB12046E5E74FF0FF3044490860CE
:1056400008204860302088600220C860002008617F
:105650000120486108460CF0F7FF00203A49086035
:1056600033204860402088600020C8604FF480608C
:10567000086108460DF092F83320FCF7A5FB0446BC
:105680000CB12046BEE709E04FF400100DF008F819
:1056900020B10DF07DF84DF82600761C2D480068ED
:1056A00040F22A610842EFD008200CF0F9FF28B13F
:1056B00008200CF0B1FF04242046A3E702200CF0E0
:1056C000EFFF28B102200CF0A7FF0224204699E743
:1056D00020200CF0E5FF28B120200CF09DFF0624CF
:1056E00020468FE74FF400700CF0DAFF30B14FF432
:1056F00000700CF091FF0724204683E740F2FF5032
:105700000CF08AFF00980006009901F47F4140EAFE
:105710000120009901F47F0140EA1120009940EA3C
:105720001160686001980006019901F47F4140EA28
:105730000120019901F47F0140EA1120019940EA1A
:105740001160286020465DE7984100206400002039
:10575000AC410020342C01402DE9F0430446C568DB
:1057600087B017468846002004F070F80646002DE2
:105770001BBF2879002826F0020046F0020004F042
:1057800065F82069012568B1D4E902120091CDE9DC
:1057900001250395D0F800C0638822883946404629
:1057A000E04719E0DFF84C90134B2146D9F8000090
:1057B0001B68427CE0689847A0B1A188E388A26892
:1057C0000095CDE90231CDE9042001956388228856
:1057D0003946404607F0D6FB07B03046BDE8F043F7
:1057E00004F034B8E088012812BF0020D9F8000086
:1057F000806BE2E77C0200207402002010B50020DC
:1058000004F00EF86FF07F4004F015F8012004F06A
:1058100097F8002004F0A2F8002004F0AFF8002070
:1058200004F014F80448006804F01CF8BDE81040C7
:10583000002004F057B8000078020020F0B50A46B6
:1058400000210023002400BF3DE0012505FA01F3FB
:10585000156805EA03049C4234D105684F0003260D
:10586000BE40B543056015794E00B5400668354326
:1058700005601579012D02D01579022D16D18568A4
:105880004F000326BE40B543856055794E00B540B4
:10589000866835438560456801268E40B54345607E
:1058A000456896798E40B6B235434560C5684F006D
:1058B0000326BE40B543C560D5794E00B540C668E5
:1058C0003543C560491C1029BFD3F0BDF0B5002396
:1058D00000244D07ED0E02FA05F3CE1000F120056D
:1058E00055F826504E07F70E0F26BE40B543CF1091
:1058F00000F1200646F82750CE1000F1200555F89B
:10590000265045EA0304CE1000F1200545F8264054
:10591000F0BD0246002013690B4201D0012000E0D7
:10592000002070470AB1018300E041837047000006
:10593000014AC2E90001704728020020014AC2E979
:105940000001704730020020014AC2E9000170479F
:1059500004030020014AC2E9000170473802002018
:10596000014AC2E9000170470C0300202DE9F04F05
:105970004B4989B00968B1F922200692D1F81CC0C0
:10598000B1F92470DCF81C40A28982429CBFE389F3
:10599000984205D8A0EB02094FF0FF38266812E0C4
:1059A000D4E90162002A71D0138883429CBF5588D4
:1059B000A8426BD8C01A526880B202EB8000B0F9DE
:1059C0000090B0F90280B9F1FF3F5FD09CF8180059
:1059D000A27C10FB02FB94F810A00790B1F92A50AA
:1059E000284608F0ABF9C0B208902D4809FB0B62BD
:1059F0000068A37C4FF00109816BCDE90293CDE9EA
:105A00000421C0695246C17E807ECDE90001DDE9F6
:105A10000603394607F0B6FAB8F1FF3F18D045F053
:105A2000020008F08BF91E48A37C08FB0B6200689B
:105A3000816BCDE90293CDE90421C0695246C17E54
:105A4000807ECDE90001DDE90603394607F09AFAC8
:105A5000134E3068C069417E007E814213D9022D09
:105A600011D085F0040008F069F93068C069017E42
:105A7000C27E11FB0271427ED319827E06981AFB08
:105A8000020207F059FC089808F058F90448627CB3
:105A90000068418C1144418409B0BDE8F08F0000DA
:105AA0007C020020044800290068C069C0691CBF4E
:105AB000027C0A60407C70477C0200200220088043
:105AC0007047C06982898A429CBFC289914210D9BD
:105AD000806880B102888A429CBF438899420AD874
